{
  "_format": "hh-sol-artifact-1",
  "contractName": "MockERC721",
  "sourceName": "contracts/mock/MockERC721.sol",
  "abi": [
    {
      "inputs": [],
      "stateMutability": "nonpayable",
      "type": "constructor"
    },
    {
      "anonymous": false,
      "inputs": [
        {
          "indexed": true,
          "internalType": "address",
          "name": "owner",
          "type": "address"
        },
        {
          "indexed": true,
          "internalType": "address",
          "name": "approved",
          "type": "address"
        },
        {
          "indexed": true,
          "internalType": "uint256",
          "name": "tokenId",
          "type": "uint256"
        }
      ],
      "name": "Approval",
      "type": "event"
    },
    {
      "anonymous": false,
      "inputs": [
        {
          "indexed": true,
          "internalType": "address",
          "name": "owner",
          "type": "address"
        },
        {
          "indexed": true,
          "internalType": "address",
          "name": "operator",
          "type": "address"
        },
        {
          "indexed": false,
          "internalType": "bool",
          "name": "approved",
          "type": "bool"
        }
      ],
      "name": "ApprovalForAll",
      "type": "event"
    },
    {
      "anonymous": false,
      "inputs": [
        {
          "indexed": true,
          "internalType": "address",
          "name": "from",
          "type": "address"
        },
        {
          "indexed": true,
          "internalType": "address",
          "name": "to",
          "type": "address"
        },
        {
          "indexed": true,
          "internalType": "uint256",
          "name": "tokenId",
          "type": "uint256"
        }
      ],
      "name": "Transfer",
      "type": "event"
    },
    {
      "inputs": [
        {
          "internalType": "address",
          "name": "to",
          "type": "address"
        },
        {
          "internalType": "uint256",
          "name": "tokenId",
          "type": "uint256"
        }
      ],
      "name": "approve",
      "outputs": [],
      "stateMutability": "nonpayable",
      "type": "function"
    },
    {
      "inputs": [
        {
          "internalType": "address",
          "name": "owner",
          "type": "address"
        }
      ],
      "name": "balanceOf",
      "outputs": [
        {
          "internalType": "uint256",
          "name": "",
          "type": "uint256"
        }
      ],
      "stateMutability": "view",
      "type": "function"
    },
    {
      "inputs": [
        {
          "internalType": "uint256",
          "name": "tokenId",
          "type": "uint256"
        }
      ],
      "name": "burn",
      "outputs": [],
      "stateMutability": "nonpayable",
      "type": "function"
    },
    {
      "inputs": [
        {
          "internalType": "uint256",
          "name": "tokenId",
          "type": "uint256"
        }
      ],
      "name": "getApproved",
      "outputs": [
        {
          "internalType": "address",
          "name": "",
          "type": "address"
        }
      ],
      "stateMutability": "view",
      "type": "function"
    },
    {
      "inputs": [
        {
          "internalType": "address",
          "name": "owner",
          "type": "address"
        },
        {
          "internalType": "address",
          "name": "operator",
          "type": "address"
        }
      ],
      "name": "isApprovedForAll",
      "outputs": [
        {
          "internalType": "bool",
          "name": "",
          "type": "bool"
        }
      ],
      "stateMutability": "view",
      "type": "function"
    },
    {
      "inputs": [
        {
          "internalType": "address",
          "name": "to",
          "type": "address"
        }
      ],
      "name": "mint",
      "outputs": [],
      "stateMutability": "nonpayable",
      "type": "function"
    },
    {
      "inputs": [],
      "name": "name",
      "outputs": [
        {
          "internalType": "string",
          "name": "",
          "type": "string"
        }
      ],
      "stateMutability": "view",
      "type": "function"
    },
    {
      "inputs": [
        {
          "internalType": "uint256",
          "name": "tokenId",
          "type": "uint256"
        }
      ],
      "name": "ownerOf",
      "outputs": [
        {
          "internalType": "address",
          "name": "",
          "type": "address"
        }
      ],
      "stateMutability": "view",
      "type": "function"
    },
    {
      "inputs": [
        {
          "internalType": "address",
          "name": "from",
          "type": "address"
        },
        {
          "internalType": "address",
          "name": "to",
          "type": "address"
        },
        {
          "internalType": "uint256",
          "name": "tokenId",
          "type": "uint256"
        }
      ],
      "name": "safeTransferFrom",
      "outputs": [],
      "stateMutability": "nonpayable",
      "type": "function"
    },
    {
      "inputs": [
        {
          "internalType": "address",
          "name": "from",
          "type": "address"
        },
        {
          "internalType": "address",
          "name": "to",
          "type": "address"
        },
        {
          "internalType": "uint256",
          "name": "tokenId",
          "type": "uint256"
        },
        {
          "internalType": "bytes",
          "name": "data",
          "type": "bytes"
        }
      ],
      "name": "safeTransferFrom",
      "outputs": [],
      "stateMutability": "nonpayable",
      "type": "function"
    },
    {
      "inputs": [
        {
          "internalType": "address",
          "name": "operator",
          "type": "address"
        },
        {
          "internalType": "bool",
          "name": "approved",
          "type": "bool"
        }
      ],
      "name": "setApprovalForAll",
      "outputs": [],
      "stateMutability": "nonpayable",
      "type": "function"
    },
    {
      "inputs": [],
      "name": "supply",
      "outputs": [
        {
          "internalType": "uint256",
          "name": "",
          "type": "uint256"
        }
      ],
      "stateMutability": "view",
      "type": "function"
    },
    {
      "inputs": [
        {
          "internalType": "bytes4",
          "name": "interfaceId",
          "type": "bytes4"
        }
      ],
      "name": "supportsInterface",
      "outputs": [
        {
          "internalType": "bool",
          "name": "",
          "type": "bool"
        }
      ],
      "stateMutability": "view",
      "type": "function"
    },
    {
      "inputs": [],
      "name": "symbol",
      "outputs": [
        {
          "internalType": "string",
          "name": "",
          "type": "string"
        }
      ],
      "stateMutability": "view",
      "type": "function"
    },
    {
      "inputs": [
        {
          "internalType": "uint256",
          "name": "tokenId",
          "type": "uint256"
        }
      ],
      "name": "tokenURI",
      "outputs": [
        {
          "internalType": "string",
          "name": "",
          "type": "string"
        }
      ],
      "stateMutability": "view",
      "type": "function"
    },
    {
      "inputs": [
        {
          "internalType": "address",
          "name": "from",
          "type": "address"
        },
        {
          "internalType": "address",
          "name": "to",
          "type": "address"
        },
        {
          "internalType": "uint256",
          "name": "tokenId",
          "type": "uint256"
        }
      ],
      "name": "transferFrom",
      "outputs": [],
      "stateMutability": "nonpayable",
      "type": "function"
    }
  ],
  "bytecode": "0x60806040523480156200001157600080fd5b506040518060400160405280600a81526020017f4d6f636b455243373231000000000000000000000000000000000000000000008152506040518060400160405280600481526020017f4d4f434b0000000000000000000000000000000000000000000000000000000081525081600090816200008f919062000324565b508060019081620000a1919062000324565b5050506200040b565b600081519050919050565b7f4e487b7100000000000000000000000000000000000000000000000000000000600052604160045260246000fd5b7f4e487b7100000000000000000000000000000000000000000000000000000000600052602260045260246000fd5b600060028204905060018216806200012c57607f821691505b602082108103620001425762000141620000e4565b5b50919050565b60008190508160005260206000209050919050565b60006020601f8301049050919050565b600082821b905092915050565b600060088302620001ac7fffffffffffffffffffffffffffffffffffffffffffffffffffffffffffffffff826200016d565b620001b886836200016d565b95508019841693508086168417925050509392505050565b6000819050919050565b6000819050919050565b600062000205620001ff620001f984620001d0565b620001da565b620001d0565b9050919050565b6000819050919050565b6200022183620001e4565b6200023962000230826200020c565b8484546200017a565b825550505050565b600090565b6200025062000241565b6200025d81848462000216565b505050565b5b8181101562000285576200027960008262000246565b60018101905062000263565b5050565b601f821115620002d4576200029e8162000148565b620002a9846200015d565b81016020851015620002b9578190505b620002d1620002c8856200015d565b83018262000262565b50505b505050565b600082821c905092915050565b6000620002f960001984600802620002d9565b1980831691505092915050565b6000620003148383620002e6565b9150826002028217905092915050565b6200032f82620000aa565b67ffffffffffffffff8111156200034b576200034a620000b5565b5b62000357825462000113565b6200036482828562000289565b600060209050601f8311600181146200039c576000841562000387578287015190505b62000393858262000306565b86555062000403565b601f198416620003ac8662000148565b60005b82811015620003d657848901518255600182019150602085019450602081019050620003af565b86831015620003f65784890151620003f2601f891682620002e6565b8355505b6001600288020188555050505b505050505050565b6127dc806200041b6000396000f3fe608060405234801561001057600080fd5b50600436106101005760003560e01c80636352211e11610097578063a22cb46511610066578063a22cb465146102ab578063b88d4fde146102c7578063c87b56dd146102e3578063e985e9c51461031357610100565b80636352211e146102115780636a6278421461024157806370a082311461025d57806395d89b411461028d57610100565b8063095ea7b3116100d3578063095ea7b3146101a157806323b872dd146101bd57806342842e0e146101d957806342966c68146101f557610100565b806301ffc9a714610105578063047fc9aa1461013557806306fdde0314610153578063081812fc14610171575b600080fd5b61011f600480360381019061011a9190611a41565b610343565b60405161012c9190611a89565b60405180910390f35b61013d610425565b60405161014a9190611abd565b60405180910390f35b61015b61042b565b6040516101689190611b68565b60405180910390f35b61018b60048036038101906101869190611bb6565b6104bd565b6040516101989190611c24565b60405180910390f35b6101bb60048036038101906101b69190611c6b565b610503565b005b6101d760048036038101906101d29190611cab565b61061a565b005b6101f360048036038101906101ee9190611cab565b61067a565b005b61020f600480360381019061020a9190611bb6565b61069a565b005b61022b60048036038101906102269190611bb6565b6106a6565b6040516102389190611c24565b60405180910390f35b61025b60048036038101906102569190611cfe565b61072c565b005b61027760048036038101906102729190611cfe565b610755565b6040516102849190611abd565b60405180910390f35b61029561080c565b6040516102a29190611b68565b60405180910390f35b6102c560048036038101906102c09190611d57565b61089e565b005b6102e160048036038101906102dc9190611ecc565b6108b4565b005b6102fd60048036038101906102f89190611bb6565b610916565b60405161030a9190611b68565b60405180910390f35b61032d60048036038101906103289190611f4f565b61097e565b60405161033a9190611a89565b60405180910390f35b60007f80ac58cd000000000000000000000000000000000000000000000000000000007bffffffffffffffffffffffffffffffffffffffffffffffffffffffff1916827bffffffffffffffffffffffffffffffffffffffffffffffffffffffff1916148061040e57507f5b5e139f000000000000000000000000000000000000000000000000000000007bffffffffffffffffffffffffffffffffffffffffffffffffffffffff1916827bffffffffffffffffffffffffffffffffffffffffffffffffffffffff1916145b8061041e575061041d82610a12565b5b9050919050565b60065481565b60606000805461043a90611fbe565b80601f016020809104026020016040519081016040528092919081815260200182805461046690611fbe565b80156104b35780601f10610488576101008083540402835291602001916104b3565b820191906000526020600020905b81548152906001019060200180831161049657829003601f168201915b5050505050905090565b60006104c882610a7c565b6004600083815260200190815260200160002060009054906101000a900473ffffffffffffffffffffffffffffffffffffffff169050919050565b600061050e826106a6565b90508073ffffffffffffffffffffffffffffffffffffffff168373ffffffffffffffffffffffffffffffffffffffff160361057e576040517f08c379a000000000000000000000000000000000000000000000000000000000815260040161057590612061565b60405180910390fd5b8073ffffffffffffffffffffffffffffffffffffffff1661059d610ac7565b73ffffffffffffffffffffffffffffffffffffffff1614806105cc57506105cb816105c6610ac7565b61097e565b5b61060b576040517f08c379a0000000000000000000000000000000000000000000000000000000008152600401610602906120f3565b60405180910390fd5b6106158383610acf565b505050565b61062b610625610ac7565b82610b88565b61066a576040517f08c379a000000000000000000000000000000000000000000000000000000000815260040161066190612185565b60405180910390fd5b610675838383610c1d565b505050565b610695838383604051806020016040528060008152506108b4565b505050565b6106a381610f16565b50565b6000806106b283611064565b9050600073ffffffffffffffffffffffffffffffffffffffff168173ffffffffffffffffffffffffffffffffffffffff1603610723576040517f08c379a000000000000000000000000000000000000000000000000000000000815260040161071a906121f1565b60405180910390fd5b80915050919050565b60016006600082825461073f9190612240565b92505081905550610752816006546110a1565b50565b60008073ffffffffffffffffffffffffffffffffffffffff168273ffffffffffffffffffffffffffffffffffffffff16036107c5576040517f08c379a00000000000000000000000000000000000000000000000000000000081526004016107bc906122e6565b60405180910390fd5b600360008373ffffffffffffffffffffffffffffffffffffffff1673ffffffffffffffffffffffffffffffffffffffff168152602001908152602001600020549050919050565b60606001805461081b90611fbe565b80601f016020809104026020016040519081016040528092919081815260200182805461084790611fbe565b80156108945780601f1061086957610100808354040283529160200191610894565b820191906000526020600020905b81548152906001019060200180831161087757829003601f168201915b5050505050905090565b6108b06108a9610ac7565b83836112be565b5050565b6108c56108bf610ac7565b83610b88565b610904576040517f08c379a00000000000000000000000000000000000000000000000000000000081526004016108fb90612185565b60405180910390fd5b6109108484848461142a565b50505050565b606061092182610a7c565b600061092b611486565b9050600081511161094b5760405180602001604052806000815250610976565b806109558461149d565b604051602001610966929190612342565b6040516020818303038152906040525b915050919050565b6000600560008473ffffffffffffffffffffffffffffffffffffffff1673ffffffffffffffffffffffffffffffffffffffff16815260200190815260200160002060008373ffffffffffffffffffffffffffffffffffffffff1673ffffffffffffffffffffffffffffffffffffffff16815260200190815260200160002060009054906101000a900460ff16905092915050565b60007f01ffc9a7000000000000000000000000000000000000000000000000000000007bffffffffffffffffffffffffffffffffffffffffffffffffffffffff1916827bffffffffffffffffffffffffffffffffffffffffffffffffffffffff1916149050919050565b610a858161156b565b610ac4576040517f08c379a0000000000000000000000000000000000000000000000000000000008152600401610abb906121f1565b60405180910390fd5b50565b600033905090565b816004600083815260200190815260200160002060006101000a81548173ffffffffffffffffffffffffffffffffffffffff021916908373ffffffffffffffffffffffffffffffffffffffff160217905550808273ffffffffffffffffffffffffffffffffffffffff16610b42836106a6565b73ffffffffffffffffffffffffffffffffffffffff167f8c5be1e5ebec7d5bd14f71427d1e84f3dd0314c0f7b2291e5b200ac8c7c3b92560405160405180910390a45050565b600080610b94836106a6565b90508073ffffffffffffffffffffffffffffffffffffffff168473ffffffffffffffffffffffffffffffffffffffff161480610bd65750610bd5818561097e565b5b80610c1457508373ffffffffffffffffffffffffffffffffffffffff16610bfc846104bd565b73ffffffffffffffffffffffffffffffffffffffff16145b91505092915050565b8273ffffffffffffffffffffffffffffffffffffffff16610c3d826106a6565b73ffffffffffffffffffffffffffffffffffffffff1614610c93576040517f08c379a0000000000000000000000000000000000000000000000000000000008152600401610c8a906123d8565b60405180910390fd5b600073ffffffffffffffffffffffffffffffffffffffff168273ffffffffffffffffffffffffffffffffffffffff1603610d02576040517f08c379a0000000000000000000000000000000000000000000000000000000008152600401610cf99061246a565b60405180910390fd5b610d0f83838360016115ac565b8273ffffffffffffffffffffffffffffffffffffffff16610d2f826106a6565b73ffffffffffffffffffffffffffffffffffffffff1614610d85576040517f08c379a0000000000000000000000000000000000000000000000000000000008152600401610d7c906123d8565b60405180910390fd5b6004600082815260200190815260200160002060006101000a81549073ffffffffffffffffffffffffffffffffffffffff02191690556001600360008573ffffffffffffffffffffffffffffffffffffffff1673ffffffffffffffffffffffffffffffffffffffff168152602001908152602001600020600082825403925050819055506001600360008473ffffffffffffffffffffffffffffffffffffffff1673ffffffffffffffffffffffffffffffffffffffff16815260200190815260200160002060008282540192505081905550816002600083815260200190815260200160002060006101000a81548173ffffffffffffffffffffffffffffffffffffffff021916908373ffffffffffffffffffffffffffffffffffffffff160217905550808273ffffffffffffffffffffffffffffffffffffffff168473ffffffffffffffffffffffffffffffffffffffff167fddf252ad1be2c89b69c2b068fc378daa952ba7f163c4a11628f55a4df523b3ef60405160405180910390a4610f1183838360016116d2565b505050565b6000610f21826106a6565b9050610f318160008460016115ac565b610f3a826106a6565b90506004600083815260200190815260200160002060006101000a81549073ffffffffffffffffffffffffffffffffffffffff02191690556001600360008373ffffffffffffffffffffffffffffffffffffffff1673ffffffffffffffffffffffffffffffffffffffff168152602001908152602001600020600082825403925050819055506002600083815260200190815260200160002060006101000a81549073ffffffffffffffffffffffffffffffffffffffff021916905581600073ffffffffffffffffffffffffffffffffffffffff168273ffffffffffffffffffffffffffffffffffffffff167fddf252ad1be2c89b69c2b068fc378daa952ba7f163c4a11628f55a4df523b3ef60405160405180910390a46110608160008460016116d2565b5050565b60006002600083815260200190815260200160002060009054906101000a900473ffffffffffffffffffffffffffffffffffffffff169050919050565b600073ffffffffffffffffffffffffffffffffffffffff168273ffffffffffffffffffffffffffffffffffffffff1603611110576040517f08c379a0000000000000000000000000000000000000000000000000000000008152600401611107906124d6565b60405180910390fd5b6111198161156b565b15611159576040517f08c379a000000000000000000000000000000000000000000000000000000000815260040161115090612542565b60405180910390fd5b6111676000838360016115ac565b6111708161156b565b156111b0576040517f08c379a00000000000000000000000000000000000000000000000000000000081526004016111a790612542565b60405180910390fd5b6001600360008473ffffffffffffffffffffffffffffffffffffffff1673ffffffffffffffffffffffffffffffffffffffff16815260200190815260200160002060008282540192505081905550816002600083815260200190815260200160002060006101000a81548173ffffffffffffffffffffffffffffffffffffffff021916908373ffffffffffffffffffffffffffffffffffffffff160217905550808273ffffffffffffffffffffffffffffffffffffffff16600073ffffffffffffffffffffffffffffffffffffffff167fddf252ad1be2c89b69c2b068fc378daa952ba7f163c4a11628f55a4df523b3ef60405160405180910390a46112ba6000838360016116d2565b5050565b8173ffffffffffffffffffffffffffffffffffffffff168373ffffffffffffffffffffffffffffffffffffffff160361132c576040517f08c379a0000000000000000000000000000000000000000000000000000000008152600401611323906125ae565b60405180910390fd5b80600560008573ffffffffffffffffffffffffffffffffffffffff1673ffffffffffffffffffffffffffffffffffffffff16815260200190815260200160002060008473ffffffffffffffffffffffffffffffffffffffff1673ffffffffffffffffffffffffffffffffffffffff16815260200190815260200160002060006101000a81548160ff0219169083151502179055508173ffffffffffffffffffffffffffffffffffffffff168373ffffffffffffffffffffffffffffffffffffffff167f17307eab39ab6107e8899845ad3d59bd9653f200f220920489ca2b5937696c318360405161141d9190611a89565b60405180910390a3505050565b611435848484610c1d565b611441848484846116d8565b611480576040517f08c379a000000000000000000000000000000000000000000000000000000000815260040161147790612640565b60405180910390fd5b50505050565b606060405180602001604052806000815250905090565b6060600060016114ac8461185f565b01905060008167ffffffffffffffff8111156114cb576114ca611da1565b5b6040519080825280601f01601f1916602001820160405280156114fd5781602001600182028036833780820191505090505b509050600082602001820190505b600115611560578080600190039150507f3031323334353637383961626364656600000000000000000000000000000000600a86061a8153600a858161155457611553612660565b5b0494506000850361150b575b819350505050919050565b60008073ffffffffffffffffffffffffffffffffffffffff1661158d83611064565b73ffffffffffffffffffffffffffffffffffffffff1614159050919050565b60018111156116cc57600073ffffffffffffffffffffffffffffffffffffffff168473ffffffffffffffffffffffffffffffffffffffff16146116405780600360008673ffffffffffffffffffffffffffffffffffffffff1673ffffffffffffffffffffffffffffffffffffffff1681526020019081526020016000206000828254611638919061268f565b925050819055505b600073ffffffffffffffffffffffffffffffffffffffff168373ffffffffffffffffffffffffffffffffffffffff16146116cb5780600360008573ffffffffffffffffffffffffffffffffffffffff1673ffffffffffffffffffffffffffffffffffffffff16815260200190815260200160002060008282546116c39190612240565b925050819055505b5b50505050565b50505050565b60006116f98473ffffffffffffffffffffffffffffffffffffffff166119b2565b15611852578373ffffffffffffffffffffffffffffffffffffffff1663150b7a02611722610ac7565b8786866040518563ffffffff1660e01b81526004016117449493929190612718565b6020604051808303816000875af192505050801561178057506040513d601f19601f8201168201806040525081019061177d9190612779565b60015b611802573d80600081146117b0576040519150601f19603f3d011682016040523d82523d6000602084013e6117b5565b606091505b5060008151036117fa576040517f08c379a00000000000000000000000000000000000000000000000000000000081526004016117f190612640565b60405180910390fd5b805181602001fd5b63150b7a0260e01b7bffffffffffffffffffffffffffffffffffffffffffffffffffffffff1916817bffffffffffffffffffffffffffffffffffffffffffffffffffffffff191614915050611857565b600190505b949350505050565b600080600090507a184f03e93ff9f4daa797ed6e38ed64bf6a1f01000000000000000083106118bd577a184f03e93ff9f4daa797ed6e38ed64bf6a1f01000000000000000083816118b3576118b2612660565b5b0492506040810190505b6d04ee2d6d415b85acef810000000083106118fa576d04ee2d6d415b85acef810000000083816118f0576118ef612660565b5b0492506020810190505b662386f26fc10000831061192957662386f26fc10000838161191f5761191e612660565b5b0492506010810190505b6305f5e1008310611952576305f5e100838161194857611947612660565b5b0492506008810190505b612710831061197757612710838161196d5761196c612660565b5b0492506004810190505b6064831061199a57606483816119905761198f612660565b5b0492506002810190505b600a83106119a9576001810190505b80915050919050565b6000808273ffffffffffffffffffffffffffffffffffffffff163b119050919050565b6000604051905090565b600080fd5b600080fd5b60007fffffffff0000000000000000000000000000000000000000000000000000000082169050919050565b611a1e816119e9565b8114611a2957600080fd5b50565b600081359050611a3b81611a15565b92915050565b600060208284031215611a5757611a566119df565b5b6000611a6584828501611a2c565b91505092915050565b60008115159050919050565b611a8381611a6e565b82525050565b6000602082019050611a9e6000830184611a7a565b92915050565b6000819050919050565b611ab781611aa4565b82525050565b6000602082019050611ad26000830184611aae565b92915050565b600081519050919050565b600082825260208201905092915050565b60005b83811015611b12578082015181840152602081019050611af7565b60008484015250505050565b6000601f19601f8301169050919050565b6000611b3a82611ad8565b611b448185611ae3565b9350611b54818560208601611af4565b611b5d81611b1e565b840191505092915050565b60006020820190508181036000830152611b828184611b2f565b905092915050565b611b9381611aa4565b8114611b9e57600080fd5b50565b600081359050611bb081611b8a565b92915050565b600060208284031215611bcc57611bcb6119df565b5b6000611bda84828501611ba1565b91505092915050565b600073ffffffffffffffffffffffffffffffffffffffff82169050919050565b6000611c0e82611be3565b9050919050565b611c1e81611c03565b82525050565b6000602082019050611c396000830184611c15565b92915050565b611c4881611c03565b8114611c5357600080fd5b50565b600081359050611c6581611c3f565b92915050565b60008060408385031215611c8257611c816119df565b5b6000611c9085828601611c56565b9250506020611ca185828601611ba1565b9150509250929050565b600080600060608486031215611cc457611cc36119df565b5b6000611cd286828701611c56565b9350506020611ce386828701611c56565b9250506040611cf486828701611ba1565b9150509250925092565b600060208284031215611d1457611d136119df565b5b6000611d2284828501611c56565b91505092915050565b611d3481611a6e565b8114611d3f57600080fd5b50565b600081359050611d5181611d2b565b92915050565b60008060408385031215611d6e57611d6d6119df565b5b6000611d7c85828601611c56565b9250506020611d8d85828601611d42565b9150509250929050565b600080fd5b600080fd5b7f4e487b7100000000000000000000000000000000000000000000000000000000600052604160045260246000fd5b611dd982611b1e565b810181811067ffffffffffffffff82111715611df857611df7611da1565b5b80604052505050565b6000611e0b6119d5565b9050611e178282611dd0565b919050565b600067ffffffffffffffff821115611e3757611e36611da1565b5b611e4082611b1e565b9050602081019050919050565b82818337600083830152505050565b6000611e6f611e6a84611e1c565b611e01565b905082815260208101848484011115611e8b57611e8a611d9c565b5b611e96848285611e4d565b509392505050565b600082601f830112611eb357611eb2611d97565b5b8135611ec3848260208601611e5c565b91505092915050565b60008060008060808587031215611ee657611ee56119df565b5b6000611ef487828801611c56565b9450506020611f0587828801611c56565b9350506040611f1687828801611ba1565b925050606085013567ffffffffffffffff811115611f3757611f366119e4565b5b611f4387828801611e9e565b91505092959194509250565b60008060408385031215611f6657611f656119df565b5b6000611f7485828601611c56565b9250506020611f8585828601611c56565b9150509250929050565b7f4e487b7100000000000000000000000000000000000000000000000000000000600052602260045260246000fd5b60006002820490506001821680611fd657607f821691505b602082108103611fe957611fe8611f8f565b5b50919050565b7f4552433732313a20617070726f76616c20746f2063757272656e74206f776e6560008201527f7200000000000000000000000000000000000000000000000000000000000000602082015250565b600061204b602183611ae3565b915061205682611fef565b604082019050919050565b6000602082019050818103600083015261207a8161203e565b9050919050565b7f4552433732313a20617070726f76652063616c6c6572206973206e6f7420746f60008201527f6b656e206f776e6572206f7220617070726f76656420666f7220616c6c000000602082015250565b60006120dd603d83611ae3565b91506120e882612081565b604082019050919050565b6000602082019050818103600083015261210c816120d0565b9050919050565b7f4552433732313a2063616c6c6572206973206e6f7420746f6b656e206f776e6560008201527f72206f7220617070726f76656400000000000000000000000000000000000000602082015250565b600061216f602d83611ae3565b915061217a82612113565b604082019050919050565b6000602082019050818103600083015261219e81612162565b9050919050565b7f4552433732313a20696e76616c696420746f6b656e2049440000000000000000600082015250565b60006121db601883611ae3565b91506121e6826121a5565b602082019050919050565b6000602082019050818103600083015261220a816121ce565b9050919050565b7f4e487b7100000000000000000000000000000000000000000000000000000000600052601160045260246000fd5b600061224b82611aa4565b915061225683611aa4565b925082820190508082111561226e5761226d612211565b5b92915050565b7f4552433732313a2061646472657373207a65726f206973206e6f74206120766160008201527f6c6964206f776e65720000000000000000000000000000000000000000000000602082015250565b60006122d0602983611ae3565b91506122db82612274565b604082019050919050565b600060208201905081810360008301526122ff816122c3565b9050919050565b600081905092915050565b600061231c82611ad8565b6123268185612306565b9350612336818560208601611af4565b80840191505092915050565b600061234e8285612311565b915061235a8284612311565b91508190509392505050565b7f4552433732313a207472616e736665722066726f6d20696e636f72726563742060008201527f6f776e6572000000000000000000000000000000000000000000000000000000602082015250565b60006123c2602583611ae3565b91506123cd82612366565b604082019050919050565b600060208201905081810360008301526123f1816123b5565b9050919050565b7f4552433732313a207472616e7366657220746f20746865207a65726f2061646460008201527f7265737300000000000000000000000000000000000000000000000000000000602082015250565b6000612454602483611ae3565b915061245f826123f8565b604082019050919050565b6000602082019050818103600083015261248381612447565b9050919050565b7f4552433732313a206d696e7420746f20746865207a65726f2061646472657373600082015250565b60006124c0602083611ae3565b91506124cb8261248a565b602082019050919050565b600060208201905081810360008301526124ef816124b3565b9050919050565b7f4552433732313a20746f6b656e20616c7265616479206d696e74656400000000600082015250565b600061252c601c83611ae3565b9150612537826124f6565b602082019050919050565b6000602082019050818103600083015261255b8161251f565b9050919050565b7f4552433732313a20617070726f766520746f2063616c6c657200000000000000600082015250565b6000612598601983611ae3565b91506125a382612562565b602082019050919050565b600060208201905081810360008301526125c78161258b565b9050919050565b7f4552433732313a207472616e7366657220746f206e6f6e20455243373231526560008201527f63656976657220696d706c656d656e7465720000000000000000000000000000602082015250565b600061262a603283611ae3565b9150612635826125ce565b604082019050919050565b600060208201905081810360008301526126598161261d565b9050919050565b7f4e487b7100000000000000000000000000000000000000000000000000000000600052601260045260246000fd5b600061269a82611aa4565b91506126a583611aa4565b92508282039050818111156126bd576126bc612211565b5b92915050565b600081519050919050565b600082825260208201905092915050565b60006126ea826126c3565b6126f481856126ce565b9350612704818560208601611af4565b61270d81611b1e565b840191505092915050565b600060808201905061272d6000830187611c15565b61273a6020830186611c15565b6127476040830185611aae565b818103606083015261275981846126df565b905095945050505050565b60008151905061277381611a15565b92915050565b60006020828403121561278f5761278e6119df565b5b600061279d84828501612764565b9150509291505056fea26469706673582212204337d6ec758d3880875b81405fdd9f12f2ee440d89ae7df22587b9474ee2bd2764736f6c63430008110033",
  "linkReferences": {},
  "deployedLinkReferences": {}
}