{
  "_format": "hh-sol-artifact-1",
  "contractName": "BloodOfMolochClaimNFT",
  "sourceName": "contracts/BloodOfMolochClaimNFT.sol",
  "abi": [
    {
      "inputs": [
        {
          "internalType": "address payable",
          "name": "minter",
          "type": "address"
        },
        {
          "internalType": "address",
          "name": "pbtAddress",
          "type": "address"
        }
      ],
      "stateMutability": "nonpayable",
      "type": "constructor"
    },
    {
      "anonymous": false,
      "inputs": [
        {
          "indexed": true,
          "internalType": "address",
          "name": "owner",
          "type": "address"
        },
        {
          "indexed": true,
          "internalType": "address",
          "name": "approved",
          "type": "address"
        },
        {
          "indexed": true,
          "internalType": "uint256",
          "name": "tokenId",
          "type": "uint256"
        }
      ],
      "name": "Approval",
      "type": "event"
    },
    {
      "anonymous": false,
      "inputs": [
        {
          "indexed": true,
          "internalType": "address",
          "name": "owner",
          "type": "address"
        },
        {
          "indexed": true,
          "internalType": "address",
          "name": "operator",
          "type": "address"
        },
        {
          "indexed": false,
          "internalType": "bool",
          "name": "approved",
          "type": "bool"
        }
      ],
      "name": "ApprovalForAll",
      "type": "event"
    },
    {
      "anonymous": false,
      "inputs": [
        {
          "indexed": false,
          "internalType": "uint256",
          "name": "tokenId",
          "type": "uint256"
        }
      ],
      "name": "Minted",
      "type": "event"
    },
    {
      "anonymous": false,
      "inputs": [
        {
          "indexed": false,
          "internalType": "uint256",
          "name": "tokenId",
          "type": "uint256"
        }
      ],
      "name": "MintedUsingSignature",
      "type": "event"
    },
    {
      "anonymous": false,
      "inputs": [
        {
          "indexed": true,
          "internalType": "bytes32",
          "name": "role",
          "type": "bytes32"
        },
        {
          "indexed": true,
          "internalType": "bytes32",
          "name": "previousAdminRole",
          "type": "bytes32"
        },
        {
          "indexed": true,
          "internalType": "bytes32",
          "name": "newAdminRole",
          "type": "bytes32"
        }
      ],
      "name": "RoleAdminChanged",
      "type": "event"
    },
    {
      "anonymous": false,
      "inputs": [
        {
          "indexed": true,
          "internalType": "bytes32",
          "name": "role",
          "type": "bytes32"
        },
        {
          "indexed": true,
          "internalType": "address",
          "name": "account",
          "type": "address"
        },
        {
          "indexed": true,
          "internalType": "address",
          "name": "sender",
          "type": "address"
        }
      ],
      "name": "RoleGranted",
      "type": "event"
    },
    {
      "anonymous": false,
      "inputs": [
        {
          "indexed": true,
          "internalType": "bytes32",
          "name": "role",
          "type": "bytes32"
        },
        {
          "indexed": true,
          "internalType": "address",
          "name": "account",
          "type": "address"
        },
        {
          "indexed": true,
          "internalType": "address",
          "name": "sender",
          "type": "address"
        }
      ],
      "name": "RoleRevoked",
      "type": "event"
    },
    {
      "anonymous": false,
      "inputs": [
        {
          "indexed": true,
          "internalType": "address",
          "name": "from",
          "type": "address"
        },
        {
          "indexed": true,
          "internalType": "address",
          "name": "to",
          "type": "address"
        },
        {
          "indexed": true,
          "internalType": "uint256",
          "name": "tokenId",
          "type": "uint256"
        }
      ],
      "name": "Transfer",
      "type": "event"
    },
    {
      "inputs": [],
      "name": "DEFAULT_ADMIN_ROLE",
      "outputs": [
        {
          "internalType": "bytes32",
          "name": "",
          "type": "bytes32"
        }
      ],
      "stateMutability": "view",
      "type": "function"
    },
    {
      "inputs": [],
      "name": "MAX_SUPPLY",
      "outputs": [
        {
          "internalType": "uint256",
          "name": "",
          "type": "uint256"
        }
      ],
      "stateMutability": "view",
      "type": "function"
    },
    {
      "inputs": [],
      "name": "MINTER_ROLE",
      "outputs": [
        {
          "internalType": "bytes32",
          "name": "",
          "type": "bytes32"
        }
      ],
      "stateMutability": "view",
      "type": "function"
    },
    {
      "inputs": [],
      "name": "MIN_PRICE",
      "outputs": [
        {
          "internalType": "uint256",
          "name": "",
          "type": "uint256"
        }
      ],
      "stateMutability": "view",
      "type": "function"
    },
    {
      "inputs": [
        {
          "internalType": "address",
          "name": "to",
          "type": "address"
        },
        {
          "internalType": "uint256",
          "name": "tokenId",
          "type": "uint256"
        }
      ],
      "name": "approve",
      "outputs": [],
      "stateMutability": "nonpayable",
      "type": "function"
    },
    {
      "inputs": [],
      "name": "availableToWithdraw",
      "outputs": [
        {
          "internalType": "uint256",
          "name": "",
          "type": "uint256"
        }
      ],
      "stateMutability": "view",
      "type": "function"
    },
    {
      "inputs": [
        {
          "internalType": "address",
          "name": "owner",
          "type": "address"
        }
      ],
      "name": "balanceOf",
      "outputs": [
        {
          "internalType": "uint256",
          "name": "",
          "type": "uint256"
        }
      ],
      "stateMutability": "view",
      "type": "function"
    },
    {
      "inputs": [
        {
          "internalType": "uint256",
          "name": "_quantity",
          "type": "uint256"
        }
      ],
      "name": "batchMint",
      "outputs": [],
      "stateMutability": "nonpayable",
      "type": "function"
    },
    {
      "inputs": [
        {
          "internalType": "uint256",
          "name": "_quantity",
          "type": "uint256"
        }
      ],
      "name": "batchMintClaimTokens",
      "outputs": [],
      "stateMutability": "payable",
      "type": "function"
    },
    {
      "inputs": [
        {
          "internalType": "uint256",
          "name": "tokenId",
          "type": "uint256"
        }
      ],
      "name": "burn",
      "outputs": [],
      "stateMutability": "nonpayable",
      "type": "function"
    },
    {
      "inputs": [
        {
          "internalType": "uint256",
          "name": "tokenId",
          "type": "uint256"
        }
      ],
      "name": "getApproved",
      "outputs": [
        {
          "internalType": "address",
          "name": "",
          "type": "address"
        }
      ],
      "stateMutability": "view",
      "type": "function"
    },
    {
      "inputs": [
        {
          "internalType": "bytes32",
          "name": "role",
          "type": "bytes32"
        }
      ],
      "name": "getRoleAdmin",
      "outputs": [
        {
          "internalType": "bytes32",
          "name": "",
          "type": "bytes32"
        }
      ],
      "stateMutability": "view",
      "type": "function"
    },
    {
      "inputs": [
        {
          "internalType": "bytes32",
          "name": "role",
          "type": "bytes32"
        },
        {
          "internalType": "address",
          "name": "account",
          "type": "address"
        }
      ],
      "name": "grantRole",
      "outputs": [],
      "stateMutability": "nonpayable",
      "type": "function"
    },
    {
      "inputs": [
        {
          "internalType": "bytes32",
          "name": "role",
          "type": "bytes32"
        },
        {
          "internalType": "address",
          "name": "account",
          "type": "address"
        }
      ],
      "name": "hasRole",
      "outputs": [
        {
          "internalType": "bool",
          "name": "",
          "type": "bool"
        }
      ],
      "stateMutability": "view",
      "type": "function"
    },
    {
      "inputs": [
        {
          "internalType": "address",
          "name": "owner",
          "type": "address"
        },
        {
          "internalType": "address",
          "name": "operator",
          "type": "address"
        }
      ],
      "name": "isApprovedForAll",
      "outputs": [
        {
          "internalType": "bool",
          "name": "",
          "type": "bool"
        }
      ],
      "stateMutability": "view",
      "type": "function"
    },
    {
      "inputs": [],
      "name": "mint",
      "outputs": [],
      "stateMutability": "nonpayable",
      "type": "function"
    },
    {
      "inputs": [],
      "name": "mintClaimToken",
      "outputs": [],
      "stateMutability": "payable",
      "type": "function"
    },
    {
      "inputs": [],
      "name": "name",
      "outputs": [
        {
          "internalType": "string",
          "name": "",
          "type": "string"
        }
      ],
      "stateMutability": "view",
      "type": "function"
    },
    {
      "inputs": [
        {
          "internalType": "uint256",
          "name": "tokenId",
          "type": "uint256"
        }
      ],
      "name": "ownerOf",
      "outputs": [
        {
          "internalType": "address",
          "name": "",
          "type": "address"
        }
      ],
      "stateMutability": "view",
      "type": "function"
    },
    {
      "inputs": [
        {
          "internalType": "bytes32",
          "name": "role",
          "type": "bytes32"
        },
        {
          "internalType": "address",
          "name": "account",
          "type": "address"
        }
      ],
      "name": "renounceRole",
      "outputs": [],
      "stateMutability": "nonpayable",
      "type": "function"
    },
    {
      "inputs": [
        {
          "internalType": "bytes32",
          "name": "role",
          "type": "bytes32"
        },
        {
          "internalType": "address",
          "name": "account",
          "type": "address"
        }
      ],
      "name": "revokeRole",
      "outputs": [],
      "stateMutability": "nonpayable",
      "type": "function"
    },
    {
      "inputs": [
        {
          "internalType": "address",
          "name": "from",
          "type": "address"
        },
        {
          "internalType": "address",
          "name": "to",
          "type": "address"
        },
        {
          "internalType": "uint256",
          "name": "tokenId",
          "type": "uint256"
        }
      ],
      "name": "safeTransferFrom",
      "outputs": [],
      "stateMutability": "nonpayable",
      "type": "function"
    },
    {
      "inputs": [
        {
          "internalType": "address",
          "name": "from",
          "type": "address"
        },
        {
          "internalType": "address",
          "name": "to",
          "type": "address"
        },
        {
          "internalType": "uint256",
          "name": "tokenId",
          "type": "uint256"
        },
        {
          "internalType": "bytes",
          "name": "data",
          "type": "bytes"
        }
      ],
      "name": "safeTransferFrom",
      "outputs": [],
      "stateMutability": "nonpayable",
      "type": "function"
    },
    {
      "inputs": [
        {
          "internalType": "address",
          "name": "operator",
          "type": "address"
        },
        {
          "internalType": "bool",
          "name": "approved",
          "type": "bool"
        }
      ],
      "name": "setApprovalForAll",
      "outputs": [],
      "stateMutability": "nonpayable",
      "type": "function"
    },
    {
      "inputs": [],
      "name": "supply",
      "outputs": [
        {
          "internalType": "uint256",
          "name": "",
          "type": "uint256"
        }
      ],
      "stateMutability": "view",
      "type": "function"
    },
    {
      "inputs": [
        {
          "internalType": "bytes4",
          "name": "interfaceId",
          "type": "bytes4"
        }
      ],
      "name": "supportsInterface",
      "outputs": [
        {
          "internalType": "bool",
          "name": "",
          "type": "bool"
        }
      ],
      "stateMutability": "view",
      "type": "function"
    },
    {
      "inputs": [],
      "name": "symbol",
      "outputs": [
        {
          "internalType": "string",
          "name": "",
          "type": "string"
        }
      ],
      "stateMutability": "view",
      "type": "function"
    },
    {
      "inputs": [
        {
          "internalType": "uint256",
          "name": "tokenId",
          "type": "uint256"
        }
      ],
      "name": "tokenURI",
      "outputs": [
        {
          "internalType": "string",
          "name": "",
          "type": "string"
        }
      ],
      "stateMutability": "view",
      "type": "function"
    },
    {
      "inputs": [
        {
          "internalType": "address",
          "name": "from",
          "type": "address"
        },
        {
          "internalType": "address",
          "name": "to",
          "type": "address"
        },
        {
          "internalType": "uint256",
          "name": "tokenId",
          "type": "uint256"
        }
      ],
      "name": "transferFrom",
      "outputs": [],
      "stateMutability": "nonpayable",
      "type": "function"
    },
    {
      "inputs": [],
      "name": "withdraw",
      "outputs": [],
      "stateMutability": "nonpayable",
      "type": "function"
    },
    {
      "inputs": [
        {
          "internalType": "address",
          "name": "_token",
          "type": "address"
        }
      ],
      "name": "withdrawTokens",
      "outputs": [],
      "stateMutability": "nonpayable",
      "type": "function"
    },
    {
      "stateMutability": "payable",
      "type": "receive"
    }
  ],
  "bytecode": "0x60806040523480156200001157600080fd5b506040516200472d3803806200472d8339818101604052810190620000379190620003e0565b6040518060400160405280601581526020017f426c6f6f64206f66204d6f6c6f636820436c61696d00000000000000000000008152506040518060400160405280600481526020017f426f4d43000000000000000000000000000000000000000000000000000000008152508160009081620000b49190620006a1565b508060019081620000c69190620006a1565b505050600073ffffffffffffffffffffffffffffffffffffffff168173ffffffffffffffffffffffffffffffffffffffff16036200013b576040517f08c379a000000000000000000000000000000000000000000000000000000000815260040162000132906200080f565b60405180910390fd5b6200016d7f9f2df0fed2c77648de5860a4cc508cd0818c85b8b8a1ab4ceeef8d981c8956a683620001b660201b60201c565b80600760006101000a81548173ffffffffffffffffffffffffffffffffffffffff021916908373ffffffffffffffffffffffffffffffffffffffff160217905550505062000831565b620001c88282620001cc60201b60201c565b5050565b620001de8282620002be60201b60201c565b620002ba5760016006600084815260200190815260200160002060000160008373ffffffffffffffffffffffffffffffffffffffff1673ffffffffffffffffffffffffffffffffffffffff16815260200190815260200160002060006101000a81548160ff0219169083151502179055506200025f6200032960201b60201c565b73ffffffffffffffffffffffffffffffffffffffff168173ffffffffffffffffffffffffffffffffffffffff16837f2f8788117e7eff1d82e926ec794901d17c78024a50270940304540a733656f0d60405160405180910390a45b5050565b60006006600084815260200190815260200160002060000160008373ffffffffffffffffffffffffffffffffffffffff1673ffffffffffffffffffffffffffffffffffffffff16815260200190815260200160002060009054906101000a900460ff16905092915050565b600033905090565b600080fd5b600073ffffffffffffffffffffffffffffffffffffffff82169050919050565b6000620003638262000336565b9050919050565b620003758162000356565b81146200038157600080fd5b50565b60008151905062000395816200036a565b92915050565b6000620003a88262000336565b9050919050565b620003ba816200039b565b8114620003c657600080fd5b50565b600081519050620003da81620003af565b92915050565b60008060408385031215620003fa57620003f962000331565b5b60006200040a8582860162000384565b92505060206200041d85828601620003c9565b9150509250929050565b600081519050919050565b7f4e487b7100000000000000000000000000000000000000000000000000000000600052604160045260246000fd5b7f4e487b7100000000000000000000000000000000000000000000000000000000600052602260045260246000fd5b60006002820490506001821680620004a957607f821691505b602082108103620004bf57620004be62000461565b5b50919050565b60008190508160005260206000209050919050565b60006020601f8301049050919050565b600082821b905092915050565b600060088302620005297fffffffffffffffffffffffffffffffffffffffffffffffffffffffffffffffff82620004ea565b620005358683620004ea565b95508019841693508086168417925050509392505050565b6000819050919050565b6000819050919050565b6000620005826200057c62000576846200054d565b62000557565b6200054d565b9050919050565b6000819050919050565b6200059e8362000561565b620005b6620005ad8262000589565b848454620004f7565b825550505050565b600090565b620005cd620005be565b620005da81848462000593565b505050565b5b818110156200060257620005f6600082620005c3565b600181019050620005e0565b5050565b601f82111562000651576200061b81620004c5565b6200062684620004da565b8101602085101562000636578190505b6200064e6200064585620004da565b830182620005df565b50505b505050565b600082821c905092915050565b6000620006766000198460080262000656565b1980831691505092915050565b600062000691838362000663565b9150826002028217905092915050565b620006ac8262000427565b67ffffffffffffffff811115620006c857620006c762000432565b5b620006d4825462000490565b620006e182828562000606565b600060209050601f83116001811462000719576000841562000704578287015190505b62000710858262000683565b86555062000780565b601f1984166200072986620004c5565b60005b8281101562000753578489015182556001820191506020850194506020810190506200072c565b868310156200077357848901516200076f601f89168262000663565b8355505b6001600288020188555050505b505050505050565b600082825260208201905092915050565b7f426c6f6f644f664d6f6c6f6368436c61696d4e46543a206e756c6c206164647260008201527f6573730000000000000000000000000000000000000000000000000000000000602082015250565b6000620007f760238362000788565b9150620008048262000799565b604082019050919050565b600060208201905081810360008301526200082a81620007e8565b9050919050565b613eec80620008416000396000f3fe6080604052600436106101dc5760003560e01c806349df728c11610102578063ad9f20a611610095578063d539139311610064578063d539139314610683578063d547741f146106ae578063e322ad2b146106d7578063e985e9c514610702576101e3565b8063ad9f20a6146105e8578063b88d4fde14610613578063c87b56dd1461063c578063ca86319914610679576101e3565b806391d14854116100d157806391d148541461052c57806395d89b4114610569578063a217fddf14610594578063a22cb465146105bf576101e3565b806349df728c146104605780636352211e1461048957806370a08231146104c65780638467be0d14610503576101e3565b806323b872dd1161017a57806336568abe1161014957806336568abe146103ce5780633ccfd60b146103f757806342842e0e1461040e57806342966c6814610437576101e3565b806323b872dd14610314578063248a9ca31461033d5780632f2ff15d1461037a57806332cb6b0c146103a3576101e3565b8063081812fc116101b6578063081812fc1461027b578063095ea7b3146102b85780631249c58b146102e15780631dca75de146102f8576101e3565b806301ffc9a7146101e8578063047fc9aa1461022557806306fdde0314610250576101e3565b366101e357005b600080fd5b3480156101f457600080fd5b5061020f600480360381019061020a9190612a9a565b61073f565b60405161021c9190612ae2565b60405180910390f35b34801561023157600080fd5b5061023a610761565b6040516102479190612b16565b60405180910390f35b34801561025c57600080fd5b50610265610767565b6040516102729190612bc1565b60405180910390f35b34801561028757600080fd5b506102a2600480360381019061029d9190612c0f565b6107f9565b6040516102af9190612c7d565b60405180910390f35b3480156102c457600080fd5b506102df60048036038101906102da9190612cc4565b61083f565b005b3480156102ed57600080fd5b506102f6610956565b005b610312600480360381019061030d9190612c0f565b61098b565b005b34801561032057600080fd5b5061033b60048036038101906103369190612d04565b610a53565b005b34801561034957600080fd5b50610364600480360381019061035f9190612d8d565b610ab3565b6040516103719190612dc9565b60405180910390f35b34801561038657600080fd5b506103a1600480360381019061039c9190612de4565b610ad3565b005b3480156103af57600080fd5b506103b8610af4565b6040516103c59190612b16565b60405180910390f35b3480156103da57600080fd5b506103f560048036038101906103f09190612de4565b610afa565b005b34801561040357600080fd5b5061040c610b7d565b005b34801561041a57600080fd5b5061043560048036038101906104309190612d04565b610c3b565b005b34801561044357600080fd5b5061045e60048036038101906104599190612c0f565b610c5b565b005b34801561046c57600080fd5b5061048760048036038101906104829190612e24565b610cb7565b005b34801561049557600080fd5b506104b060048036038101906104ab9190612c0f565b610e2e565b6040516104bd9190612c7d565b60405180910390f35b3480156104d257600080fd5b506104ed60048036038101906104e89190612e24565b610eb4565b6040516104fa9190612b16565b60405180910390f35b34801561050f57600080fd5b5061052a60048036038101906105259190612c0f565b610f6b565b005b34801561053857600080fd5b50610553600480360381019061054e9190612de4565b611003565b6040516105609190612ae2565b60405180910390f35b34801561057557600080fd5b5061057e61106e565b60405161058b9190612bc1565b60405180910390f35b3480156105a057600080fd5b506105a9611100565b6040516105b69190612dc9565b60405180910390f35b3480156105cb57600080fd5b506105e660048036038101906105e19190612e7d565b611107565b005b3480156105f457600080fd5b506105fd61111d565b60405161060a9190612b16565b60405180910390f35b34801561061f57600080fd5b5061063a60048036038101906106359190612ff2565b611128565b005b34801561064857600080fd5b50610663600480360381019061065e9190612c0f565b61118a565b6040516106709190612bc1565b60405180910390f35b6106816111f2565b005b34801561068f57600080fd5b50610698611246565b6040516106a59190612dc9565b60405180910390f35b3480156106ba57600080fd5b506106d560048036038101906106d09190612de4565b61126a565b005b3480156106e357600080fd5b506106ec61128b565b6040516106f99190612b16565b60405180910390f35b34801561070e57600080fd5b5061072960048036038101906107249190613075565b611293565b6040516107369190612ae2565b60405180910390f35b600061074a82611386565b8061075a575061075982611468565b5b9050919050565b60085481565b606060008054610776906130e4565b80601f01602080910402602001604051908101604052809291908181526020018280546107a2906130e4565b80156107ef5780601f106107c4576101008083540402835291602001916107ef565b820191906000526020600020905b8154815290600101906020018083116107d257829003601f168201915b5050505050905090565b6000610804826114e2565b6004600083815260200190815260200160002060009054906101000a900473ffffffffffffffffffffffffffffffffffffffff169050919050565b600061084a82610e2e565b90508073ffffffffffffffffffffffffffffffffffffffff168373ffffffffffffffffffffffffffffffffffffffff16036108ba576040517f08c379a00000000000000000000000000000000000000000000000000000000081526004016108b190613187565b60405180910390fd5b8073ffffffffffffffffffffffffffffffffffffffff166108d961152d565b73ffffffffffffffffffffffffffffffffffffffff16148061090857506109078161090261152d565b611293565b5b610947576040517f08c379a000000000000000000000000000000000000000000000000000000000815260040161093e90613219565b60405180910390fd5b6109518383611535565b505050565b7f9f2df0fed2c77648de5860a4cc508cd0818c85b8b8a1ab4ceeef8d981c8956a6610980816115ee565b610988611602565b50565b600081116109ce576040517f08c379a00000000000000000000000000000000000000000000000000000000081526004016109c5906132ab565b60405180910390fd5b60008166b1a2bc2ec500006109e391906132fa565b905080341015610a28576040517f08c379a0000000000000000000000000000000000000000000000000000000008152600401610a1f906133ae565b60405180910390fd5b60005b82811015610a4e57610a3b611602565b8080610a46906133ce565b915050610a2b565b505050565b610a64610a5e61152d565b826116bd565b610aa3576040517f08c379a0000000000000000000000000000000000000000000000000000000008152600401610a9a90613488565b60405180910390fd5b610aae838383611752565b505050565b600060066000838152602001908152602001600020600101549050919050565b610adc82610ab3565b610ae5816115ee565b610aef8383611a4b565b505050565b61015e81565b610b0261152d565b73ffffffffffffffffffffffffffffffffffffffff168173ffffffffffffffffffffffffffffffffffffffff1614610b6f576040517f08c379a0000000000000000000000000000000000000000000000000000000008152600401610b669061351a565b60405180910390fd5b610b798282611b2c565b5050565b610ba77f9f2df0fed2c77648de5860a4cc508cd0818c85b8b8a1ab4ceeef8d981c8956a633611003565b610be6576040517f08c379a0000000000000000000000000000000000000000000000000000000008152600401610bdd906135ac565b60405180910390fd5b600033905060004790508173ffffffffffffffffffffffffffffffffffffffff166108fc829081150290604051600060405180830381858888f19350505050158015610c36573d6000803e3d6000fd5b505050565b610c5683838360405180602001604052806000815250611128565b505050565b610c6c610c6661152d565b826116bd565b610cab576040517f08c379a0000000000000000000000000000000000000000000000000000000008152600401610ca290613488565b60405180910390fd5b610cb481611c0e565b50565b610ce17f9f2df0fed2c77648de5860a4cc508cd0818c85b8b8a1ab4ceeef8d981c8956a633611003565b610d20576040517f08c379a0000000000000000000000000000000000000000000000000000000008152600401610d17906135ac565b60405180910390fd5b6000610d2a61152d565b905060008273ffffffffffffffffffffffffffffffffffffffff166370a08231306040518263ffffffff1660e01b8152600401610d679190612c7d565b602060405180830381865afa158015610d84573d6000803e3d6000fd5b505050506040513d601f19601f82011682018060405250810190610da891906135e1565b90508273ffffffffffffffffffffffffffffffffffffffff1663a9059cbb83836040518363ffffffff1660e01b8152600401610de592919061360e565b6020604051808303816000875af1158015610e04573d6000803e3d6000fd5b505050506040513d601f19601f82011682018060405250810190610e28919061364c565b50505050565b600080610e3a83611d5c565b9050600073ffffffffffffffffffffffffffffffffffffffff168173ffffffffffffffffffffffffffffffffffffffff1603610eab576040517f08c379a0000000000000000000000000000000000000000000000000000000008152600401610ea2906136c5565b60405180910390fd5b80915050919050565b60008073ffffffffffffffffffffffffffffffffffffffff168273ffffffffffffffffffffffffffffffffffffffff1603610f24576040517f08c379a0000000000000000000000000000000000000000000000000000000008152600401610f1b90613757565b60405180910390fd5b600360008373ffffffffffffffffffffffffffffffffffffffff1673ffffffffffffffffffffffffffffffffffffffff168152602001908152602001600020549050919050565b7f9f2df0fed2c77648de5860a4cc508cd0818c85b8b8a1ab4ceeef8d981c8956a6610f95816115ee565b60008211610fd8576040517f08c379a0000000000000000000000000000000000000000000000000000000008152600401610fcf906132ab565b60405180910390fd5b60005b82811015610ffe57610feb611602565b8080610ff6906133ce565b915050610fdb565b505050565b60006006600084815260200190815260200160002060000160008373ffffffffffffffffffffffffffffffffffffffff1673ffffffffffffffffffffffffffffffffffffffff16815260200190815260200160002060009054906101000a900460ff16905092915050565b60606001805461107d906130e4565b80601f01602080910402602001604051908101604052809291908181526020018280546110a9906130e4565b80156110f65780601f106110cb576101008083540402835291602001916110f6565b820191906000526020600020905b8154815290600101906020018083116110d957829003601f168201915b5050505050905090565b6000801b81565b61111961111261152d565b8383611d99565b5050565b66b1a2bc2ec5000081565b61113961113361152d565b836116bd565b611178576040517f08c379a000000000000000000000000000000000000000000000000000000000815260040161116f90613488565b60405180910390fd5b61118484848484611f05565b50505050565b6060611195826114e2565b600061119f611f61565b905060008151116111bf57604051806020016040528060008152506111ea565b806111c984611f81565b6040516020016111da9291906137b3565b6040516020818303038152906040525b915050919050565b66b1a2bc2ec5000034101561123c576040517f08c379a0000000000000000000000000000000000000000000000000000000008152600401611233906133ae565b60405180910390fd5b611244611602565b565b7f9f2df0fed2c77648de5860a4cc508cd0818c85b8b8a1ab4ceeef8d981c8956a681565b61127382610ab3565b61127c816115ee565b6112868383611b2c565b505050565b600047905090565b6000600760009054906101000a900473ffffffffffffffffffffffffffffffffffffffff1673ffffffffffffffffffffffffffffffffffffffff168273ffffffffffffffffffffffffffffffffffffffff16036112f35760019050611380565b600560008473ffffffffffffffffffffffffffffffffffffffff1673ffffffffffffffffffffffffffffffffffffffff16815260200190815260200160002060008373ffffffffffffffffffffffffffffffffffffffff1673ffffffffffffffffffffffffffffffffffffffff16815260200190815260200160002060009054906101000a900460ff1690505b92915050565b60007f80ac58cd000000000000000000000000000000000000000000000000000000007bffffffffffffffffffffffffffffffffffffffffffffffffffffffff1916827bffffffffffffffffffffffffffffffffffffffffffffffffffffffff1916148061145157507f5b5e139f000000000000000000000000000000000000000000000000000000007bffffffffffffffffffffffffffffffffffffffffffffffffffffffff1916827bffffffffffffffffffffffffffffffffffffffffffffffffffffffff1916145b8061146157506114608261204f565b5b9050919050565b60007f7965db0b000000000000000000000000000000000000000000000000000000007bffffffffffffffffffffffffffffffffffffffffffffffffffffffff1916827bffffffffffffffffffffffffffffffffffffffffffffffffffffffff191614806114db57506114da82611386565b5b9050919050565b6114eb816120b9565b61152a576040517f08c379a0000000000000000000000000000000000000000000000000000000008152600401611521906136c5565b60405180910390fd5b50565b600033905090565b816004600083815260200190815260200160002060006101000a81548173ffffffffffffffffffffffffffffffffffffffff021916908373ffffffffffffffffffffffffffffffffffffffff160217905550808273ffffffffffffffffffffffffffffffffffffffff166115a883610e2e565b73ffffffffffffffffffffffffffffffffffffffff167f8c5be1e5ebec7d5bd14f71427d1e84f3dd0314c0f7b2291e5b200ac8c7c3b92560405160405180910390a45050565b6115ff816115fa61152d565b6120fa565b50565b6000600854905061015e60018261161991906137d7565b111561165a576040517f08c379a00000000000000000000000000000000000000000000000000000000081526004016116519061387d565b60405180910390fd5b6008600081548092919061166d906133ce565b919050555061168361167d61152d565b8261217f565b7f176b02bb2d12439ff7a20b59f402cca16c76f50508b13ef3166a600eb719354a816040516116b29190612b16565b60405180910390a150565b6000806116c983610e2e565b90508073ffffffffffffffffffffffffffffffffffffffff168473ffffffffffffffffffffffffffffffffffffffff16148061170b575061170a8185611293565b5b8061174957508373ffffffffffffffffffffffffffffffffffffffff16611731846107f9565b73ffffffffffffffffffffffffffffffffffffffff16145b91505092915050565b8273ffffffffffffffffffffffffffffffffffffffff1661177282610e2e565b73ffffffffffffffffffffffffffffffffffffffff16146117c8576040517f08c379a00000000000000000000000000000000000000000000000000000000081526004016117bf9061390f565b60405180910390fd5b600073ffffffffffffffffffffffffffffffffffffffff168273ffffffffffffffffffffffffffffffffffffffff1603611837576040517f08c379a000000000000000000000000000000000000000000000000000000000815260040161182e906139a1565b60405180910390fd5b611844838383600161239c565b8273ffffffffffffffffffffffffffffffffffffffff1661186482610e2e565b73ffffffffffffffffffffffffffffffffffffffff16146118ba576040517f08c379a00000000000000000000000000000000000000000000000000000000081526004016118b19061390f565b60405180910390fd5b6004600082815260200190815260200160002060006101000a81549073ffffffffffffffffffffffffffffffffffffffff02191690556001600360008573ffffffffffffffffffffffffffffffffffffffff1673ffffffffffffffffffffffffffffffffffffffff168152602001908152602001600020600082825403925050819055506001600360008473ffffffffffffffffffffffffffffffffffffffff1673ffffffffffffffffffffffffffffffffffffffff16815260200190815260200160002060008282540192505081905550816002600083815260200190815260200160002060006101000a81548173ffffffffffffffffffffffffffffffffffffffff021916908373ffffffffffffffffffffffffffffffffffffffff160217905550808273ffffffffffffffffffffffffffffffffffffffff168473ffffffffffffffffffffffffffffffffffffffff167fddf252ad1be2c89b69c2b068fc378daa952ba7f163c4a11628f55a4df523b3ef60405160405180910390a4611a4683838360016124c2565b505050565b611a558282611003565b611b285760016006600084815260200190815260200160002060000160008373ffffffffffffffffffffffffffffffffffffffff1673ffffffffffffffffffffffffffffffffffffffff16815260200190815260200160002060006101000a81548160ff021916908315150217905550611acd61152d565b73ffffffffffffffffffffffffffffffffffffffff168173ffffffffffffffffffffffffffffffffffffffff16837f2f8788117e7eff1d82e926ec794901d17c78024a50270940304540a733656f0d60405160405180910390a45b5050565b611b368282611003565b15611c0a5760006006600084815260200190815260200160002060000160008373ffffffffffffffffffffffffffffffffffffffff1673ffffffffffffffffffffffffffffffffffffffff16815260200190815260200160002060006101000a81548160ff021916908315150217905550611baf61152d565b73ffffffffffffffffffffffffffffffffffffffff168173ffffffffffffffffffffffffffffffffffffffff16837ff6391f5c32d9c69d2a47ea670b442974b53935d1edc7fd64eb21e047a839171b60405160405180910390a45b5050565b6000611c1982610e2e565b9050611c2981600084600161239c565b611c3282610e2e565b90506004600083815260200190815260200160002060006101000a81549073ffffffffffffffffffffffffffffffffffffffff02191690556001600360008373ffffffffffffffffffffffffffffffffffffffff1673ffffffffffffffffffffffffffffffffffffffff168152602001908152602001600020600082825403925050819055506002600083815260200190815260200160002060006101000a81549073ffffffffffffffffffffffffffffffffffffffff021916905581600073ffffffffffffffffffffffffffffffffffffffff168273ffffffffffffffffffffffffffffffffffffffff167fddf252ad1be2c89b69c2b068fc378daa952ba7f163c4a11628f55a4df523b3ef60405160405180910390a4611d588160008460016124c2565b5050565b60006002600083815260200190815260200160002060009054906101000a900473ffffffffffffffffffffffffffffffffffffffff169050919050565b8173ffffffffffffffffffffffffffffffffffffffff168373ffffffffffffffffffffffffffffffffffffffff1603611e07576040517f08c379a0000000000000000000000000000000000000000000000000000000008152600401611dfe90613a0d565b60405180910390fd5b80600560008573ffffffffffffffffffffffffffffffffffffffff1673ffffffffffffffffffffffffffffffffffffffff16815260200190815260200160002060008473ffffffffffffffffffffffffffffffffffffffff1673ffffffffffffffffffffffffffffffffffffffff16815260200190815260200160002060006101000a81548160ff0219169083151502179055508173ffffffffffffffffffffffffffffffffffffffff168373ffffffffffffffffffffffffffffffffffffffff167f17307eab39ab6107e8899845ad3d59bd9653f200f220920489ca2b5937696c3183604051611ef89190612ae2565b60405180910390a3505050565b611f10848484611752565b611f1c848484846124c8565b611f5b576040517f08c379a0000000000000000000000000000000000000000000000000000000008152600401611f5290613a9f565b60405180910390fd5b50505050565b6060604051806080016040528060438152602001613e7460439139905090565b606060006001611f908461264f565b01905060008167ffffffffffffffff811115611faf57611fae612ec7565b5b6040519080825280601f01601f191660200182016040528015611fe15781602001600182028036833780820191505090505b509050600082602001820190505b600115612044578080600190039150507f3031323334353637383961626364656600000000000000000000000000000000600a86061a8153600a858161203857612037613abf565b5b04945060008503611fef575b819350505050919050565b60007f01ffc9a7000000000000000000000000000000000000000000000000000000007bffffffffffffffffffffffffffffffffffffffffffffffffffffffff1916827bffffffffffffffffffffffffffffffffffffffffffffffffffffffff1916149050919050565b60008073ffffffffffffffffffffffffffffffffffffffff166120db83611d5c565b73ffffffffffffffffffffffffffffffffffffffff1614159050919050565b6121048282611003565b61217b57612111816127a2565b61211f8360001c60206127cf565b604051602001612130929190613b86565b6040516020818303038152906040526040517f08c379a00000000000000000000000000000000000000000000000000000000081526004016121729190612bc1565b60405180910390fd5b5050565b600073ffffffffffffffffffffffffffffffffffffffff168273ffffffffffffffffffffffffffffffffffffffff16036121ee576040517f08c379a00000000000000000000000000000000000000000000000000000000081526004016121e590613c0c565b60405180910390fd5b6121f7816120b9565b15612237576040517f08c379a000000000000000000000000000000000000000000000000000000000815260040161222e90613c78565b60405180910390fd5b61224560008383600161239c565b61224e816120b9565b1561228e576040517f08c379a000000000000000000000000000000000000000000000000000000000815260040161228590613c78565b60405180910390fd5b6001600360008473ffffffffffffffffffffffffffffffffffffffff1673ffffffffffffffffffffffffffffffffffffffff16815260200190815260200160002060008282540192505081905550816002600083815260200190815260200160002060006101000a81548173ffffffffffffffffffffffffffffffffffffffff021916908373ffffffffffffffffffffffffffffffffffffffff160217905550808273ffffffffffffffffffffffffffffffffffffffff16600073ffffffffffffffffffffffffffffffffffffffff167fddf252ad1be2c89b69c2b068fc378daa952ba7f163c4a11628f55a4df523b3ef60405160405180910390a46123986000838360016124c2565b5050565b60018111156124bc57600073ffffffffffffffffffffffffffffffffffffffff168473ffffffffffffffffffffffffffffffffffffffff16146124305780600360008673ffffffffffffffffffffffffffffffffffffffff1673ffffffffffffffffffffffffffffffffffffffff16815260200190815260200160002060008282546124289190613c98565b925050819055505b600073ffffffffffffffffffffffffffffffffffffffff168373ffffffffffffffffffffffffffffffffffffffff16146124bb5780600360008573ffffffffffffffffffffffffffffffffffffffff1673ffffffffffffffffffffffffffffffffffffffff16815260200190815260200160002060008282546124b391906137d7565b925050819055505b5b50505050565b50505050565b60006124e98473ffffffffffffffffffffffffffffffffffffffff16612a0b565b15612642578373ffffffffffffffffffffffffffffffffffffffff1663150b7a0261251261152d565b8786866040518563ffffffff1660e01b81526004016125349493929190613d21565b6020604051808303816000875af192505050801561257057506040513d601f19601f8201168201806040525081019061256d9190613d82565b60015b6125f2573d80600081146125a0576040519150601f19603f3d011682016040523d82523d6000602084013e6125a5565b606091505b5060008151036125ea576040517f08c379a00000000000000000000000000000000000000000000000000000000081526004016125e190613a9f565b60405180910390fd5b805181602001fd5b63150b7a0260e01b7bffffffffffffffffffffffffffffffffffffffffffffffffffffffff1916817bffffffffffffffffffffffffffffffffffffffffffffffffffffffff191614915050612647565b600190505b949350505050565b600080600090507a184f03e93ff9f4daa797ed6e38ed64bf6a1f01000000000000000083106126ad577a184f03e93ff9f4daa797ed6e38ed64bf6a1f01000000000000000083816126a3576126a2613abf565b5b0492506040810190505b6d04ee2d6d415b85acef810000000083106126ea576d04ee2d6d415b85acef810000000083816126e0576126df613abf565b5b0492506020810190505b662386f26fc10000831061271957662386f26fc10000838161270f5761270e613abf565b5b0492506010810190505b6305f5e1008310612742576305f5e100838161273857612737613abf565b5b0492506008810190505b612710831061276757612710838161275d5761275c613abf565b5b0492506004810190505b6064831061278a57606483816127805761277f613abf565b5b0492506002810190505b600a8310612799576001810190505b80915050919050565b60606127c88273ffffffffffffffffffffffffffffffffffffffff16601460ff166127cf565b9050919050565b6060600060028360026127e291906132fa565b6127ec91906137d7565b67ffffffffffffffff81111561280557612804612ec7565b5b6040519080825280601f01601f1916602001820160405280156128375781602001600182028036833780820191505090505b5090507f30000000000000000000000000000000000000000000000000000000000000008160008151811061286f5761286e613daf565b5b60200101907effffffffffffffffffffffffffffffffffffffffffffffffffffffffffffff1916908160001a9053507f7800000000000000000000000000000000000000000000000000000000000000816001815181106128d3576128d2613daf565b5b60200101907effffffffffffffffffffffffffffffffffffffffffffffffffffffffffffff1916908160001a9053506000600184600261291391906132fa565b61291d91906137d7565b90505b60018111156129bd577f3031323334353637383961626364656600000000000000000000000000000000600f86166010811061295f5761295e613daf565b5b1a60f81b82828151811061297657612975613daf565b5b60200101907effffffffffffffffffffffffffffffffffffffffffffffffffffffffffffff1916908160001a905350600485901c9450806129b690613dde565b9050612920565b5060008414612a01576040517f08c379a00000000000000000000000000000000000000000000000000000000081526004016129f890613e53565b60405180910390fd5b8091505092915050565b6000808273ffffffffffffffffffffffffffffffffffffffff163b119050919050565b6000604051905090565b600080fd5b600080fd5b60007fffffffff0000000000000000000000000000000000000000000000000000000082169050919050565b612a7781612a42565b8114612a8257600080fd5b50565b600081359050612a9481612a6e565b92915050565b600060208284031215612ab057612aaf612a38565b5b6000612abe84828501612a85565b91505092915050565b60008115159050919050565b612adc81612ac7565b82525050565b6000602082019050612af76000830184612ad3565b92915050565b6000819050919050565b612b1081612afd565b82525050565b6000602082019050612b2b6000830184612b07565b92915050565b600081519050919050565b600082825260208201905092915050565b60005b83811015612b6b578082015181840152602081019050612b50565b60008484015250505050565b6000601f19601f8301169050919050565b6000612b9382612b31565b612b9d8185612b3c565b9350612bad818560208601612b4d565b612bb681612b77565b840191505092915050565b60006020820190508181036000830152612bdb8184612b88565b905092915050565b612bec81612afd565b8114612bf757600080fd5b50565b600081359050612c0981612be3565b92915050565b600060208284031215612c2557612c24612a38565b5b6000612c3384828501612bfa565b91505092915050565b600073ffffffffffffffffffffffffffffffffffffffff82169050919050565b6000612c6782612c3c565b9050919050565b612c7781612c5c565b82525050565b6000602082019050612c926000830184612c6e565b92915050565b612ca181612c5c565b8114612cac57600080fd5b50565b600081359050612cbe81612c98565b92915050565b60008060408385031215612cdb57612cda612a38565b5b6000612ce985828601612caf565b9250506020612cfa85828601612bfa565b9150509250929050565b600080600060608486031215612d1d57612d1c612a38565b5b6000612d2b86828701612caf565b9350506020612d3c86828701612caf565b9250506040612d4d86828701612bfa565b9150509250925092565b6000819050919050565b612d6a81612d57565b8114612d7557600080fd5b50565b600081359050612d8781612d61565b92915050565b600060208284031215612da357612da2612a38565b5b6000612db184828501612d78565b91505092915050565b612dc381612d57565b82525050565b6000602082019050612dde6000830184612dba565b92915050565b60008060408385031215612dfb57612dfa612a38565b5b6000612e0985828601612d78565b9250506020612e1a85828601612caf565b9150509250929050565b600060208284031215612e3a57612e39612a38565b5b6000612e4884828501612caf565b91505092915050565b612e5a81612ac7565b8114612e6557600080fd5b50565b600081359050612e7781612e51565b92915050565b60008060408385031215612e9457612e93612a38565b5b6000612ea285828601612caf565b9250506020612eb385828601612e68565b9150509250929050565b600080fd5b600080fd5b7f4e487b7100000000000000000000000000000000000000000000000000000000600052604160045260246000fd5b612eff82612b77565b810181811067ffffffffffffffff82111715612f1e57612f1d612ec7565b5b80604052505050565b6000612f31612a2e565b9050612f3d8282612ef6565b919050565b600067ffffffffffffffff821115612f5d57612f5c612ec7565b5b612f6682612b77565b9050602081019050919050565b82818337600083830152505050565b6000612f95612f9084612f42565b612f27565b905082815260208101848484011115612fb157612fb0612ec2565b5b612fbc848285612f73565b509392505050565b600082601f830112612fd957612fd8612ebd565b5b8135612fe9848260208601612f82565b91505092915050565b6000806000806080858703121561300c5761300b612a38565b5b600061301a87828801612caf565b945050602061302b87828801612caf565b935050604061303c87828801612bfa565b925050606085013567ffffffffffffffff81111561305d5761305c612a3d565b5b61306987828801612fc4565b91505092959194509250565b6000806040838503121561308c5761308b612a38565b5b600061309a85828601612caf565b92505060206130ab85828601612caf565b9150509250929050565b7f4e487b7100000000000000000000000000000000000000000000000000000000600052602260045260246000fd5b600060028204905060018216806130fc57607f821691505b60208210810361310f5761310e6130b5565b5b50919050565b7f4552433732313a20617070726f76616c20746f2063757272656e74206f776e6560008201527f7200000000000000000000000000000000000000000000000000000000000000602082015250565b6000613171602183612b3c565b915061317c82613115565b604082019050919050565b600060208201905081810360008301526131a081613164565b9050919050565b7f4552433732313a20617070726f76652063616c6c6572206973206e6f7420746f60008201527f6b656e206f776e6572206f7220617070726f76656420666f7220616c6c000000602082015250565b6000613203603d83612b3c565b915061320e826131a7565b604082019050919050565b60006020820190508181036000830152613232816131f6565b9050919050565b7f426c6f6f644f664d6f6c6f6368436c61696d4e46543a207175616e746974792060008201527f63616e6e6f74206265207a65726f000000000000000000000000000000000000602082015250565b6000613295602e83612b3c565b91506132a082613239565b604082019050919050565b600060208201905081810360008301526132c481613288565b9050919050565b7f4e487b7100000000000000000000000000000000000000000000000000000000600052601160045260246000fd5b600061330582612afd565b915061331083612afd565b925082820261331e81612afd565b91508282048414831517613335576133346132cb565b5b5092915050565b7f426c6f6f644f664d6f6c6f6368436c61696d4e46543a206d73672e76616c756560008201527f2062656c6f77206d696e20707269636500000000000000000000000000000000602082015250565b6000613398603083612b3c565b91506133a38261333c565b604082019050919050565b600060208201905081810360008301526133c78161338b565b9050919050565b60006133d982612afd565b91507fffffffffffffffffffffffffffffffffffffffffffffffffffffffffffffffff820361340b5761340a6132cb565b5b600182019050919050565b7f4552433732313a2063616c6c6572206973206e6f7420746f6b656e206f776e6560008201527f72206f7220617070726f76656400000000000000000000000000000000000000602082015250565b6000613472602d83612b3c565b915061347d82613416565b604082019050919050565b600060208201905081810360008301526134a181613465565b9050919050565b7f416363657373436f6e74726f6c3a2063616e206f6e6c792072656e6f756e636560008201527f20726f6c657320666f722073656c660000000000000000000000000000000000602082015250565b6000613504602f83612b3c565b915061350f826134a8565b604082019050919050565b60006020820190508181036000830152613533816134f7565b9050919050565b7f4f6e6c7920617574686f72697a6564206d696e746572732063616e207769746860008201527f6472617700000000000000000000000000000000000000000000000000000000602082015250565b6000613596602483612b3c565b91506135a18261353a565b604082019050919050565b600060208201905081810360008301526135c581613589565b9050919050565b6000815190506135db81612be3565b92915050565b6000602082840312156135f7576135f6612a38565b5b6000613605848285016135cc565b91505092915050565b60006040820190506136236000830185612c6e565b6136306020830184612b07565b9392505050565b60008151905061364681612e51565b92915050565b60006020828403121561366257613661612a38565b5b600061367084828501613637565b91505092915050565b7f4552433732313a20696e76616c696420746f6b656e2049440000000000000000600082015250565b60006136af601883612b3c565b91506136ba82613679565b602082019050919050565b600060208201905081810360008301526136de816136a2565b9050919050565b7f4552433732313a2061646472657373207a65726f206973206e6f74206120766160008201527f6c6964206f776e65720000000000000000000000000000000000000000000000602082015250565b6000613741602983612b3c565b915061374c826136e5565b604082019050919050565b6000602082019050818103600083015261377081613734565b9050919050565b600081905092915050565b600061378d82612b31565b6137978185613777565b93506137a7818560208601612b4d565b80840191505092915050565b60006137bf8285613782565b91506137cb8284613782565b91508190509392505050565b60006137e282612afd565b91506137ed83612afd565b9250828201905080821115613805576138046132cb565b5b92915050565b7f426c6f6f644f664d6f6c6f6368436c61696d4e46543a2063616e6e6f7420657860008201527f63656564206d617820737570706c790000000000000000000000000000000000602082015250565b6000613867602f83612b3c565b91506138728261380b565b604082019050919050565b600060208201905081810360008301526138968161385a565b9050919050565b7f4552433732313a207472616e736665722066726f6d20696e636f72726563742060008201527f6f776e6572000000000000000000000000000000000000000000000000000000602082015250565b60006138f9602583612b3c565b91506139048261389d565b604082019050919050565b60006020820190508181036000830152613928816138ec565b9050919050565b7f4552433732313a207472616e7366657220746f20746865207a65726f2061646460008201527f7265737300000000000000000000000000000000000000000000000000000000602082015250565b600061398b602483612b3c565b91506139968261392f565b604082019050919050565b600060208201905081810360008301526139ba8161397e565b9050919050565b7f4552433732313a20617070726f766520746f2063616c6c657200000000000000600082015250565b60006139f7601983612b3c565b9150613a02826139c1565b602082019050919050565b60006020820190508181036000830152613a26816139ea565b9050919050565b7f4552433732313a207472616e7366657220746f206e6f6e20455243373231526560008201527f63656976657220696d706c656d656e7465720000000000000000000000000000602082015250565b6000613a89603283612b3c565b9150613a9482613a2d565b604082019050919050565b60006020820190508181036000830152613ab881613a7c565b9050919050565b7f4e487b7100000000000000000000000000000000000000000000000000000000600052601260045260246000fd5b7f416363657373436f6e74726f6c3a206163636f756e7420000000000000000000600082015250565b6000613b24601783613777565b9150613b2f82613aee565b601782019050919050565b7f206973206d697373696e6720726f6c6520000000000000000000000000000000600082015250565b6000613b70601183613777565b9150613b7b82613b3a565b601182019050919050565b6000613b9182613b17565b9150613b9d8285613782565b9150613ba882613b63565b9150613bb48284613782565b91508190509392505050565b7f4552433732313a206d696e7420746f20746865207a65726f2061646472657373600082015250565b6000613bf6602083612b3c565b9150613c0182613bc0565b602082019050919050565b60006020820190508181036000830152613c2581613be9565b9050919050565b7f4552433732313a20746f6b656e20616c7265616479206d696e74656400000000600082015250565b6000613c62601c83612b3c565b9150613c6d82613c2c565b602082019050919050565b60006020820190508181036000830152613c9181613c55565b9050919050565b6000613ca382612afd565b9150613cae83612afd565b9250828203905081811115613cc657613cc56132cb565b5b92915050565b600081519050919050565b600082825260208201905092915050565b6000613cf382613ccc565b613cfd8185613cd7565b9350613d0d818560208601612b4d565b613d1681612b77565b840191505092915050565b6000608082019050613d366000830187612c6e565b613d436020830186612c6e565b613d506040830185612b07565b8181036060830152613d628184613ce8565b905095945050505050565b600081519050613d7c81612a6e565b92915050565b600060208284031215613d9857613d97612a38565b5b6000613da684828501613d6d565b91505092915050565b7f4e487b7100000000000000000000000000000000000000000000000000000000600052603260045260246000fd5b6000613de982612afd565b915060008203613dfc57613dfb6132cb565b5b600182039050919050565b7f537472696e67733a20686578206c656e67746820696e73756666696369656e74600082015250565b6000613e3d602083612b3c565b9150613e4882613e07565b602082019050919050565b60006020820190508181036000830152613e6c81613e30565b905091905056fe697066733a2f2f6261667962656965356a733664336c616f70336164706534626d70787577706270777970346d6a6b7468747432346861766b346768667a716572792fa2646970667358221220ece0f57dde26b2d706bf67efca6ffd611c3323dc9739adb2b3dd96ada74ac1c064736f6c63430008110033",
  "linkReferences": {},
  "deployedLinkReferences": {}
}