{
  "_format": "hh-sol-artifact-1",
  "contractName": "BloodOfMolochClaimNFT",
  "sourceName": "contracts/BloodOfMolochClaimNFT.sol",
  "abi": [
    {
      "inputs": [
        {
          "internalType": "address payable",
          "name": "minter",
          "type": "address"
        },
        {
          "internalType": "address",
          "name": "pbtAddress",
          "type": "address"
        }
      ],
      "stateMutability": "nonpayable",
      "type": "constructor"
    },
    {
      "anonymous": false,
      "inputs": [
        {
          "indexed": true,
          "internalType": "address",
          "name": "owner",
          "type": "address"
        },
        {
          "indexed": true,
          "internalType": "address",
          "name": "approved",
          "type": "address"
        },
        {
          "indexed": true,
          "internalType": "uint256",
          "name": "tokenId",
          "type": "uint256"
        }
      ],
      "name": "Approval",
      "type": "event"
    },
    {
      "anonymous": false,
      "inputs": [
        {
          "indexed": true,
          "internalType": "address",
          "name": "owner",
          "type": "address"
        },
        {
          "indexed": true,
          "internalType": "address",
          "name": "operator",
          "type": "address"
        },
        {
          "indexed": false,
          "internalType": "bool",
          "name": "approved",
          "type": "bool"
        }
      ],
      "name": "ApprovalForAll",
      "type": "event"
    },
    {
      "anonymous": false,
      "inputs": [
        {
          "indexed": false,
          "internalType": "uint256",
          "name": "tokenId",
          "type": "uint256"
        }
      ],
      "name": "MintedUsingSignature",
      "type": "event"
    },
    {
      "anonymous": false,
      "inputs": [
        {
          "indexed": true,
          "internalType": "bytes32",
          "name": "role",
          "type": "bytes32"
        },
        {
          "indexed": true,
          "internalType": "bytes32",
          "name": "previousAdminRole",
          "type": "bytes32"
        },
        {
          "indexed": true,
          "internalType": "bytes32",
          "name": "newAdminRole",
          "type": "bytes32"
        }
      ],
      "name": "RoleAdminChanged",
      "type": "event"
    },
    {
      "anonymous": false,
      "inputs": [
        {
          "indexed": true,
          "internalType": "bytes32",
          "name": "role",
          "type": "bytes32"
        },
        {
          "indexed": true,
          "internalType": "address",
          "name": "account",
          "type": "address"
        },
        {
          "indexed": true,
          "internalType": "address",
          "name": "sender",
          "type": "address"
        }
      ],
      "name": "RoleGranted",
      "type": "event"
    },
    {
      "anonymous": false,
      "inputs": [
        {
          "indexed": true,
          "internalType": "bytes32",
          "name": "role",
          "type": "bytes32"
        },
        {
          "indexed": true,
          "internalType": "address",
          "name": "account",
          "type": "address"
        },
        {
          "indexed": true,
          "internalType": "address",
          "name": "sender",
          "type": "address"
        }
      ],
      "name": "RoleRevoked",
      "type": "event"
    },
    {
      "anonymous": false,
      "inputs": [
        {
          "indexed": true,
          "internalType": "address",
          "name": "from",
          "type": "address"
        },
        {
          "indexed": true,
          "internalType": "address",
          "name": "to",
          "type": "address"
        },
        {
          "indexed": true,
          "internalType": "uint256",
          "name": "tokenId",
          "type": "uint256"
        }
      ],
      "name": "Transfer",
      "type": "event"
    },
    {
      "inputs": [],
      "name": "DEFAULT_ADMIN_ROLE",
      "outputs": [
        {
          "internalType": "bytes32",
          "name": "",
          "type": "bytes32"
        }
      ],
      "stateMutability": "view",
      "type": "function"
    },
    {
      "inputs": [],
      "name": "MAX_SUPPLY",
      "outputs": [
        {
          "internalType": "uint256",
          "name": "",
          "type": "uint256"
        }
      ],
      "stateMutability": "view",
      "type": "function"
    },
    {
      "inputs": [],
      "name": "MINTER_ROLE",
      "outputs": [
        {
          "internalType": "bytes32",
          "name": "",
          "type": "bytes32"
        }
      ],
      "stateMutability": "view",
      "type": "function"
    },
    {
      "inputs": [
        {
          "internalType": "address",
          "name": "to",
          "type": "address"
        },
        {
          "internalType": "uint256",
          "name": "tokenId",
          "type": "uint256"
        }
      ],
      "name": "approve",
      "outputs": [],
      "stateMutability": "nonpayable",
      "type": "function"
    },
    {
      "inputs": [],
      "name": "availableToWithdraw",
      "outputs": [
        {
          "internalType": "uint256",
          "name": "",
          "type": "uint256"
        }
      ],
      "stateMutability": "view",
      "type": "function"
    },
    {
      "inputs": [
        {
          "internalType": "address",
          "name": "owner",
          "type": "address"
        }
      ],
      "name": "balanceOf",
      "outputs": [
        {
          "internalType": "uint256",
          "name": "",
          "type": "uint256"
        }
      ],
      "stateMutability": "view",
      "type": "function"
    },
    {
      "inputs": [
        {
          "internalType": "uint256",
          "name": "_quantity",
          "type": "uint256"
        }
      ],
      "name": "batchMint",
      "outputs": [],
      "stateMutability": "nonpayable",
      "type": "function"
    },
    {
      "inputs": [
        {
          "internalType": "uint256",
          "name": "tokenId",
          "type": "uint256"
        }
      ],
      "name": "burn",
      "outputs": [],
      "stateMutability": "nonpayable",
      "type": "function"
    },
    {
      "inputs": [
        {
          "internalType": "uint256",
          "name": "tokenId",
          "type": "uint256"
        }
      ],
      "name": "getApproved",
      "outputs": [
        {
          "internalType": "address",
          "name": "",
          "type": "address"
        }
      ],
      "stateMutability": "view",
      "type": "function"
    },
    {
      "inputs": [
        {
          "internalType": "bytes32",
          "name": "role",
          "type": "bytes32"
        }
      ],
      "name": "getRoleAdmin",
      "outputs": [
        {
          "internalType": "bytes32",
          "name": "",
          "type": "bytes32"
        }
      ],
      "stateMutability": "view",
      "type": "function"
    },
    {
      "inputs": [
        {
          "internalType": "bytes32",
          "name": "role",
          "type": "bytes32"
        },
        {
          "internalType": "address",
          "name": "account",
          "type": "address"
        }
      ],
      "name": "grantRole",
      "outputs": [],
      "stateMutability": "nonpayable",
      "type": "function"
    },
    {
      "inputs": [
        {
          "internalType": "bytes32",
          "name": "role",
          "type": "bytes32"
        },
        {
          "internalType": "address",
          "name": "account",
          "type": "address"
        }
      ],
      "name": "hasRole",
      "outputs": [
        {
          "internalType": "bool",
          "name": "",
          "type": "bool"
        }
      ],
      "stateMutability": "view",
      "type": "function"
    },
    {
      "inputs": [
        {
          "internalType": "address",
          "name": "owner",
          "type": "address"
        },
        {
          "internalType": "address",
          "name": "operator",
          "type": "address"
        }
      ],
      "name": "isApprovedForAll",
      "outputs": [
        {
          "internalType": "bool",
          "name": "",
          "type": "bool"
        }
      ],
      "stateMutability": "view",
      "type": "function"
    },
    {
      "inputs": [],
      "name": "mint",
      "outputs": [],
      "stateMutability": "nonpayable",
      "type": "function"
    },
    {
      "inputs": [],
      "name": "name",
      "outputs": [
        {
          "internalType": "string",
          "name": "",
          "type": "string"
        }
      ],
      "stateMutability": "view",
      "type": "function"
    },
    {
      "inputs": [
        {
          "internalType": "uint256",
          "name": "tokenId",
          "type": "uint256"
        }
      ],
      "name": "ownerOf",
      "outputs": [
        {
          "internalType": "address",
          "name": "",
          "type": "address"
        }
      ],
      "stateMutability": "view",
      "type": "function"
    },
    {
      "inputs": [
        {
          "internalType": "bytes32",
          "name": "role",
          "type": "bytes32"
        },
        {
          "internalType": "address",
          "name": "account",
          "type": "address"
        }
      ],
      "name": "renounceRole",
      "outputs": [],
      "stateMutability": "nonpayable",
      "type": "function"
    },
    {
      "inputs": [
        {
          "internalType": "bytes32",
          "name": "role",
          "type": "bytes32"
        },
        {
          "internalType": "address",
          "name": "account",
          "type": "address"
        }
      ],
      "name": "revokeRole",
      "outputs": [],
      "stateMutability": "nonpayable",
      "type": "function"
    },
    {
      "inputs": [
        {
          "internalType": "address",
          "name": "from",
          "type": "address"
        },
        {
          "internalType": "address",
          "name": "to",
          "type": "address"
        },
        {
          "internalType": "uint256",
          "name": "tokenId",
          "type": "uint256"
        }
      ],
      "name": "safeTransferFrom",
      "outputs": [],
      "stateMutability": "nonpayable",
      "type": "function"
    },
    {
      "inputs": [
        {
          "internalType": "address",
          "name": "from",
          "type": "address"
        },
        {
          "internalType": "address",
          "name": "to",
          "type": "address"
        },
        {
          "internalType": "uint256",
          "name": "tokenId",
          "type": "uint256"
        },
        {
          "internalType": "bytes",
          "name": "data",
          "type": "bytes"
        }
      ],
      "name": "safeTransferFrom",
      "outputs": [],
      "stateMutability": "nonpayable",
      "type": "function"
    },
    {
      "inputs": [
        {
          "internalType": "address",
          "name": "operator",
          "type": "address"
        },
        {
          "internalType": "bool",
          "name": "approved",
          "type": "bool"
        }
      ],
      "name": "setApprovalForAll",
      "outputs": [],
      "stateMutability": "nonpayable",
      "type": "function"
    },
    {
      "inputs": [],
      "name": "supply",
      "outputs": [
        {
          "internalType": "uint256",
          "name": "",
          "type": "uint256"
        }
      ],
      "stateMutability": "view",
      "type": "function"
    },
    {
      "inputs": [
        {
          "internalType": "bytes4",
          "name": "interfaceId",
          "type": "bytes4"
        }
      ],
      "name": "supportsInterface",
      "outputs": [
        {
          "internalType": "bool",
          "name": "",
          "type": "bool"
        }
      ],
      "stateMutability": "view",
      "type": "function"
    },
    {
      "inputs": [],
      "name": "symbol",
      "outputs": [
        {
          "internalType": "string",
          "name": "",
          "type": "string"
        }
      ],
      "stateMutability": "view",
      "type": "function"
    },
    {
      "inputs": [
        {
          "internalType": "uint256",
          "name": "tokenId",
          "type": "uint256"
        }
      ],
      "name": "tokenURI",
      "outputs": [
        {
          "internalType": "string",
          "name": "",
          "type": "string"
        }
      ],
      "stateMutability": "view",
      "type": "function"
    },
    {
      "inputs": [
        {
          "internalType": "address",
          "name": "from",
          "type": "address"
        },
        {
          "internalType": "address",
          "name": "to",
          "type": "address"
        },
        {
          "internalType": "uint256",
          "name": "tokenId",
          "type": "uint256"
        }
      ],
      "name": "transferFrom",
      "outputs": [],
      "stateMutability": "nonpayable",
      "type": "function"
    },
    {
      "inputs": [],
      "name": "withdraw",
      "outputs": [],
      "stateMutability": "nonpayable",
      "type": "function"
    },
    {
      "inputs": [
        {
          "internalType": "address",
          "name": "_token",
          "type": "address"
        }
      ],
      "name": "withdrawTokens",
      "outputs": [],
      "stateMutability": "nonpayable",
      "type": "function"
    }
  ],
  "bytecode": "0x60806040523480156200001157600080fd5b506040516200438e3803806200438e8339818101604052810190620000379190620003e0565b6040518060400160405280601581526020017f426c6f6f64206f66204d6f6c6f636820436c61696d00000000000000000000008152506040518060400160405280600481526020017f424c4d43000000000000000000000000000000000000000000000000000000008152508160009081620000b49190620006a1565b508060019081620000c69190620006a1565b505050600073ffffffffffffffffffffffffffffffffffffffff168173ffffffffffffffffffffffffffffffffffffffff16036200013b576040517f08c379a000000000000000000000000000000000000000000000000000000000815260040162000132906200080f565b60405180910390fd5b6200016d7f9f2df0fed2c77648de5860a4cc508cd0818c85b8b8a1ab4ceeef8d981c8956a683620001b660201b60201c565b80600860006101000a81548173ffffffffffffffffffffffffffffffffffffffff021916908373ffffffffffffffffffffffffffffffffffffffff160217905550505062000831565b620001c88282620001cc60201b60201c565b5050565b620001de8282620002be60201b60201c565b620002ba5760016007600084815260200190815260200160002060000160008373ffffffffffffffffffffffffffffffffffffffff1673ffffffffffffffffffffffffffffffffffffffff16815260200190815260200160002060006101000a81548160ff0219169083151502179055506200025f6200032960201b60201c565b73ffffffffffffffffffffffffffffffffffffffff168173ffffffffffffffffffffffffffffffffffffffff16837f2f8788117e7eff1d82e926ec794901d17c78024a50270940304540a733656f0d60405160405180910390a45b5050565b60006007600084815260200190815260200160002060000160008373ffffffffffffffffffffffffffffffffffffffff1673ffffffffffffffffffffffffffffffffffffffff16815260200190815260200160002060009054906101000a900460ff16905092915050565b600033905090565b600080fd5b600073ffffffffffffffffffffffffffffffffffffffff82169050919050565b6000620003638262000336565b9050919050565b620003758162000356565b81146200038157600080fd5b50565b60008151905062000395816200036a565b92915050565b6000620003a88262000336565b9050919050565b620003ba816200039b565b8114620003c657600080fd5b50565b600081519050620003da81620003af565b92915050565b60008060408385031215620003fa57620003f962000331565b5b60006200040a8582860162000384565b92505060206200041d85828601620003c9565b9150509250929050565b600081519050919050565b7f4e487b7100000000000000000000000000000000000000000000000000000000600052604160045260246000fd5b7f4e487b7100000000000000000000000000000000000000000000000000000000600052602260045260246000fd5b60006002820490506001821680620004a957607f821691505b602082108103620004bf57620004be62000461565b5b50919050565b60008190508160005260206000209050919050565b60006020601f8301049050919050565b600082821b905092915050565b600060088302620005297fffffffffffffffffffffffffffffffffffffffffffffffffffffffffffffffff82620004ea565b620005358683620004ea565b95508019841693508086168417925050509392505050565b6000819050919050565b6000819050919050565b6000620005826200057c62000576846200054d565b62000557565b6200054d565b9050919050565b6000819050919050565b6200059e8362000561565b620005b6620005ad8262000589565b848454620004f7565b825550505050565b600090565b620005cd620005be565b620005da81848462000593565b505050565b5b818110156200060257620005f6600082620005c3565b600181019050620005e0565b5050565b601f82111562000651576200061b81620004c5565b6200062684620004da565b8101602085101562000636578190505b6200064e6200064585620004da565b830182620005df565b50505b505050565b600082821c905092915050565b6000620006766000198460080262000656565b1980831691505092915050565b600062000691838362000663565b9150826002028217905092915050565b620006ac8262000427565b67ffffffffffffffff811115620006c857620006c762000432565b5b620006d4825462000490565b620006e182828562000606565b600060209050601f83116001811462000719576000841562000704578287015190505b62000710858262000683565b86555062000780565b601f1984166200072986620004c5565b60005b8281101562000753578489015182556001820191506020850194506020810190506200072c565b868310156200077357848901516200076f601f89168262000663565b8355505b6001600288020188555050505b505050505050565b600082825260208201905092915050565b7f426c6f6f644f664d6f6c6f6368436c61696d4e46543a206e756c6c206164647260008201527f6573730000000000000000000000000000000000000000000000000000000000602082015250565b6000620007f760238362000788565b9150620008048262000799565b604082019050919050565b600060208201905081810360008301526200082a81620007e8565b9050919050565b613b4d80620008416000396000f3fe608060405234801561001057600080fd5b50600436106101c45760003560e01c806349df728c116100f9578063a22cb46511610097578063d539139311610071578063d5391393146104db578063d547741f146104f9578063e322ad2b14610515578063e985e9c514610533576101c4565b8063a22cb46514610473578063b88d4fde1461048f578063c87b56dd146104ab576101c4565b80638467be0d116100d35780638467be0d146103eb57806391d148541461040757806395d89b4114610437578063a217fddf14610455576101c4565b806349df728c1461036f5780636352211e1461038b57806370a08231146103bb576101c4565b8063248a9ca31161016657806336568abe1161014057806336568abe146103115780633ccfd60b1461032d57806342842e0e1461033757806342966c6814610353576101c4565b8063248a9ca3146102a75780632f2ff15d146102d757806332cb6b0c146102f3576101c4565b8063081812fc116101a2578063081812fc14610235578063095ea7b3146102655780631249c58b1461028157806323b872dd1461028b576101c4565b806301ffc9a7146101c9578063047fc9aa146101f957806306fdde0314610217575b600080fd5b6101e360048036038101906101de91906128f4565b610563565b6040516101f0919061293c565b60405180910390f35b610201610585565b60405161020e9190612970565b60405180910390f35b61021f61058b565b60405161022c9190612a1b565b60405180910390f35b61024f600480360381019061024a9190612a69565b61061d565b60405161025c9190612ad7565b60405180910390f35b61027f600480360381019061027a9190612b1e565b610663565b005b61028961077a565b005b6102a560048036038101906102a09190612b5e565b6107b9565b005b6102c160048036038101906102bc9190612be7565b610819565b6040516102ce9190612c23565b60405180910390f35b6102f160048036038101906102ec9190612c3e565b610839565b005b6102fb61085a565b6040516103089190612970565b60405180910390f35b61032b60048036038101906103269190612c3e565b610860565b005b6103356108e3565b005b610351600480360381019061034c9190612b5e565b610a25565b005b61036d60048036038101906103689190612a69565b610a45565b005b61038960048036038101906103849190612c7e565b610aa1565b005b6103a560048036038101906103a09190612a69565b610c18565b6040516103b29190612ad7565b60405180910390f35b6103d560048036038101906103d09190612c7e565b610c9e565b6040516103e29190612970565b60405180910390f35b61040560048036038101906104009190612a69565b610d55565b005b610421600480360381019061041c9190612c3e565b610d7f565b60405161042e919061293c565b60405180910390f35b61043f610dea565b60405161044c9190612a1b565b60405180910390f35b61045d610e7c565b60405161046a9190612c23565b60405180910390f35b61048d60048036038101906104889190612cd7565b610e83565b005b6104a960048036038101906104a49190612e4c565b610e99565b005b6104c560048036038101906104c09190612a69565b610efb565b6040516104d29190612a1b565b60405180910390f35b6104e361100d565b6040516104f09190612c23565b60405180910390f35b610513600480360381019061050e9190612c3e565b611031565b005b61051d611052565b60405161052a9190612970565b60405180910390f35b61054d60048036038101906105489190612ecf565b611099565b60405161055a919061293c565b60405180910390f35b600061056e8261118c565b8061057e575061057d8261126e565b5b9050919050565b60095481565b60606000805461059a90612f3e565b80601f01602080910402602001604051908101604052809291908181526020018280546105c690612f3e565b80156106135780601f106105e857610100808354040283529160200191610613565b820191906000526020600020905b8154815290600101906020018083116105f657829003601f168201915b5050505050905090565b6000610628826112e8565b6004600083815260200190815260200160002060009054906101000a900473ffffffffffffffffffffffffffffffffffffffff169050919050565b600061066e82610c18565b90508073ffffffffffffffffffffffffffffffffffffffff168373ffffffffffffffffffffffffffffffffffffffff16036106de576040517f08c379a00000000000000000000000000000000000000000000000000000000081526004016106d590612fe1565b60405180910390fd5b8073ffffffffffffffffffffffffffffffffffffffff166106fd611333565b73ffffffffffffffffffffffffffffffffffffffff16148061072c575061072b81610726611333565b611099565b5b61076b576040517f08c379a000000000000000000000000000000000000000000000000000000000815260040161076290613073565b60405180910390fd5b610775838361133b565b505050565b6000600160095461078b91906130c2565b9050600960008154809291906107a0906130f6565b91905055506107b66107b0611333565b826113f4565b50565b6107ca6107c4611333565b82611611565b610809576040517f08c379a0000000000000000000000000000000000000000000000000000000008152600401610800906131b0565b60405180910390fd5b6108148383836116a6565b505050565b600060076000838152602001908152602001600020600101549050919050565b61084282610819565b61084b8161199f565b61085583836119b3565b505050565b61015e81565b610868611333565b73ffffffffffffffffffffffffffffffffffffffff168173ffffffffffffffffffffffffffffffffffffffff16146108d5576040517f08c379a00000000000000000000000000000000000000000000000000000000081526004016108cc90613242565b60405180910390fd5b6108df8282611a94565b5050565b61090d7f9f2df0fed2c77648de5860a4cc508cd0818c85b8b8a1ab4ceeef8d981c8956a633610d7f565b61094c576040517f08c379a0000000000000000000000000000000000000000000000000000000008152600401610943906132d4565b60405180910390fd5b60003390506000600a60008373ffffffffffffffffffffffffffffffffffffffff1673ffffffffffffffffffffffffffffffffffffffff1681526020019081526020016000205490506000600a60008473ffffffffffffffffffffffffffffffffffffffff1673ffffffffffffffffffffffffffffffffffffffff168152602001908152602001600020819055508173ffffffffffffffffffffffffffffffffffffffff166108fc829081150290604051600060405180830381858888f19350505050158015610a20573d6000803e3d6000fd5b505050565b610a4083838360405180602001604052806000815250610e99565b505050565b610a56610a50611333565b82611611565b610a95576040517f08c379a0000000000000000000000000000000000000000000000000000000008152600401610a8c906131b0565b60405180910390fd5b610a9e81611b76565b50565b610acb7f9f2df0fed2c77648de5860a4cc508cd0818c85b8b8a1ab4ceeef8d981c8956a633610d7f565b610b0a576040517f08c379a0000000000000000000000000000000000000000000000000000000008152600401610b01906132d4565b60405180910390fd5b6000610b14611333565b905060008273ffffffffffffffffffffffffffffffffffffffff166370a08231306040518263ffffffff1660e01b8152600401610b519190612ad7565b602060405180830381865afa158015610b6e573d6000803e3d6000fd5b505050506040513d601f19601f82011682018060405250810190610b929190613309565b90508273ffffffffffffffffffffffffffffffffffffffff1663a9059cbb83836040518363ffffffff1660e01b8152600401610bcf929190613336565b6020604051808303816000875af1158015610bee573d6000803e3d6000fd5b505050506040513d601f19601f82011682018060405250810190610c129190613374565b50505050565b600080610c2483611bc9565b9050600073ffffffffffffffffffffffffffffffffffffffff168173ffffffffffffffffffffffffffffffffffffffff1603610c95576040517f08c379a0000000000000000000000000000000000000000000000000000000008152600401610c8c906133ed565b60405180910390fd5b80915050919050565b60008073ffffffffffffffffffffffffffffffffffffffff168273ffffffffffffffffffffffffffffffffffffffff1603610d0e576040517f08c379a0000000000000000000000000000000000000000000000000000000008152600401610d059061347f565b60405180910390fd5b600360008373ffffffffffffffffffffffffffffffffffffffff1673ffffffffffffffffffffffffffffffffffffffff168152602001908152602001600020549050919050565b60005b81811015610d7b57610d6861077a565b8080610d73906130f6565b915050610d58565b5050565b60006007600084815260200190815260200160002060000160008373ffffffffffffffffffffffffffffffffffffffff1673ffffffffffffffffffffffffffffffffffffffff16815260200190815260200160002060009054906101000a900460ff16905092915050565b606060018054610df990612f3e565b80601f0160208091040260200160405190810160405280929190818152602001828054610e2590612f3e565b8015610e725780601f10610e4757610100808354040283529160200191610e72565b820191906000526020600020905b815481529060010190602001808311610e5557829003601f168201915b5050505050905090565b6000801b81565b610e95610e8e611333565b8383611c06565b5050565b610eaa610ea4611333565b83611611565b610ee9576040517f08c379a0000000000000000000000000000000000000000000000000000000008152600401610ee0906131b0565b60405180910390fd5b610ef584848484611d72565b50505050565b6060610f06826112e8565b6000600660008481526020019081526020016000208054610f2690612f3e565b80601f0160208091040260200160405190810160405280929190818152602001828054610f5290612f3e565b8015610f9f5780601f10610f7457610100808354040283529160200191610f9f565b820191906000526020600020905b815481529060010190602001808311610f8257829003601f168201915b505050505090506000610fb0611dce565b90506000815103610fc5578192505050611008565b600082511115610ffa578082604051602001610fe29291906134db565b60405160208183030381529060405292505050611008565b61100384611de5565b925050505b919050565b7f9f2df0fed2c77648de5860a4cc508cd0818c85b8b8a1ab4ceeef8d981c8956a681565b61103a82610819565b6110438161199f565b61104d8383611a94565b505050565b6000600a60003373ffffffffffffffffffffffffffffffffffffffff1673ffffffffffffffffffffffffffffffffffffffff16815260200190815260200160002054905090565b6000600860009054906101000a900473ffffffffffffffffffffffffffffffffffffffff1673ffffffffffffffffffffffffffffffffffffffff168273ffffffffffffffffffffffffffffffffffffffff16036110f95760019050611186565b600560008473ffffffffffffffffffffffffffffffffffffffff1673ffffffffffffffffffffffffffffffffffffffff16815260200190815260200160002060008373ffffffffffffffffffffffffffffffffffffffff1673ffffffffffffffffffffffffffffffffffffffff16815260200190815260200160002060009054906101000a900460ff1690505b92915050565b60007f80ac58cd000000000000000000000000000000000000000000000000000000007bffffffffffffffffffffffffffffffffffffffffffffffffffffffff1916827bffffffffffffffffffffffffffffffffffffffffffffffffffffffff1916148061125757507f5b5e139f000000000000000000000000000000000000000000000000000000007bffffffffffffffffffffffffffffffffffffffffffffffffffffffff1916827bffffffffffffffffffffffffffffffffffffffffffffffffffffffff1916145b80611267575061126682611e4d565b5b9050919050565b60007f7965db0b000000000000000000000000000000000000000000000000000000007bffffffffffffffffffffffffffffffffffffffffffffffffffffffff1916827bffffffffffffffffffffffffffffffffffffffffffffffffffffffff191614806112e157506112e08261118c565b5b9050919050565b6112f181611eb7565b611330576040517f08c379a0000000000000000000000000000000000000000000000000000000008152600401611327906133ed565b60405180910390fd5b50565b600033905090565b816004600083815260200190815260200160002060006101000a81548173ffffffffffffffffffffffffffffffffffffffff021916908373ffffffffffffffffffffffffffffffffffffffff160217905550808273ffffffffffffffffffffffffffffffffffffffff166113ae83610c18565b73ffffffffffffffffffffffffffffffffffffffff167f8c5be1e5ebec7d5bd14f71427d1e84f3dd0314c0f7b2291e5b200ac8c7c3b92560405160405180910390a45050565b600073ffffffffffffffffffffffffffffffffffffffff168273ffffffffffffffffffffffffffffffffffffffff1603611463576040517f08c379a000000000000000000000000000000000000000000000000000000000815260040161145a9061354b565b60405180910390fd5b61146c81611eb7565b156114ac576040517f08c379a00000000000000000000000000000000000000000000000000000000081526004016114a3906135b7565b60405180910390fd5b6114ba600083836001611ef8565b6114c381611eb7565b15611503576040517f08c379a00000000000000000000000000000000000000000000000000000000081526004016114fa906135b7565b60405180910390fd5b6001600360008473ffffffffffffffffffffffffffffffffffffffff1673ffffffffffffffffffffffffffffffffffffffff16815260200190815260200160002060008282540192505081905550816002600083815260200190815260200160002060006101000a81548173ffffffffffffffffffffffffffffffffffffffff021916908373ffffffffffffffffffffffffffffffffffffffff160217905550808273ffffffffffffffffffffffffffffffffffffffff16600073ffffffffffffffffffffffffffffffffffffffff167fddf252ad1be2c89b69c2b068fc378daa952ba7f163c4a11628f55a4df523b3ef60405160405180910390a461160d60008383600161201e565b5050565b60008061161d83610c18565b90508073ffffffffffffffffffffffffffffffffffffffff168473ffffffffffffffffffffffffffffffffffffffff16148061165f575061165e8185611099565b5b8061169d57508373ffffffffffffffffffffffffffffffffffffffff166116858461061d565b73ffffffffffffffffffffffffffffffffffffffff16145b91505092915050565b8273ffffffffffffffffffffffffffffffffffffffff166116c682610c18565b73ffffffffffffffffffffffffffffffffffffffff161461171c576040517f08c379a000000000000000000000000000000000000000000000000000000000815260040161171390613649565b60405180910390fd5b600073ffffffffffffffffffffffffffffffffffffffff168273ffffffffffffffffffffffffffffffffffffffff160361178b576040517f08c379a0000000000000000000000000000000000000000000000000000000008152600401611782906136db565b60405180910390fd5b6117988383836001611ef8565b8273ffffffffffffffffffffffffffffffffffffffff166117b882610c18565b73ffffffffffffffffffffffffffffffffffffffff161461180e576040517f08c379a000000000000000000000000000000000000000000000000000000000815260040161180590613649565b60405180910390fd5b6004600082815260200190815260200160002060006101000a81549073ffffffffffffffffffffffffffffffffffffffff02191690556001600360008573ffffffffffffffffffffffffffffffffffffffff1673ffffffffffffffffffffffffffffffffffffffff168152602001908152602001600020600082825403925050819055506001600360008473ffffffffffffffffffffffffffffffffffffffff1673ffffffffffffffffffffffffffffffffffffffff16815260200190815260200160002060008282540192505081905550816002600083815260200190815260200160002060006101000a81548173ffffffffffffffffffffffffffffffffffffffff021916908373ffffffffffffffffffffffffffffffffffffffff160217905550808273ffffffffffffffffffffffffffffffffffffffff168473ffffffffffffffffffffffffffffffffffffffff167fddf252ad1be2c89b69c2b068fc378daa952ba7f163c4a11628f55a4df523b3ef60405160405180910390a461199a838383600161201e565b505050565b6119b0816119ab611333565b612024565b50565b6119bd8282610d7f565b611a905760016007600084815260200190815260200160002060000160008373ffffffffffffffffffffffffffffffffffffffff1673ffffffffffffffffffffffffffffffffffffffff16815260200190815260200160002060006101000a81548160ff021916908315150217905550611a35611333565b73ffffffffffffffffffffffffffffffffffffffff168173ffffffffffffffffffffffffffffffffffffffff16837f2f8788117e7eff1d82e926ec794901d17c78024a50270940304540a733656f0d60405160405180910390a45b5050565b611a9e8282610d7f565b15611b725760006007600084815260200190815260200160002060000160008373ffffffffffffffffffffffffffffffffffffffff1673ffffffffffffffffffffffffffffffffffffffff16815260200190815260200160002060006101000a81548160ff021916908315150217905550611b17611333565b73ffffffffffffffffffffffffffffffffffffffff168173ffffffffffffffffffffffffffffffffffffffff16837ff6391f5c32d9c69d2a47ea670b442974b53935d1edc7fd64eb21e047a839171b60405160405180910390a45b5050565b611b7f816120a9565b6000600660008381526020019081526020016000208054611b9f90612f3e565b905014611bc657600660008281526020019081526020016000206000611bc5919061282b565b5b50565b60006002600083815260200190815260200160002060009054906101000a900473ffffffffffffffffffffffffffffffffffffffff169050919050565b8173ffffffffffffffffffffffffffffffffffffffff168373ffffffffffffffffffffffffffffffffffffffff1603611c74576040517f08c379a0000000000000000000000000000000000000000000000000000000008152600401611c6b90613747565b60405180910390fd5b80600560008573ffffffffffffffffffffffffffffffffffffffff1673ffffffffffffffffffffffffffffffffffffffff16815260200190815260200160002060008473ffffffffffffffffffffffffffffffffffffffff1673ffffffffffffffffffffffffffffffffffffffff16815260200190815260200160002060006101000a81548160ff0219169083151502179055508173ffffffffffffffffffffffffffffffffffffffff168373ffffffffffffffffffffffffffffffffffffffff167f17307eab39ab6107e8899845ad3d59bd9653f200f220920489ca2b5937696c3183604051611d65919061293c565b60405180910390a3505050565b611d7d8484846116a6565b611d89848484846121f7565b611dc8576040517f08c379a0000000000000000000000000000000000000000000000000000000008152600401611dbf906137d9565b60405180910390fd5b50505050565b606060405180602001604052806000815250905090565b6060611df0826112e8565b6000611dfa611dce565b90506000815111611e1a5760405180602001604052806000815250611e45565b80611e248461237e565b604051602001611e359291906134db565b6040516020818303038152906040525b915050919050565b60007f01ffc9a7000000000000000000000000000000000000000000000000000000007bffffffffffffffffffffffffffffffffffffffffffffffffffffffff1916827bffffffffffffffffffffffffffffffffffffffffffffffffffffffff1916149050919050565b60008073ffffffffffffffffffffffffffffffffffffffff16611ed983611bc9565b73ffffffffffffffffffffffffffffffffffffffff1614159050919050565b600181111561201857600073ffffffffffffffffffffffffffffffffffffffff168473ffffffffffffffffffffffffffffffffffffffff1614611f8c5780600360008673ffffffffffffffffffffffffffffffffffffffff1673ffffffffffffffffffffffffffffffffffffffff1681526020019081526020016000206000828254611f8491906137f9565b925050819055505b600073ffffffffffffffffffffffffffffffffffffffff168373ffffffffffffffffffffffffffffffffffffffff16146120175780600360008573ffffffffffffffffffffffffffffffffffffffff1673ffffffffffffffffffffffffffffffffffffffff168152602001908152602001600020600082825461200f91906130c2565b925050819055505b5b50505050565b50505050565b61202e8282610d7f565b6120a55761203b8161244c565b6120498360001c6020612479565b60405160200161205a9291906138c5565b6040516020818303038152906040526040517f08c379a000000000000000000000000000000000000000000000000000000000815260040161209c9190612a1b565b60405180910390fd5b5050565b60006120b482610c18565b90506120c4816000846001611ef8565b6120cd82610c18565b90506004600083815260200190815260200160002060006101000a81549073ffffffffffffffffffffffffffffffffffffffff02191690556001600360008373ffffffffffffffffffffffffffffffffffffffff1673ffffffffffffffffffffffffffffffffffffffff168152602001908152602001600020600082825403925050819055506002600083815260200190815260200160002060006101000a81549073ffffffffffffffffffffffffffffffffffffffff021916905581600073ffffffffffffffffffffffffffffffffffffffff168273ffffffffffffffffffffffffffffffffffffffff167fddf252ad1be2c89b69c2b068fc378daa952ba7f163c4a11628f55a4df523b3ef60405160405180910390a46121f381600084600161201e565b5050565b60006122188473ffffffffffffffffffffffffffffffffffffffff166126b5565b15612371578373ffffffffffffffffffffffffffffffffffffffff1663150b7a02612241611333565b8786866040518563ffffffff1660e01b81526004016122639493929190613954565b6020604051808303816000875af192505050801561229f57506040513d601f19601f8201168201806040525081019061229c91906139b5565b60015b612321573d80600081146122cf576040519150601f19603f3d011682016040523d82523d6000602084013e6122d4565b606091505b506000815103612319576040517f08c379a0000000000000000000000000000000000000000000000000000000008152600401612310906137d9565b60405180910390fd5b805181602001fd5b63150b7a0260e01b7bffffffffffffffffffffffffffffffffffffffffffffffffffffffff1916817bffffffffffffffffffffffffffffffffffffffffffffffffffffffff191614915050612376565b600190505b949350505050565b60606000600161238d846126d8565b01905060008167ffffffffffffffff8111156123ac576123ab612d21565b5b6040519080825280601f01601f1916602001820160405280156123de5781602001600182028036833780820191505090505b509050600082602001820190505b600115612441578080600190039150507f3031323334353637383961626364656600000000000000000000000000000000600a86061a8153600a8581612435576124346139e2565b5b049450600085036123ec575b819350505050919050565b60606124728273ffffffffffffffffffffffffffffffffffffffff16601460ff16612479565b9050919050565b60606000600283600261248c9190613a11565b61249691906130c2565b67ffffffffffffffff8111156124af576124ae612d21565b5b6040519080825280601f01601f1916602001820160405280156124e15781602001600182028036833780820191505090505b5090507f30000000000000000000000000000000000000000000000000000000000000008160008151811061251957612518613a53565b5b60200101907effffffffffffffffffffffffffffffffffffffffffffffffffffffffffffff1916908160001a9053507f78000000000000000000000000000000000000000000000000000000000000008160018151811061257d5761257c613a53565b5b60200101907effffffffffffffffffffffffffffffffffffffffffffffffffffffffffffff1916908160001a905350600060018460026125bd9190613a11565b6125c791906130c2565b90505b6001811115612667577f3031323334353637383961626364656600000000000000000000000000000000600f86166010811061260957612608613a53565b5b1a60f81b8282815181106126205761261f613a53565b5b60200101907effffffffffffffffffffffffffffffffffffffffffffffffffffffffffffff1916908160001a905350600485901c94508061266090613a82565b90506125ca565b50600084146126ab576040517f08c379a00000000000000000000000000000000000000000000000000000000081526004016126a290613af7565b60405180910390fd5b8091505092915050565b6000808273ffffffffffffffffffffffffffffffffffffffff163b119050919050565b600080600090507a184f03e93ff9f4daa797ed6e38ed64bf6a1f0100000000000000008310612736577a184f03e93ff9f4daa797ed6e38ed64bf6a1f010000000000000000838161272c5761272b6139e2565b5b0492506040810190505b6d04ee2d6d415b85acef81000000008310612773576d04ee2d6d415b85acef81000000008381612769576127686139e2565b5b0492506020810190505b662386f26fc1000083106127a257662386f26fc100008381612798576127976139e2565b5b0492506010810190505b6305f5e10083106127cb576305f5e10083816127c1576127c06139e2565b5b0492506008810190505b61271083106127f05761271083816127e6576127e56139e2565b5b0492506004810190505b606483106128135760648381612809576128086139e2565b5b0492506002810190505b600a8310612822576001810190505b80915050919050565b50805461283790612f3e565b6000825580601f106128495750612868565b601f016020900490600052602060002090810190612867919061286b565b5b50565b5b8082111561288457600081600090555060010161286c565b5090565b6000604051905090565b600080fd5b600080fd5b60007fffffffff0000000000000000000000000000000000000000000000000000000082169050919050565b6128d18161289c565b81146128dc57600080fd5b50565b6000813590506128ee816128c8565b92915050565b60006020828403121561290a57612909612892565b5b6000612918848285016128df565b91505092915050565b60008115159050919050565b61293681612921565b82525050565b6000602082019050612951600083018461292d565b92915050565b6000819050919050565b61296a81612957565b82525050565b60006020820190506129856000830184612961565b92915050565b600081519050919050565b600082825260208201905092915050565b60005b838110156129c55780820151818401526020810190506129aa565b60008484015250505050565b6000601f19601f8301169050919050565b60006129ed8261298b565b6129f78185612996565b9350612a078185602086016129a7565b612a10816129d1565b840191505092915050565b60006020820190508181036000830152612a3581846129e2565b905092915050565b612a4681612957565b8114612a5157600080fd5b50565b600081359050612a6381612a3d565b92915050565b600060208284031215612a7f57612a7e612892565b5b6000612a8d84828501612a54565b91505092915050565b600073ffffffffffffffffffffffffffffffffffffffff82169050919050565b6000612ac182612a96565b9050919050565b612ad181612ab6565b82525050565b6000602082019050612aec6000830184612ac8565b92915050565b612afb81612ab6565b8114612b0657600080fd5b50565b600081359050612b1881612af2565b92915050565b60008060408385031215612b3557612b34612892565b5b6000612b4385828601612b09565b9250506020612b5485828601612a54565b9150509250929050565b600080600060608486031215612b7757612b76612892565b5b6000612b8586828701612b09565b9350506020612b9686828701612b09565b9250506040612ba786828701612a54565b9150509250925092565b6000819050919050565b612bc481612bb1565b8114612bcf57600080fd5b50565b600081359050612be181612bbb565b92915050565b600060208284031215612bfd57612bfc612892565b5b6000612c0b84828501612bd2565b91505092915050565b612c1d81612bb1565b82525050565b6000602082019050612c386000830184612c14565b92915050565b60008060408385031215612c5557612c54612892565b5b6000612c6385828601612bd2565b9250506020612c7485828601612b09565b9150509250929050565b600060208284031215612c9457612c93612892565b5b6000612ca284828501612b09565b91505092915050565b612cb481612921565b8114612cbf57600080fd5b50565b600081359050612cd181612cab565b92915050565b60008060408385031215612cee57612ced612892565b5b6000612cfc85828601612b09565b9250506020612d0d85828601612cc2565b9150509250929050565b600080fd5b600080fd5b7f4e487b7100000000000000000000000000000000000000000000000000000000600052604160045260246000fd5b612d59826129d1565b810181811067ffffffffffffffff82111715612d7857612d77612d21565b5b80604052505050565b6000612d8b612888565b9050612d978282612d50565b919050565b600067ffffffffffffffff821115612db757612db6612d21565b5b612dc0826129d1565b9050602081019050919050565b82818337600083830152505050565b6000612def612dea84612d9c565b612d81565b905082815260208101848484011115612e0b57612e0a612d1c565b5b612e16848285612dcd565b509392505050565b600082601f830112612e3357612e32612d17565b5b8135612e43848260208601612ddc565b91505092915050565b60008060008060808587031215612e6657612e65612892565b5b6000612e7487828801612b09565b9450506020612e8587828801612b09565b9350506040612e9687828801612a54565b925050606085013567ffffffffffffffff811115612eb757612eb6612897565b5b612ec387828801612e1e565b91505092959194509250565b60008060408385031215612ee657612ee5612892565b5b6000612ef485828601612b09565b9250506020612f0585828601612b09565b9150509250929050565b7f4e487b7100000000000000000000000000000000000000000000000000000000600052602260045260246000fd5b60006002820490506001821680612f5657607f821691505b602082108103612f6957612f68612f0f565b5b50919050565b7f4552433732313a20617070726f76616c20746f2063757272656e74206f776e6560008201527f7200000000000000000000000000000000000000000000000000000000000000602082015250565b6000612fcb602183612996565b9150612fd682612f6f565b604082019050919050565b60006020820190508181036000830152612ffa81612fbe565b9050919050565b7f4552433732313a20617070726f76652063616c6c6572206973206e6f7420746f60008201527f6b656e206f776e6572206f7220617070726f76656420666f7220616c6c000000602082015250565b600061305d603d83612996565b915061306882613001565b604082019050919050565b6000602082019050818103600083015261308c81613050565b9050919050565b7f4e487b7100000000000000000000000000000000000000000000000000000000600052601160045260246000fd5b60006130cd82612957565b91506130d883612957565b92508282019050808211156130f0576130ef613093565b5b92915050565b600061310182612957565b91507fffffffffffffffffffffffffffffffffffffffffffffffffffffffffffffffff820361313357613132613093565b5b600182019050919050565b7f4552433732313a2063616c6c6572206973206e6f7420746f6b656e206f776e6560008201527f72206f7220617070726f76656400000000000000000000000000000000000000602082015250565b600061319a602d83612996565b91506131a58261313e565b604082019050919050565b600060208201905081810360008301526131c98161318d565b9050919050565b7f416363657373436f6e74726f6c3a2063616e206f6e6c792072656e6f756e636560008201527f20726f6c657320666f722073656c660000000000000000000000000000000000602082015250565b600061322c602f83612996565b9150613237826131d0565b604082019050919050565b6000602082019050818103600083015261325b8161321f565b9050919050565b7f4f6e6c7920617574686f72697a6564206d696e746572732063616e207769746860008201527f6472617700000000000000000000000000000000000000000000000000000000602082015250565b60006132be602483612996565b91506132c982613262565b604082019050919050565b600060208201905081810360008301526132ed816132b1565b9050919050565b60008151905061330381612a3d565b92915050565b60006020828403121561331f5761331e612892565b5b600061332d848285016132f4565b91505092915050565b600060408201905061334b6000830185612ac8565b6133586020830184612961565b9392505050565b60008151905061336e81612cab565b92915050565b60006020828403121561338a57613389612892565b5b60006133988482850161335f565b91505092915050565b7f4552433732313a20696e76616c696420746f6b656e2049440000000000000000600082015250565b60006133d7601883612996565b91506133e2826133a1565b602082019050919050565b60006020820190508181036000830152613406816133ca565b9050919050565b7f4552433732313a2061646472657373207a65726f206973206e6f74206120766160008201527f6c6964206f776e65720000000000000000000000000000000000000000000000602082015250565b6000613469602983612996565b91506134748261340d565b604082019050919050565b600060208201905081810360008301526134988161345c565b9050919050565b600081905092915050565b60006134b58261298b565b6134bf818561349f565b93506134cf8185602086016129a7565b80840191505092915050565b60006134e782856134aa565b91506134f382846134aa565b91508190509392505050565b7f4552433732313a206d696e7420746f20746865207a65726f2061646472657373600082015250565b6000613535602083612996565b9150613540826134ff565b602082019050919050565b6000602082019050818103600083015261356481613528565b9050919050565b7f4552433732313a20746f6b656e20616c7265616479206d696e74656400000000600082015250565b60006135a1601c83612996565b91506135ac8261356b565b602082019050919050565b600060208201905081810360008301526135d081613594565b9050919050565b7f4552433732313a207472616e736665722066726f6d20696e636f72726563742060008201527f6f776e6572000000000000000000000000000000000000000000000000000000602082015250565b6000613633602583612996565b915061363e826135d7565b604082019050919050565b6000602082019050818103600083015261366281613626565b9050919050565b7f4552433732313a207472616e7366657220746f20746865207a65726f2061646460008201527f7265737300000000000000000000000000000000000000000000000000000000602082015250565b60006136c5602483612996565b91506136d082613669565b604082019050919050565b600060208201905081810360008301526136f4816136b8565b9050919050565b7f4552433732313a20617070726f766520746f2063616c6c657200000000000000600082015250565b6000613731601983612996565b915061373c826136fb565b602082019050919050565b6000602082019050818103600083015261376081613724565b9050919050565b7f4552433732313a207472616e7366657220746f206e6f6e20455243373231526560008201527f63656976657220696d706c656d656e7465720000000000000000000000000000602082015250565b60006137c3603283612996565b91506137ce82613767565b604082019050919050565b600060208201905081810360008301526137f2816137b6565b9050919050565b600061380482612957565b915061380f83612957565b925082820390508181111561382757613826613093565b5b92915050565b7f416363657373436f6e74726f6c3a206163636f756e7420000000000000000000600082015250565b600061386360178361349f565b915061386e8261382d565b601782019050919050565b7f206973206d697373696e6720726f6c6520000000000000000000000000000000600082015250565b60006138af60118361349f565b91506138ba82613879565b601182019050919050565b60006138d082613856565b91506138dc82856134aa565b91506138e7826138a2565b91506138f382846134aa565b91508190509392505050565b600081519050919050565b600082825260208201905092915050565b6000613926826138ff565b613930818561390a565b93506139408185602086016129a7565b613949816129d1565b840191505092915050565b60006080820190506139696000830187612ac8565b6139766020830186612ac8565b6139836040830185612961565b8181036060830152613995818461391b565b905095945050505050565b6000815190506139af816128c8565b92915050565b6000602082840312156139cb576139ca612892565b5b60006139d9848285016139a0565b91505092915050565b7f4e487b7100000000000000000000000000000000000000000000000000000000600052601260045260246000fd5b6000613a1c82612957565b9150613a2783612957565b9250828202613a3581612957565b91508282048414831517613a4c57613a4b613093565b5b5092915050565b7f4e487b7100000000000000000000000000000000000000000000000000000000600052603260045260246000fd5b6000613a8d82612957565b915060008203613aa057613a9f613093565b5b600182039050919050565b7f537472696e67733a20686578206c656e67746820696e73756666696369656e74600082015250565b6000613ae1602083612996565b9150613aec82613aab565b602082019050919050565b60006020820190508181036000830152613b1081613ad4565b905091905056fea2646970667358221220e07cad6351b3c7f1c280003ba99bccd61000f98c62dc31e3b8b4c75e1e289f2764736f6c63430008110033",
  "linkReferences": {},
  "deployedLinkReferences": {}
}