{
  "_format": "hh-sol-artifact-1",
  "contractName": "BloodOfMolochClaimNFT",
  "sourceName": "contracts/BloodOfMolochClaimNFT.sol",
  "abi": [
    {
      "inputs": [
        {
          "internalType": "address payable",
          "name": "minter",
          "type": "address"
        }
      ],
      "stateMutability": "nonpayable",
      "type": "constructor"
    },
    {
      "anonymous": false,
      "inputs": [
        {
          "indexed": true,
          "internalType": "address",
          "name": "owner",
          "type": "address"
        },
        {
          "indexed": true,
          "internalType": "address",
          "name": "approved",
          "type": "address"
        },
        {
          "indexed": true,
          "internalType": "uint256",
          "name": "tokenId",
          "type": "uint256"
        }
      ],
      "name": "Approval",
      "type": "event"
    },
    {
      "anonymous": false,
      "inputs": [
        {
          "indexed": true,
          "internalType": "address",
          "name": "owner",
          "type": "address"
        },
        {
          "indexed": true,
          "internalType": "address",
          "name": "operator",
          "type": "address"
        },
        {
          "indexed": false,
          "internalType": "bool",
          "name": "approved",
          "type": "bool"
        }
      ],
      "name": "ApprovalForAll",
      "type": "event"
    },
    {
      "anonymous": false,
      "inputs": [
        {
          "indexed": false,
          "internalType": "uint256",
          "name": "tokenId",
          "type": "uint256"
        }
      ],
      "name": "MintedUsingSignature",
      "type": "event"
    },
    {
      "anonymous": false,
      "inputs": [
        {
          "indexed": true,
          "internalType": "bytes32",
          "name": "role",
          "type": "bytes32"
        },
        {
          "indexed": true,
          "internalType": "bytes32",
          "name": "previousAdminRole",
          "type": "bytes32"
        },
        {
          "indexed": true,
          "internalType": "bytes32",
          "name": "newAdminRole",
          "type": "bytes32"
        }
      ],
      "name": "RoleAdminChanged",
      "type": "event"
    },
    {
      "anonymous": false,
      "inputs": [
        {
          "indexed": true,
          "internalType": "bytes32",
          "name": "role",
          "type": "bytes32"
        },
        {
          "indexed": true,
          "internalType": "address",
          "name": "account",
          "type": "address"
        },
        {
          "indexed": true,
          "internalType": "address",
          "name": "sender",
          "type": "address"
        }
      ],
      "name": "RoleGranted",
      "type": "event"
    },
    {
      "anonymous": false,
      "inputs": [
        {
          "indexed": true,
          "internalType": "bytes32",
          "name": "role",
          "type": "bytes32"
        },
        {
          "indexed": true,
          "internalType": "address",
          "name": "account",
          "type": "address"
        },
        {
          "indexed": true,
          "internalType": "address",
          "name": "sender",
          "type": "address"
        }
      ],
      "name": "RoleRevoked",
      "type": "event"
    },
    {
      "anonymous": false,
      "inputs": [
        {
          "indexed": true,
          "internalType": "address",
          "name": "from",
          "type": "address"
        },
        {
          "indexed": true,
          "internalType": "address",
          "name": "to",
          "type": "address"
        },
        {
          "indexed": true,
          "internalType": "uint256",
          "name": "tokenId",
          "type": "uint256"
        }
      ],
      "name": "Transfer",
      "type": "event"
    },
    {
      "inputs": [],
      "name": "DEFAULT_ADMIN_ROLE",
      "outputs": [
        {
          "internalType": "bytes32",
          "name": "",
          "type": "bytes32"
        }
      ],
      "stateMutability": "view",
      "type": "function"
    },
    {
      "inputs": [],
      "name": "MINTER_ROLE",
      "outputs": [
        {
          "internalType": "bytes32",
          "name": "",
          "type": "bytes32"
        }
      ],
      "stateMutability": "view",
      "type": "function"
    },
    {
      "inputs": [
        {
          "internalType": "address",
          "name": "to",
          "type": "address"
        },
        {
          "internalType": "uint256",
          "name": "tokenId",
          "type": "uint256"
        }
      ],
      "name": "approve",
      "outputs": [],
      "stateMutability": "nonpayable",
      "type": "function"
    },
    {
      "inputs": [
        {
          "internalType": "address",
          "name": "owner",
          "type": "address"
        }
      ],
      "name": "balanceOf",
      "outputs": [
        {
          "internalType": "uint256",
          "name": "",
          "type": "uint256"
        }
      ],
      "stateMutability": "view",
      "type": "function"
    },
    {
      "inputs": [
        {
          "internalType": "uint256",
          "name": "tokenId",
          "type": "uint256"
        }
      ],
      "name": "burn",
      "outputs": [],
      "stateMutability": "nonpayable",
      "type": "function"
    },
    {
      "inputs": [
        {
          "internalType": "uint256",
          "name": "tokenId",
          "type": "uint256"
        }
      ],
      "name": "getApproved",
      "outputs": [
        {
          "internalType": "address",
          "name": "",
          "type": "address"
        }
      ],
      "stateMutability": "view",
      "type": "function"
    },
    {
      "inputs": [
        {
          "internalType": "bytes32",
          "name": "role",
          "type": "bytes32"
        }
      ],
      "name": "getRoleAdmin",
      "outputs": [
        {
          "internalType": "bytes32",
          "name": "",
          "type": "bytes32"
        }
      ],
      "stateMutability": "view",
      "type": "function"
    },
    {
      "inputs": [
        {
          "internalType": "bytes32",
          "name": "role",
          "type": "bytes32"
        },
        {
          "internalType": "address",
          "name": "account",
          "type": "address"
        }
      ],
      "name": "grantRole",
      "outputs": [],
      "stateMutability": "nonpayable",
      "type": "function"
    },
    {
      "inputs": [
        {
          "internalType": "bytes32",
          "name": "role",
          "type": "bytes32"
        },
        {
          "internalType": "address",
          "name": "account",
          "type": "address"
        }
      ],
      "name": "hasRole",
      "outputs": [
        {
          "internalType": "bool",
          "name": "",
          "type": "bool"
        }
      ],
      "stateMutability": "view",
      "type": "function"
    },
    {
      "inputs": [
        {
          "internalType": "address",
          "name": "owner",
          "type": "address"
        },
        {
          "internalType": "address",
          "name": "operator",
          "type": "address"
        }
      ],
      "name": "isApprovedForAll",
      "outputs": [
        {
          "internalType": "bool",
          "name": "",
          "type": "bool"
        }
      ],
      "stateMutability": "view",
      "type": "function"
    },
    {
      "inputs": [],
      "name": "name",
      "outputs": [
        {
          "internalType": "string",
          "name": "",
          "type": "string"
        }
      ],
      "stateMutability": "view",
      "type": "function"
    },
    {
      "inputs": [
        {
          "internalType": "uint256",
          "name": "tokenId",
          "type": "uint256"
        }
      ],
      "name": "ownerOf",
      "outputs": [
        {
          "internalType": "address",
          "name": "",
          "type": "address"
        }
      ],
      "stateMutability": "view",
      "type": "function"
    },
    {
      "inputs": [
        {
          "internalType": "address",
          "name": "redeemer",
          "type": "address"
        },
        {
          "components": [
            {
              "internalType": "uint256",
              "name": "tokenId",
              "type": "uint256"
            },
            {
              "internalType": "uint256",
              "name": "minPrice",
              "type": "uint256"
            },
            {
              "internalType": "string",
              "name": "uri",
              "type": "string"
            },
            {
              "internalType": "bytes",
              "name": "signature",
              "type": "bytes"
            }
          ],
          "internalType": "struct BloodOfMolochClaimNFT.NFTVoucher",
          "name": "voucher",
          "type": "tuple"
        }
      ],
      "name": "redeem",
      "outputs": [
        {
          "internalType": "uint256",
          "name": "",
          "type": "uint256"
        }
      ],
      "stateMutability": "payable",
      "type": "function"
    },
    {
      "inputs": [
        {
          "internalType": "bytes32",
          "name": "role",
          "type": "bytes32"
        },
        {
          "internalType": "address",
          "name": "account",
          "type": "address"
        }
      ],
      "name": "renounceRole",
      "outputs": [],
      "stateMutability": "nonpayable",
      "type": "function"
    },
    {
      "inputs": [
        {
          "internalType": "bytes32",
          "name": "role",
          "type": "bytes32"
        },
        {
          "internalType": "address",
          "name": "account",
          "type": "address"
        }
      ],
      "name": "revokeRole",
      "outputs": [],
      "stateMutability": "nonpayable",
      "type": "function"
    },
    {
      "inputs": [
        {
          "internalType": "address",
          "name": "from",
          "type": "address"
        },
        {
          "internalType": "address",
          "name": "to",
          "type": "address"
        },
        {
          "internalType": "uint256",
          "name": "tokenId",
          "type": "uint256"
        }
      ],
      "name": "safeTransferFrom",
      "outputs": [],
      "stateMutability": "nonpayable",
      "type": "function"
    },
    {
      "inputs": [
        {
          "internalType": "address",
          "name": "from",
          "type": "address"
        },
        {
          "internalType": "address",
          "name": "to",
          "type": "address"
        },
        {
          "internalType": "uint256",
          "name": "tokenId",
          "type": "uint256"
        },
        {
          "internalType": "bytes",
          "name": "data",
          "type": "bytes"
        }
      ],
      "name": "safeTransferFrom",
      "outputs": [],
      "stateMutability": "nonpayable",
      "type": "function"
    },
    {
      "inputs": [
        {
          "internalType": "address",
          "name": "operator",
          "type": "address"
        },
        {
          "internalType": "bool",
          "name": "approved",
          "type": "bool"
        }
      ],
      "name": "setApprovalForAll",
      "outputs": [],
      "stateMutability": "nonpayable",
      "type": "function"
    },
    {
      "inputs": [
        {
          "internalType": "bytes4",
          "name": "interfaceId",
          "type": "bytes4"
        }
      ],
      "name": "supportsInterface",
      "outputs": [
        {
          "internalType": "bool",
          "name": "",
          "type": "bool"
        }
      ],
      "stateMutability": "view",
      "type": "function"
    },
    {
      "inputs": [],
      "name": "symbol",
      "outputs": [
        {
          "internalType": "string",
          "name": "",
          "type": "string"
        }
      ],
      "stateMutability": "view",
      "type": "function"
    },
    {
      "inputs": [
        {
          "internalType": "uint256",
          "name": "tokenId",
          "type": "uint256"
        }
      ],
      "name": "tokenURI",
      "outputs": [
        {
          "internalType": "string",
          "name": "",
          "type": "string"
        }
      ],
      "stateMutability": "view",
      "type": "function"
    },
    {
      "inputs": [
        {
          "internalType": "address",
          "name": "from",
          "type": "address"
        },
        {
          "internalType": "address",
          "name": "to",
          "type": "address"
        },
        {
          "internalType": "uint256",
          "name": "tokenId",
          "type": "uint256"
        }
      ],
      "name": "transferFrom",
      "outputs": [],
      "stateMutability": "nonpayable",
      "type": "function"
    }
  ],
  "bytecode": "0x6101406040523480156200001257600080fd5b506040516200512338038062005123833981810160405281019062000038919062000442565b6040518060400160405280601a81526020017f426c6f6f644f664d6f6c6f6368436c61696d2d766f75636865720000000000008152506040518060400160405280600181526020017f31000000000000000000000000000000000000000000000000000000000000008152506040518060400160405280601581526020017f426c6f6f64206f66204d6f6c6f636820436c61696d00000000000000000000008152506040518060400160405280600481526020017f424c4d43000000000000000000000000000000000000000000000000000000008152508160009081620001219190620006ee565b508060019081620001339190620006ee565b50505060008280519060200120905060008280519060200120905060007f8b73c3c69bb8fe3d512ecc4cf759cc79239f7b179b0ffacaa9a75d522b39400f90508260e081815250508161010081815250504660a081815250506200019f8184846200022160201b60201c565b608081815250503073ffffffffffffffffffffffffffffffffffffffff1660c08173ffffffffffffffffffffffffffffffffffffffff168152505080610120818152505050505050506200021a7f9f2df0fed2c77648de5860a4cc508cd0818c85b8b8a1ab4ceeef8d981c8956a6826200025d60201b60201c565b5062000883565b600083838346306040516020016200023e95949392919062000826565b6040516020818303038152906040528051906020012090509392505050565b6200026f82826200027360201b60201c565b5050565b6200028582826200036560201b60201c565b620003615760016007600084815260200190815260200160002060000160008373ffffffffffffffffffffffffffffffffffffffff1673ffffffffffffffffffffffffffffffffffffffff16815260200190815260200160002060006101000a81548160ff02191690831515021790555062000306620003d060201b60201c565b73ffffffffffffffffffffffffffffffffffffffff168173ffffffffffffffffffffffffffffffffffffffff16837f2f8788117e7eff1d82e926ec794901d17c78024a50270940304540a733656f0d60405160405180910390a45b5050565b60006007600084815260200190815260200160002060000160008373ffffffffffffffffffffffffffffffffffffffff1673ffffffffffffffffffffffffffffffffffffffff16815260200190815260200160002060009054906101000a900460ff16905092915050565b600033905090565b600080fd5b600073ffffffffffffffffffffffffffffffffffffffff82169050919050565b60006200040a82620003dd565b9050919050565b6200041c81620003fd565b81146200042857600080fd5b50565b6000815190506200043c8162000411565b92915050565b6000602082840312156200045b576200045a620003d8565b5b60006200046b848285016200042b565b91505092915050565b600081519050919050565b7f4e487b7100000000000000000000000000000000000000000000000000000000600052604160045260246000fd5b7f4e487b7100000000000000000000000000000000000000000000000000000000600052602260045260246000fd5b60006002820490506001821680620004f657607f821691505b6020821081036200050c576200050b620004ae565b5b50919050565b60008190508160005260206000209050919050565b60006020601f8301049050919050565b600082821b905092915050565b600060088302620005767fffffffffffffffffffffffffffffffffffffffffffffffffffffffffffffffff8262000537565b62000582868362000537565b95508019841693508086168417925050509392505050565b6000819050919050565b6000819050919050565b6000620005cf620005c9620005c3846200059a565b620005a4565b6200059a565b9050919050565b6000819050919050565b620005eb83620005ae565b62000603620005fa82620005d6565b84845462000544565b825550505050565b600090565b6200061a6200060b565b62000627818484620005e0565b505050565b5b818110156200064f576200064360008262000610565b6001810190506200062d565b5050565b601f8211156200069e57620006688162000512565b620006738462000527565b8101602085101562000683578190505b6200069b620006928562000527565b8301826200062c565b50505b505050565b600082821c905092915050565b6000620006c360001984600802620006a3565b1980831691505092915050565b6000620006de8383620006b0565b9150826002028217905092915050565b620006f98262000474565b67ffffffffffffffff8111156200071557620007146200047f565b5b620007218254620004dd565b6200072e82828562000653565b600060209050601f83116001811462000766576000841562000751578287015190505b6200075d8582620006d0565b865550620007cd565b601f198416620007768662000512565b60005b82811015620007a05784890151825560018201915060208501945060208101905062000779565b86831015620007c05784890151620007bc601f891682620006b0565b8355505b6001600288020188555050505b505050505050565b6000819050919050565b620007ea81620007d5565b82525050565b620007fb816200059a565b82525050565b60006200080e82620003dd565b9050919050565b620008208162000801565b82525050565b600060a0820190506200083d6000830188620007df565b6200084c6020830187620007df565b6200085b6040830186620007df565b6200086a6060830185620007f0565b62000879608083018462000815565b9695505050505050565b60805160a05160c05160e0516101005161012051614850620008d36000396000612b1a01526000612b5c01526000612b3b01526000612a7001526000612ac601526000612aef01526148506000f3fe6080604052600436106101355760003560e01c80636352211e116100ab578063a22cb4651161006f578063a22cb4651461044f578063b88d4fde14610478578063c87b56dd146104a1578063d5391393146104de578063d547741f14610509578063e985e9c51461053257610135565b80636352211e1461034257806370a082311461037f57806391d14854146103bc57806395d89b41146103f9578063a217fddf1461042457610135565b806323b872dd116100fd57806323b872dd14610238578063248a9ca3146102615780632f2ff15d1461029e57806336568abe146102c757806342842e0e146102f057806342966c681461031957610135565b806301ffc9a71461013a57806306fdde0314610177578063081812fc146101a257806308708a78146101df578063095ea7b31461020f575b600080fd5b34801561014657600080fd5b50610161600480360381019061015c9190612d9e565b61056f565b60405161016e9190612de6565b60405180910390f35b34801561018357600080fd5b5061018c610591565b6040516101999190612e91565b60405180910390f35b3480156101ae57600080fd5b506101c960048036038101906101c49190612ee9565b610623565b6040516101d69190612f57565b60405180910390f35b6101f960048036038101906101f49190612fc2565b610669565b604051610206919061302d565b60405180910390f35b34801561021b57600080fd5b5061023660048036038101906102319190613048565b610910565b005b34801561024457600080fd5b5061025f600480360381019061025a9190613088565b610a27565b005b34801561026d57600080fd5b5061028860048036038101906102839190613111565b610a87565b604051610295919061314d565b60405180910390f35b3480156102aa57600080fd5b506102c560048036038101906102c09190613168565b610aa7565b005b3480156102d357600080fd5b506102ee60048036038101906102e99190613168565b610ac8565b005b3480156102fc57600080fd5b5061031760048036038101906103129190613088565b610b4b565b005b34801561032557600080fd5b50610340600480360381019061033b9190612ee9565b610b6b565b005b34801561034e57600080fd5b5061036960048036038101906103649190612ee9565b610bc7565b6040516103769190612f57565b60405180910390f35b34801561038b57600080fd5b506103a660048036038101906103a191906131a8565b610c4d565b6040516103b3919061302d565b60405180910390f35b3480156103c857600080fd5b506103e360048036038101906103de9190613168565b610d04565b6040516103f09190612de6565b60405180910390f35b34801561040557600080fd5b5061040e610d6f565b60405161041b9190612e91565b60405180910390f35b34801561043057600080fd5b50610439610e01565b604051610446919061314d565b60405180910390f35b34801561045b57600080fd5b5061047660048036038101906104719190613201565b610e08565b005b34801561048457600080fd5b5061049f600480360381019061049a9190613376565b610e1e565b005b3480156104ad57600080fd5b506104c860048036038101906104c39190612ee9565b610e80565b6040516104d59190612e91565b60405180910390f35b3480156104ea57600080fd5b506104f3610f92565b604051610500919061314d565b60405180910390f35b34801561051557600080fd5b50610530600480360381019061052b9190613168565b610fb6565b005b34801561053e57600080fd5b50610559600480360381019061055491906133f9565b610fd7565b6040516105669190612de6565b60405180910390f35b600061057a8261106b565b8061058a57506105898261114d565b5b9050919050565b6060600080546105a090613468565b80601f01602080910402602001604051908101604052809291908181526020018280546105cc90613468565b80156106195780601f106105ee57610100808354040283529160200191610619565b820191906000526020600020905b8154815290600101906020018083116105fc57829003601f168201915b5050505050905090565b600061062e826111c7565b6004600083815260200190815260200160002060009054906101000a900473ffffffffffffffffffffffffffffffffffffffff169050919050565b60008061067583611212565b905060008360000135905061015e81106106c4576040517f08c379a00000000000000000000000000000000000000000000000000000000081526004016106bb906134e5565b60405180910390fd5b600015156009600083815260200190815260200160002060009054906101000a900460ff1615151461072b576040517f08c379a000000000000000000000000000000000000000000000000000000000815260040161072290613577565b60405180910390fd5b6107557f9f2df0fed2c77648de5860a4cc508cd0818c85b8b8a1ab4ceeef8d981c8956a683610d04565b610794576040517f08c379a000000000000000000000000000000000000000000000000000000000815260040161078b90613609565b60405180910390fd5b83602001353410156107db576040517f08c379a00000000000000000000000000000000000000000000000000000000081526004016107d290613675565b60405180910390fd5b6107e58282611284565b610841818580604001906107f991906136a4565b8080601f016020809104026020016040519081016040528093929190818152602001838380828437600081840152601f19601f820116905080830192505050505050506114a1565b61084c82868361150e565b34600860008473ffffffffffffffffffffffffffffffffffffffff1673ffffffffffffffffffffffffffffffffffffffff168152602001908152602001600020600082825461089b9190613736565b9250508190555060016009600083815260200190815260200160002060006101000a81548160ff0219169083151502179055507fb8b9d0f8c5b19485e3733b6dfc9cbfe92c2dd7dae31f89ede3f12ad8c1c6dfc6816040516108fd919061302d565b60405180910390a1809250505092915050565b600061091b82610bc7565b90508073ffffffffffffffffffffffffffffffffffffffff168373ffffffffffffffffffffffffffffffffffffffff160361098b576040517f08c379a0000000000000000000000000000000000000000000000000000000008152600401610982906137dc565b60405180910390fd5b8073ffffffffffffffffffffffffffffffffffffffff166109aa611807565b73ffffffffffffffffffffffffffffffffffffffff1614806109d957506109d8816109d3611807565b610fd7565b5b610a18576040517f08c379a0000000000000000000000000000000000000000000000000000000008152600401610a0f9061386e565b60405180910390fd5b610a22838361180f565b505050565b610a38610a32611807565b826118c8565b610a77576040517f08c379a0000000000000000000000000000000000000000000000000000000008152600401610a6e90613900565b60405180910390fd5b610a8283838361150e565b505050565b600060076000838152602001908152602001600020600101549050919050565b610ab082610a87565b610ab98161195d565b610ac38383611971565b505050565b610ad0611807565b73ffffffffffffffffffffffffffffffffffffffff168173ffffffffffffffffffffffffffffffffffffffff1614610b3d576040517f08c379a0000000000000000000000000000000000000000000000000000000008152600401610b3490613992565b60405180910390fd5b610b478282611a52565b5050565b610b6683838360405180602001604052806000815250610e1e565b505050565b610b7c610b76611807565b826118c8565b610bbb576040517f08c379a0000000000000000000000000000000000000000000000000000000008152600401610bb290613900565b60405180910390fd5b610bc481611b34565b50565b600080610bd383611b87565b9050600073ffffffffffffffffffffffffffffffffffffffff168173ffffffffffffffffffffffffffffffffffffffff1603610c44576040517f08c379a0000000000000000000000000000000000000000000000000000000008152600401610c3b906139fe565b60405180910390fd5b80915050919050565b60008073ffffffffffffffffffffffffffffffffffffffff168273ffffffffffffffffffffffffffffffffffffffff1603610cbd576040517f08c379a0000000000000000000000000000000000000000000000000000000008152600401610cb490613a90565b60405180910390fd5b600360008373ffffffffffffffffffffffffffffffffffffffff1673ffffffffffffffffffffffffffffffffffffffff168152602001908152602001600020549050919050565b60006007600084815260200190815260200160002060000160008373ffffffffffffffffffffffffffffffffffffffff1673ffffffffffffffffffffffffffffffffffffffff16815260200190815260200160002060009054906101000a900460ff16905092915050565b606060018054610d7e90613468565b80601f0160208091040260200160405190810160405280929190818152602001828054610daa90613468565b8015610df75780601f10610dcc57610100808354040283529160200191610df7565b820191906000526020600020905b815481529060010190602001808311610dda57829003601f168201915b5050505050905090565b6000801b81565b610e1a610e13611807565b8383611bc4565b5050565b610e2f610e29611807565b836118c8565b610e6e576040517f08c379a0000000000000000000000000000000000000000000000000000000008152600401610e6590613900565b60405180910390fd5b610e7a84848484611d30565b50505050565b6060610e8b826111c7565b6000600660008481526020019081526020016000208054610eab90613468565b80601f0160208091040260200160405190810160405280929190818152602001828054610ed790613468565b8015610f245780601f10610ef957610100808354040283529160200191610f24565b820191906000526020600020905b815481529060010190602001808311610f0757829003601f168201915b505050505090506000610f35611d8c565b90506000815103610f4a578192505050610f8d565b600082511115610f7f578082604051602001610f67929190613aec565b60405160208183030381529060405292505050610f8d565b610f8884611da3565b925050505b919050565b7f9f2df0fed2c77648de5860a4cc508cd0818c85b8b8a1ab4ceeef8d981c8956a681565b610fbf82610a87565b610fc88161195d565b610fd28383611a52565b505050565b6000600560008473ffffffffffffffffffffffffffffffffffffffff1673ffffffffffffffffffffffffffffffffffffffff16815260200190815260200160002060008373ffffffffffffffffffffffffffffffffffffffff1673ffffffffffffffffffffffffffffffffffffffff16815260200190815260200160002060009054906101000a900460ff16905092915050565b60007f80ac58cd000000000000000000000000000000000000000000000000000000007bffffffffffffffffffffffffffffffffffffffffffffffffffffffff1916827bffffffffffffffffffffffffffffffffffffffffffffffffffffffff1916148061113657507f5b5e139f000000000000000000000000000000000000000000000000000000007bffffffffffffffffffffffffffffffffffffffffffffffffffffffff1916827bffffffffffffffffffffffffffffffffffffffffffffffffffffffff1916145b80611146575061114582611e0b565b5b9050919050565b60007f7965db0b000000000000000000000000000000000000000000000000000000007bffffffffffffffffffffffffffffffffffffffffffffffffffffffff1916827bffffffffffffffffffffffffffffffffffffffffffffffffffffffff191614806111c057506111bf8261106b565b5b9050919050565b6111d081611e75565b61120f576040517f08c379a0000000000000000000000000000000000000000000000000000000008152600401611206906139fe565b60405180910390fd5b50565b60008061121e83611eb6565b905061127c818480606001906112349190613b10565b8080601f016020809104026020016040519081016040528093929190818152602001838380828437600081840152601f19601f82011690508083019250505050505050611f41565b915050919050565b600073ffffffffffffffffffffffffffffffffffffffff168273ffffffffffffffffffffffffffffffffffffffff16036112f3576040517f08c379a00000000000000000000000000000000000000000000000000000000081526004016112ea90613bbf565b60405180910390fd5b6112fc81611e75565b1561133c576040517f08c379a000000000000000000000000000000000000000000000000000000000815260040161133390613c2b565b60405180910390fd5b61134a600083836001611f68565b61135381611e75565b15611393576040517f08c379a000000000000000000000000000000000000000000000000000000000815260040161138a90613c2b565b60405180910390fd5b6001600360008473ffffffffffffffffffffffffffffffffffffffff1673ffffffffffffffffffffffffffffffffffffffff16815260200190815260200160002060008282540192505081905550816002600083815260200190815260200160002060006101000a81548173ffffffffffffffffffffffffffffffffffffffff021916908373ffffffffffffffffffffffffffffffffffffffff160217905550808273ffffffffffffffffffffffffffffffffffffffff16600073ffffffffffffffffffffffffffffffffffffffff167fddf252ad1be2c89b69c2b068fc378daa952ba7f163c4a11628f55a4df523b3ef60405160405180910390a461149d60008383600161208e565b5050565b6114aa82611e75565b6114e9576040517f08c379a00000000000000000000000000000000000000000000000000000000081526004016114e090613cbd565b60405180910390fd5b806006600084815260200190815260200160002090816115099190613e89565b505050565b8273ffffffffffffffffffffffffffffffffffffffff1661152e82610bc7565b73ffffffffffffffffffffffffffffffffffffffff1614611584576040517f08c379a000000000000000000000000000000000000000000000000000000000815260040161157b90613fcd565b60405180910390fd5b600073ffffffffffffffffffffffffffffffffffffffff168273ffffffffffffffffffffffffffffffffffffffff16036115f3576040517f08c379a00000000000000000000000000000000000000000000000000000000081526004016115ea9061405f565b60405180910390fd5b6116008383836001611f68565b8273ffffffffffffffffffffffffffffffffffffffff1661162082610bc7565b73ffffffffffffffffffffffffffffffffffffffff1614611676576040517f08c379a000000000000000000000000000000000000000000000000000000000815260040161166d90613fcd565b60405180910390fd5b6004600082815260200190815260200160002060006101000a81549073ffffffffffffffffffffffffffffffffffffffff02191690556001600360008573ffffffffffffffffffffffffffffffffffffffff1673ffffffffffffffffffffffffffffffffffffffff168152602001908152602001600020600082825403925050819055506001600360008473ffffffffffffffffffffffffffffffffffffffff1673ffffffffffffffffffffffffffffffffffffffff16815260200190815260200160002060008282540192505081905550816002600083815260200190815260200160002060006101000a81548173ffffffffffffffffffffffffffffffffffffffff021916908373ffffffffffffffffffffffffffffffffffffffff160217905550808273ffffffffffffffffffffffffffffffffffffffff168473ffffffffffffffffffffffffffffffffffffffff167fddf252ad1be2c89b69c2b068fc378daa952ba7f163c4a11628f55a4df523b3ef60405160405180910390a4611802838383600161208e565b505050565b600033905090565b816004600083815260200190815260200160002060006101000a81548173ffffffffffffffffffffffffffffffffffffffff021916908373ffffffffffffffffffffffffffffffffffffffff160217905550808273ffffffffffffffffffffffffffffffffffffffff1661188283610bc7565b73ffffffffffffffffffffffffffffffffffffffff167f8c5be1e5ebec7d5bd14f71427d1e84f3dd0314c0f7b2291e5b200ac8c7c3b92560405160405180910390a45050565b6000806118d483610bc7565b90508073ffffffffffffffffffffffffffffffffffffffff168473ffffffffffffffffffffffffffffffffffffffff16148061191657506119158185610fd7565b5b8061195457508373ffffffffffffffffffffffffffffffffffffffff1661193c84610623565b73ffffffffffffffffffffffffffffffffffffffff16145b91505092915050565b61196e81611969611807565b612094565b50565b61197b8282610d04565b611a4e5760016007600084815260200190815260200160002060000160008373ffffffffffffffffffffffffffffffffffffffff1673ffffffffffffffffffffffffffffffffffffffff16815260200190815260200160002060006101000a81548160ff0219169083151502179055506119f3611807565b73ffffffffffffffffffffffffffffffffffffffff168173ffffffffffffffffffffffffffffffffffffffff16837f2f8788117e7eff1d82e926ec794901d17c78024a50270940304540a733656f0d60405160405180910390a45b5050565b611a5c8282610d04565b15611b305760006007600084815260200190815260200160002060000160008373ffffffffffffffffffffffffffffffffffffffff1673ffffffffffffffffffffffffffffffffffffffff16815260200190815260200160002060006101000a81548160ff021916908315150217905550611ad5611807565b73ffffffffffffffffffffffffffffffffffffffff168173ffffffffffffffffffffffffffffffffffffffff16837ff6391f5c32d9c69d2a47ea670b442974b53935d1edc7fd64eb21e047a839171b60405160405180910390a45b5050565b611b3d81612119565b6000600660008381526020019081526020016000208054611b5d90613468565b905014611b8457600660008281526020019081526020016000206000611b839190612cd5565b5b50565b60006002600083815260200190815260200160002060009054906101000a900473ffffffffffffffffffffffffffffffffffffffff169050919050565b8173ffffffffffffffffffffffffffffffffffffffff168373ffffffffffffffffffffffffffffffffffffffff1603611c32576040517f08c379a0000000000000000000000000000000000000000000000000000000008152600401611c29906140cb565b60405180910390fd5b80600560008573ffffffffffffffffffffffffffffffffffffffff1673ffffffffffffffffffffffffffffffffffffffff16815260200190815260200160002060008473ffffffffffffffffffffffffffffffffffffffff1673ffffffffffffffffffffffffffffffffffffffff16815260200190815260200160002060006101000a81548160ff0219169083151502179055508173ffffffffffffffffffffffffffffffffffffffff168373ffffffffffffffffffffffffffffffffffffffff167f17307eab39ab6107e8899845ad3d59bd9653f200f220920489ca2b5937696c3183604051611d239190612de6565b60405180910390a3505050565b611d3b84848461150e565b611d4784848484612267565b611d86576040517f08c379a0000000000000000000000000000000000000000000000000000000008152600401611d7d9061415d565b60405180910390fd5b50505050565b606060405180602001604052806000815250905090565b6060611dae826111c7565b6000611db8611d8c565b90506000815111611dd85760405180602001604052806000815250611e03565b80611de2846123ee565b604051602001611df3929190613aec565b6040516020818303038152906040525b915050919050565b60007f01ffc9a7000000000000000000000000000000000000000000000000000000007bffffffffffffffffffffffffffffffffffffffffffffffffffffffff1916827bffffffffffffffffffffffffffffffffffffffffffffffffffffffff1916149050919050565b60008073ffffffffffffffffffffffffffffffffffffffff16611e9783611b87565b73ffffffffffffffffffffffffffffffffffffffff1614159050919050565b6000611f3a7f6316f9ddd4d59a364f3b95c26bab9d392c3380ace0fff15e91ed76f0d8bcd15a83600001358460200135858060400190611ef691906136a4565b604051611f049291906141ad565b6040518091039020604051602001611f1f94939291906141c6565b604051602081830303815290604052805190602001206124bc565b9050919050565b6000806000611f5085856124d6565b91509150611f5d81612527565b819250505092915050565b600181111561208857600073ffffffffffffffffffffffffffffffffffffffff168473ffffffffffffffffffffffffffffffffffffffff1614611ffc5780600360008673ffffffffffffffffffffffffffffffffffffffff1673ffffffffffffffffffffffffffffffffffffffff1681526020019081526020016000206000828254611ff4919061420b565b925050819055505b600073ffffffffffffffffffffffffffffffffffffffff168373ffffffffffffffffffffffffffffffffffffffff16146120875780600360008573ffffffffffffffffffffffffffffffffffffffff1673ffffffffffffffffffffffffffffffffffffffff168152602001908152602001600020600082825461207f9190613736565b925050819055505b5b50505050565b50505050565b61209e8282610d04565b612115576120ab8161268d565b6120b98360001c60206126ba565b6040516020016120ca9291906142d7565b6040516020818303038152906040526040517f08c379a000000000000000000000000000000000000000000000000000000000815260040161210c9190612e91565b60405180910390fd5b5050565b600061212482610bc7565b9050612134816000846001611f68565b61213d82610bc7565b90506004600083815260200190815260200160002060006101000a81549073ffffffffffffffffffffffffffffffffffffffff02191690556001600360008373ffffffffffffffffffffffffffffffffffffffff1673ffffffffffffffffffffffffffffffffffffffff168152602001908152602001600020600082825403925050819055506002600083815260200190815260200160002060006101000a81549073ffffffffffffffffffffffffffffffffffffffff021916905581600073ffffffffffffffffffffffffffffffffffffffff168273ffffffffffffffffffffffffffffffffffffffff167fddf252ad1be2c89b69c2b068fc378daa952ba7f163c4a11628f55a4df523b3ef60405160405180910390a461226381600084600161208e565b5050565b60006122888473ffffffffffffffffffffffffffffffffffffffff166128f6565b156123e1578373ffffffffffffffffffffffffffffffffffffffff1663150b7a026122b1611807565b8786866040518563ffffffff1660e01b81526004016122d39493929190614366565b6020604051808303816000875af192505050801561230f57506040513d601f19601f8201168201806040525081019061230c91906143c7565b60015b612391573d806000811461233f576040519150601f19603f3d011682016040523d82523d6000602084013e612344565b606091505b506000815103612389576040517f08c379a00000000000000000000000000000000000000000000000000000000081526004016123809061415d565b60405180910390fd5b805181602001fd5b63150b7a0260e01b7bffffffffffffffffffffffffffffffffffffffffffffffffffffffff1916817bffffffffffffffffffffffffffffffffffffffffffffffffffffffff1916149150506123e6565b600190505b949350505050565b6060600060016123fd84612919565b01905060008167ffffffffffffffff81111561241c5761241b61324b565b5b6040519080825280601f01601f19166020018201604052801561244e5781602001600182028036833780820191505090505b509050600082602001820190505b6001156124b1578080600190039150507f3031323334353637383961626364656600000000000000000000000000000000600a86061a8153600a85816124a5576124a46143f4565b5b0494506000850361245c575b819350505050919050565b60006124cf6124c9612a6c565b83612b86565b9050919050565b60008060418351036125175760008060006020860151925060408601519150606086015160001a905061250b87828585612bb9565b94509450505050612520565b60006002915091505b9250929050565b6000600481111561253b5761253a614423565b5b81600481111561254e5761254d614423565b5b031561268a576001600481111561256857612567614423565b5b81600481111561257b5761257a614423565b5b036125bb576040517f08c379a00000000000000000000000000000000000000000000000000000000081526004016125b29061449e565b60405180910390fd5b600260048111156125cf576125ce614423565b5b8160048111156125e2576125e1614423565b5b03612622576040517f08c379a00000000000000000000000000000000000000000000000000000000081526004016126199061450a565b60405180910390fd5b6003600481111561263657612635614423565b5b81600481111561264957612648614423565b5b03612689576040517f08c379a00000000000000000000000000000000000000000000000000000000081526004016126809061459c565b60405180910390fd5b5b50565b60606126b38273ffffffffffffffffffffffffffffffffffffffff16601460ff166126ba565b9050919050565b6060600060028360026126cd91906145bc565b6126d79190613736565b67ffffffffffffffff8111156126f0576126ef61324b565b5b6040519080825280601f01601f1916602001820160405280156127225781602001600182028036833780820191505090505b5090507f30000000000000000000000000000000000000000000000000000000000000008160008151811061275a576127596145fe565b5b60200101907effffffffffffffffffffffffffffffffffffffffffffffffffffffffffffff1916908160001a9053507f7800000000000000000000000000000000000000000000000000000000000000816001815181106127be576127bd6145fe565b5b60200101907effffffffffffffffffffffffffffffffffffffffffffffffffffffffffffff1916908160001a905350600060018460026127fe91906145bc565b6128089190613736565b90505b60018111156128a8577f3031323334353637383961626364656600000000000000000000000000000000600f86166010811061284a576128496145fe565b5b1a60f81b828281518110612861576128606145fe565b5b60200101907effffffffffffffffffffffffffffffffffffffffffffffffffffffffffffff1916908160001a905350600485901c9450806128a19061462d565b905061280b565b50600084146128ec576040517f08c379a00000000000000000000000000000000000000000000000000000000081526004016128e3906146a2565b60405180910390fd5b8091505092915050565b6000808273ffffffffffffffffffffffffffffffffffffffff163b119050919050565b600080600090507a184f03e93ff9f4daa797ed6e38ed64bf6a1f0100000000000000008310612977577a184f03e93ff9f4daa797ed6e38ed64bf6a1f010000000000000000838161296d5761296c6143f4565b5b0492506040810190505b6d04ee2d6d415b85acef810000000083106129b4576d04ee2d6d415b85acef810000000083816129aa576129a96143f4565b5b0492506020810190505b662386f26fc1000083106129e357662386f26fc1000083816129d9576129d86143f4565b5b0492506010810190505b6305f5e1008310612a0c576305f5e1008381612a0257612a016143f4565b5b0492506008810190505b6127108310612a31576127108381612a2757612a266143f4565b5b0492506004810190505b60648310612a545760648381612a4a57612a496143f4565b5b0492506002810190505b600a8310612a63576001810190505b80915050919050565b60007f000000000000000000000000000000000000000000000000000000000000000073ffffffffffffffffffffffffffffffffffffffff163073ffffffffffffffffffffffffffffffffffffffff16148015612ae857507f000000000000000000000000000000000000000000000000000000000000000046145b15612b15577f00000000000000000000000000000000000000000000000000000000000000009050612b83565b612b807f00000000000000000000000000000000000000000000000000000000000000007f00000000000000000000000000000000000000000000000000000000000000007f0000000000000000000000000000000000000000000000000000000000000000612c9b565b90505b90565b60008282604051602001612b9b92919061472f565b60405160208183030381529060405280519060200120905092915050565b6000807f7fffffffffffffffffffffffffffffff5d576e7357a4501ddfe92f46681b20a08360001c1115612bf4576000600391509150612c92565b600060018787878760405160008152602001604052604051612c199493929190614782565b6020604051602081039080840390855afa158015612c3b573d6000803e3d6000fd5b505050602060405103519050600073ffffffffffffffffffffffffffffffffffffffff168173ffffffffffffffffffffffffffffffffffffffff1603612c8957600060019250925050612c92565b80600092509250505b94509492505050565b60008383834630604051602001612cb69594939291906147c7565b6040516020818303038152906040528051906020012090509392505050565b508054612ce190613468565b6000825580601f10612cf35750612d12565b601f016020900490600052602060002090810190612d119190612d15565b5b50565b5b80821115612d2e576000816000905550600101612d16565b5090565b6000604051905090565b600080fd5b600080fd5b60007fffffffff0000000000000000000000000000000000000000000000000000000082169050919050565b612d7b81612d46565b8114612d8657600080fd5b50565b600081359050612d9881612d72565b92915050565b600060208284031215612db457612db3612d3c565b5b6000612dc284828501612d89565b91505092915050565b60008115159050919050565b612de081612dcb565b82525050565b6000602082019050612dfb6000830184612dd7565b92915050565b600081519050919050565b600082825260208201905092915050565b60005b83811015612e3b578082015181840152602081019050612e20565b60008484015250505050565b6000601f19601f8301169050919050565b6000612e6382612e01565b612e6d8185612e0c565b9350612e7d818560208601612e1d565b612e8681612e47565b840191505092915050565b60006020820190508181036000830152612eab8184612e58565b905092915050565b6000819050919050565b612ec681612eb3565b8114612ed157600080fd5b50565b600081359050612ee381612ebd565b92915050565b600060208284031215612eff57612efe612d3c565b5b6000612f0d84828501612ed4565b91505092915050565b600073ffffffffffffffffffffffffffffffffffffffff82169050919050565b6000612f4182612f16565b9050919050565b612f5181612f36565b82525050565b6000602082019050612f6c6000830184612f48565b92915050565b612f7b81612f36565b8114612f8657600080fd5b50565b600081359050612f9881612f72565b92915050565b600080fd5b600060808284031215612fb957612fb8612f9e565b5b81905092915050565b60008060408385031215612fd957612fd8612d3c565b5b6000612fe785828601612f89565b925050602083013567ffffffffffffffff81111561300857613007612d41565b5b61301485828601612fa3565b9150509250929050565b61302781612eb3565b82525050565b6000602082019050613042600083018461301e565b92915050565b6000806040838503121561305f5761305e612d3c565b5b600061306d85828601612f89565b925050602061307e85828601612ed4565b9150509250929050565b6000806000606084860312156130a1576130a0612d3c565b5b60006130af86828701612f89565b93505060206130c086828701612f89565b92505060406130d186828701612ed4565b9150509250925092565b6000819050919050565b6130ee816130db565b81146130f957600080fd5b50565b60008135905061310b816130e5565b92915050565b60006020828403121561312757613126612d3c565b5b6000613135848285016130fc565b91505092915050565b613147816130db565b82525050565b6000602082019050613162600083018461313e565b92915050565b6000806040838503121561317f5761317e612d3c565b5b600061318d858286016130fc565b925050602061319e85828601612f89565b9150509250929050565b6000602082840312156131be576131bd612d3c565b5b60006131cc84828501612f89565b91505092915050565b6131de81612dcb565b81146131e957600080fd5b50565b6000813590506131fb816131d5565b92915050565b6000806040838503121561321857613217612d3c565b5b600061322685828601612f89565b9250506020613237858286016131ec565b9150509250929050565b600080fd5b600080fd5b7f4e487b7100000000000000000000000000000000000000000000000000000000600052604160045260246000fd5b61328382612e47565b810181811067ffffffffffffffff821117156132a2576132a161324b565b5b80604052505050565b60006132b5612d32565b90506132c1828261327a565b919050565b600067ffffffffffffffff8211156132e1576132e061324b565b5b6132ea82612e47565b9050602081019050919050565b82818337600083830152505050565b6000613319613314846132c6565b6132ab565b90508281526020810184848401111561333557613334613246565b5b6133408482856132f7565b509392505050565b600082601f83011261335d5761335c613241565b5b813561336d848260208601613306565b91505092915050565b600080600080608085870312156133905761338f612d3c565b5b600061339e87828801612f89565b94505060206133af87828801612f89565b93505060406133c087828801612ed4565b925050606085013567ffffffffffffffff8111156133e1576133e0612d41565b5b6133ed87828801613348565b91505092959194509250565b600080604083850312156134105761340f612d3c565b5b600061341e85828601612f89565b925050602061342f85828601612f89565b9150509250929050565b7f4e487b7100000000000000000000000000000000000000000000000000000000600052602260045260246000fd5b6000600282049050600182168061348057607f821691505b60208210810361349357613492613439565b5b50919050565b7f6f6e6c792033353020636c61696d206e6674277320617661696c61626c650000600082015250565b60006134cf601e83612e0c565b91506134da82613499565b602082019050919050565b600060208201905081810360008301526134fe816134c2565b9050919050565b7f63616e6e6f7420636c61696d20616e20616c7265616479206d696e746564207460008201527f6f6b656e00000000000000000000000000000000000000000000000000000000602082015250565b6000613561602483612e0c565b915061356c82613505565b604082019050919050565b6000602082019050818103600083015261359081613554565b9050919050565b7f5369676e617475726520696e76616c6964206f7220756e617574686f72697a6560008201527f6400000000000000000000000000000000000000000000000000000000000000602082015250565b60006135f3602183612e0c565b91506135fe82613597565b604082019050919050565b60006020820190508181036000830152613622816135e6565b9050919050565b7f496e73756666696369656e742066756e647320746f2072656465656d00000000600082015250565b600061365f601c83612e0c565b915061366a82613629565b602082019050919050565b6000602082019050818103600083015261368e81613652565b9050919050565b600080fd5b600080fd5b600080fd5b600080833560016020038436030381126136c1576136c0613695565b5b80840192508235915067ffffffffffffffff8211156136e3576136e261369a565b5b6020830192506001820236038313156136ff576136fe61369f565b5b509250929050565b7f4e487b7100000000000000000000000000000000000000000000000000000000600052601160045260246000fd5b600061374182612eb3565b915061374c83612eb3565b925082820190508082111561376457613763613707565b5b92915050565b7f4552433732313a20617070726f76616c20746f2063757272656e74206f776e6560008201527f7200000000000000000000000000000000000000000000000000000000000000602082015250565b60006137c6602183612e0c565b91506137d18261376a565b604082019050919050565b600060208201905081810360008301526137f5816137b9565b9050919050565b7f4552433732313a20617070726f76652063616c6c6572206973206e6f7420746f60008201527f6b656e206f776e6572206f7220617070726f76656420666f7220616c6c000000602082015250565b6000613858603d83612e0c565b9150613863826137fc565b604082019050919050565b600060208201905081810360008301526138878161384b565b9050919050565b7f4552433732313a2063616c6c6572206973206e6f7420746f6b656e206f776e6560008201527f72206f7220617070726f76656400000000000000000000000000000000000000602082015250565b60006138ea602d83612e0c565b91506138f58261388e565b604082019050919050565b60006020820190508181036000830152613919816138dd565b9050919050565b7f416363657373436f6e74726f6c3a2063616e206f6e6c792072656e6f756e636560008201527f20726f6c657320666f722073656c660000000000000000000000000000000000602082015250565b600061397c602f83612e0c565b915061398782613920565b604082019050919050565b600060208201905081810360008301526139ab8161396f565b9050919050565b7f4552433732313a20696e76616c696420746f6b656e2049440000000000000000600082015250565b60006139e8601883612e0c565b91506139f3826139b2565b602082019050919050565b60006020820190508181036000830152613a17816139db565b9050919050565b7f4552433732313a2061646472657373207a65726f206973206e6f74206120766160008201527f6c6964206f776e65720000000000000000000000000000000000000000000000602082015250565b6000613a7a602983612e0c565b9150613a8582613a1e565b604082019050919050565b60006020820190508181036000830152613aa981613a6d565b9050919050565b600081905092915050565b6000613ac682612e01565b613ad08185613ab0565b9350613ae0818560208601612e1d565b80840191505092915050565b6000613af88285613abb565b9150613b048284613abb565b91508190509392505050565b60008083356001602003843603038112613b2d57613b2c613695565b5b80840192508235915067ffffffffffffffff821115613b4f57613b4e61369a565b5b602083019250600182023603831315613b6b57613b6a61369f565b5b509250929050565b7f4552433732313a206d696e7420746f20746865207a65726f2061646472657373600082015250565b6000613ba9602083612e0c565b9150613bb482613b73565b602082019050919050565b60006020820190508181036000830152613bd881613b9c565b9050919050565b7f4552433732313a20746f6b656e20616c7265616479206d696e74656400000000600082015250565b6000613c15601c83612e0c565b9150613c2082613bdf565b602082019050919050565b60006020820190508181036000830152613c4481613c08565b9050919050565b7f45524337323155524953746f726167653a2055524920736574206f66206e6f6e60008201527f6578697374656e7420746f6b656e000000000000000000000000000000000000602082015250565b6000613ca7602e83612e0c565b9150613cb282613c4b565b604082019050919050565b60006020820190508181036000830152613cd681613c9a565b9050919050565b60008190508160005260206000209050919050565b60006020601f8301049050919050565b600082821b905092915050565b600060088302613d3f7fffffffffffffffffffffffffffffffffffffffffffffffffffffffffffffffff82613d02565b613d498683613d02565b95508019841693508086168417925050509392505050565b6000819050919050565b6000613d86613d81613d7c84612eb3565b613d61565b612eb3565b9050919050565b6000819050919050565b613da083613d6b565b613db4613dac82613d8d565b848454613d0f565b825550505050565b600090565b613dc9613dbc565b613dd4818484613d97565b505050565b5b81811015613df857613ded600082613dc1565b600181019050613dda565b5050565b601f821115613e3d57613e0e81613cdd565b613e1784613cf2565b81016020851015613e26578190505b613e3a613e3285613cf2565b830182613dd9565b50505b505050565b600082821c905092915050565b6000613e6060001984600802613e42565b1980831691505092915050565b6000613e798383613e4f565b9150826002028217905092915050565b613e9282612e01565b67ffffffffffffffff811115613eab57613eaa61324b565b5b613eb58254613468565b613ec0828285613dfc565b600060209050601f831160018114613ef35760008415613ee1578287015190505b613eeb8582613e6d565b865550613f53565b601f198416613f0186613cdd565b60005b82811015613f2957848901518255600182019150602085019450602081019050613f04565b86831015613f465784890151613f42601f891682613e4f565b8355505b6001600288020188555050505b505050505050565b7f4552433732313a207472616e736665722066726f6d20696e636f72726563742060008201527f6f776e6572000000000000000000000000000000000000000000000000000000602082015250565b6000613fb7602583612e0c565b9150613fc282613f5b565b604082019050919050565b60006020820190508181036000830152613fe681613faa565b9050919050565b7f4552433732313a207472616e7366657220746f20746865207a65726f2061646460008201527f7265737300000000000000000000000000000000000000000000000000000000602082015250565b6000614049602483612e0c565b915061405482613fed565b604082019050919050565b600060208201905081810360008301526140788161403c565b9050919050565b7f4552433732313a20617070726f766520746f2063616c6c657200000000000000600082015250565b60006140b5601983612e0c565b91506140c08261407f565b602082019050919050565b600060208201905081810360008301526140e4816140a8565b9050919050565b7f4552433732313a207472616e7366657220746f206e6f6e20455243373231526560008201527f63656976657220696d706c656d656e7465720000000000000000000000000000602082015250565b6000614147603283612e0c565b9150614152826140eb565b604082019050919050565b600060208201905081810360008301526141768161413a565b9050919050565b600081905092915050565b6000614194838561417d565b93506141a18385846132f7565b82840190509392505050565b60006141ba828486614188565b91508190509392505050565b60006080820190506141db600083018761313e565b6141e8602083018661301e565b6141f5604083018561301e565b614202606083018461313e565b95945050505050565b600061421682612eb3565b915061422183612eb3565b925082820390508181111561423957614238613707565b5b92915050565b7f416363657373436f6e74726f6c3a206163636f756e7420000000000000000000600082015250565b6000614275601783613ab0565b91506142808261423f565b601782019050919050565b7f206973206d697373696e6720726f6c6520000000000000000000000000000000600082015250565b60006142c1601183613ab0565b91506142cc8261428b565b601182019050919050565b60006142e282614268565b91506142ee8285613abb565b91506142f9826142b4565b91506143058284613abb565b91508190509392505050565b600081519050919050565b600082825260208201905092915050565b600061433882614311565b614342818561431c565b9350614352818560208601612e1d565b61435b81612e47565b840191505092915050565b600060808201905061437b6000830187612f48565b6143886020830186612f48565b614395604083018561301e565b81810360608301526143a7818461432d565b905095945050505050565b6000815190506143c181612d72565b92915050565b6000602082840312156143dd576143dc612d3c565b5b60006143eb848285016143b2565b91505092915050565b7f4e487b7100000000000000000000000000000000000000000000000000000000600052601260045260246000fd5b7f4e487b7100000000000000000000000000000000000000000000000000000000600052602160045260246000fd5b7f45434453413a20696e76616c6964207369676e61747572650000000000000000600082015250565b6000614488601883612e0c565b915061449382614452565b602082019050919050565b600060208201905081810360008301526144b78161447b565b9050919050565b7f45434453413a20696e76616c6964207369676e6174757265206c656e67746800600082015250565b60006144f4601f83612e0c565b91506144ff826144be565b602082019050919050565b60006020820190508181036000830152614523816144e7565b9050919050565b7f45434453413a20696e76616c6964207369676e6174757265202773272076616c60008201527f7565000000000000000000000000000000000000000000000000000000000000602082015250565b6000614586602283612e0c565b91506145918261452a565b604082019050919050565b600060208201905081810360008301526145b581614579565b9050919050565b60006145c782612eb3565b91506145d283612eb3565b92508282026145e081612eb3565b915082820484148315176145f7576145f6613707565b5b5092915050565b7f4e487b7100000000000000000000000000000000000000000000000000000000600052603260045260246000fd5b600061463882612eb3565b91506000820361464b5761464a613707565b5b600182039050919050565b7f537472696e67733a20686578206c656e67746820696e73756666696369656e74600082015250565b600061468c602083612e0c565b915061469782614656565b602082019050919050565b600060208201905081810360008301526146bb8161467f565b9050919050565b7f1901000000000000000000000000000000000000000000000000000000000000600082015250565b60006146f8600283613ab0565b9150614703826146c2565b600282019050919050565b6000819050919050565b614729614724826130db565b61470e565b82525050565b600061473a826146eb565b91506147468285614718565b6020820191506147568284614718565b6020820191508190509392505050565b600060ff82169050919050565b61477c81614766565b82525050565b6000608082019050614797600083018761313e565b6147a46020830186614773565b6147b1604083018561313e565b6147be606083018461313e565b95945050505050565b600060a0820190506147dc600083018861313e565b6147e9602083018761313e565b6147f6604083018661313e565b614803606083018561301e565b6148106080830184612f48565b969550505050505056fea2646970667358221220756b8148a791ce62806e26e1c2f72c0ec3e102a09e620837c46d3833587f5a3664736f6c63430008110033",
  "linkReferences": {},
  "deployedLinkReferences": {}
}