{
  "_format": "hh-sol-artifact-1",
  "contractName": "PBTSimple",
  "sourceName": "@chiru-labs/pbt/src/PBTSimple.sol",
  "abi": [
    {
      "inputs": [
        {
          "internalType": "string",
          "name": "name_",
          "type": "string"
        },
        {
          "internalType": "string",
          "name": "symbol_",
          "type": "string"
        }
      ],
      "stateMutability": "nonpayable",
      "type": "constructor"
    },
    {
      "inputs": [],
      "name": "BlockNumberTooOld",
      "type": "error"
    },
    {
      "inputs": [],
      "name": "InvalidBlockNumber",
      "type": "error"
    },
    {
      "inputs": [],
      "name": "InvalidSignature",
      "type": "error"
    },
    {
      "inputs": [],
      "name": "NoMappedTokenForChip",
      "type": "error"
    },
    {
      "inputs": [],
      "name": "NoMintedTokenForChip",
      "type": "error"
    },
    {
      "anonymous": false,
      "inputs": [
        {
          "indexed": true,
          "internalType": "address",
          "name": "owner",
          "type": "address"
        },
        {
          "indexed": true,
          "internalType": "address",
          "name": "approved",
          "type": "address"
        },
        {
          "indexed": true,
          "internalType": "uint256",
          "name": "tokenId",
          "type": "uint256"
        }
      ],
      "name": "Approval",
      "type": "event"
    },
    {
      "anonymous": false,
      "inputs": [
        {
          "indexed": true,
          "internalType": "address",
          "name": "owner",
          "type": "address"
        },
        {
          "indexed": true,
          "internalType": "address",
          "name": "operator",
          "type": "address"
        },
        {
          "indexed": false,
          "internalType": "bool",
          "name": "approved",
          "type": "bool"
        }
      ],
      "name": "ApprovalForAll",
      "type": "event"
    },
    {
      "anonymous": false,
      "inputs": [
        {
          "indexed": true,
          "internalType": "uint256",
          "name": "tokenId",
          "type": "uint256"
        },
        {
          "indexed": true,
          "internalType": "address",
          "name": "oldChipAddress",
          "type": "address"
        },
        {
          "indexed": true,
          "internalType": "address",
          "name": "newChipAddress",
          "type": "address"
        }
      ],
      "name": "PBTChipRemapping",
      "type": "event"
    },
    {
      "anonymous": false,
      "inputs": [
        {
          "indexed": true,
          "internalType": "uint256",
          "name": "tokenId",
          "type": "uint256"
        },
        {
          "indexed": true,
          "internalType": "address",
          "name": "chipAddress",
          "type": "address"
        }
      ],
      "name": "PBTMint",
      "type": "event"
    },
    {
      "anonymous": false,
      "inputs": [
        {
          "indexed": true,
          "internalType": "address",
          "name": "from",
          "type": "address"
        },
        {
          "indexed": true,
          "internalType": "address",
          "name": "to",
          "type": "address"
        },
        {
          "indexed": true,
          "internalType": "uint256",
          "name": "tokenId",
          "type": "uint256"
        }
      ],
      "name": "Transfer",
      "type": "event"
    },
    {
      "inputs": [
        {
          "internalType": "address",
          "name": "to",
          "type": "address"
        },
        {
          "internalType": "uint256",
          "name": "tokenId",
          "type": "uint256"
        }
      ],
      "name": "approve",
      "outputs": [],
      "stateMutability": "nonpayable",
      "type": "function"
    },
    {
      "inputs": [
        {
          "internalType": "address",
          "name": "owner",
          "type": "address"
        }
      ],
      "name": "balanceOf",
      "outputs": [
        {
          "internalType": "uint256",
          "name": "",
          "type": "uint256"
        }
      ],
      "stateMutability": "view",
      "type": "function"
    },
    {
      "inputs": [
        {
          "internalType": "uint256",
          "name": "tokenId",
          "type": "uint256"
        }
      ],
      "name": "getApproved",
      "outputs": [
        {
          "internalType": "address",
          "name": "",
          "type": "address"
        }
      ],
      "stateMutability": "view",
      "type": "function"
    },
    {
      "inputs": [],
      "name": "getMaxBlockhashValidWindow",
      "outputs": [
        {
          "internalType": "uint256",
          "name": "",
          "type": "uint256"
        }
      ],
      "stateMutability": "pure",
      "type": "function"
    },
    {
      "inputs": [
        {
          "internalType": "address",
          "name": "owner",
          "type": "address"
        },
        {
          "internalType": "address",
          "name": "operator",
          "type": "address"
        }
      ],
      "name": "isApprovedForAll",
      "outputs": [
        {
          "internalType": "bool",
          "name": "",
          "type": "bool"
        }
      ],
      "stateMutability": "view",
      "type": "function"
    },
    {
      "inputs": [
        {
          "internalType": "uint256",
          "name": "tokenId",
          "type": "uint256"
        },
        {
          "internalType": "bytes",
          "name": "payload",
          "type": "bytes"
        },
        {
          "internalType": "bytes",
          "name": "signature",
          "type": "bytes"
        }
      ],
      "name": "isChipSignatureForToken",
      "outputs": [
        {
          "internalType": "bool",
          "name": "",
          "type": "bool"
        }
      ],
      "stateMutability": "view",
      "type": "function"
    },
    {
      "inputs": [],
      "name": "name",
      "outputs": [
        {
          "internalType": "string",
          "name": "",
          "type": "string"
        }
      ],
      "stateMutability": "view",
      "type": "function"
    },
    {
      "inputs": [
        {
          "internalType": "uint256",
          "name": "tokenId",
          "type": "uint256"
        }
      ],
      "name": "ownerOf",
      "outputs": [
        {
          "internalType": "address",
          "name": "",
          "type": "address"
        }
      ],
      "stateMutability": "view",
      "type": "function"
    },
    {
      "inputs": [
        {
          "internalType": "address",
          "name": "from",
          "type": "address"
        },
        {
          "internalType": "address",
          "name": "to",
          "type": "address"
        },
        {
          "internalType": "uint256",
          "name": "tokenId",
          "type": "uint256"
        }
      ],
      "name": "safeTransferFrom",
      "outputs": [],
      "stateMutability": "nonpayable",
      "type": "function"
    },
    {
      "inputs": [
        {
          "internalType": "address",
          "name": "from",
          "type": "address"
        },
        {
          "internalType": "address",
          "name": "to",
          "type": "address"
        },
        {
          "internalType": "uint256",
          "name": "tokenId",
          "type": "uint256"
        },
        {
          "internalType": "bytes",
          "name": "data",
          "type": "bytes"
        }
      ],
      "name": "safeTransferFrom",
      "outputs": [],
      "stateMutability": "nonpayable",
      "type": "function"
    },
    {
      "inputs": [
        {
          "internalType": "address",
          "name": "operator",
          "type": "address"
        },
        {
          "internalType": "bool",
          "name": "approved",
          "type": "bool"
        }
      ],
      "name": "setApprovalForAll",
      "outputs": [],
      "stateMutability": "nonpayable",
      "type": "function"
    },
    {
      "inputs": [
        {
          "internalType": "bytes4",
          "name": "interfaceId",
          "type": "bytes4"
        }
      ],
      "name": "supportsInterface",
      "outputs": [
        {
          "internalType": "bool",
          "name": "",
          "type": "bool"
        }
      ],
      "stateMutability": "view",
      "type": "function"
    },
    {
      "inputs": [],
      "name": "symbol",
      "outputs": [
        {
          "internalType": "string",
          "name": "",
          "type": "string"
        }
      ],
      "stateMutability": "view",
      "type": "function"
    },
    {
      "inputs": [
        {
          "internalType": "address",
          "name": "chipAddress",
          "type": "address"
        }
      ],
      "name": "tokenIdFor",
      "outputs": [
        {
          "internalType": "uint256",
          "name": "",
          "type": "uint256"
        }
      ],
      "stateMutability": "view",
      "type": "function"
    },
    {
      "inputs": [
        {
          "internalType": "address",
          "name": "chipAddress",
          "type": "address"
        }
      ],
      "name": "tokenIdMappedFor",
      "outputs": [
        {
          "internalType": "uint256",
          "name": "",
          "type": "uint256"
        }
      ],
      "stateMutability": "view",
      "type": "function"
    },
    {
      "inputs": [
        {
          "internalType": "uint256",
          "name": "tokenId",
          "type": "uint256"
        }
      ],
      "name": "tokenURI",
      "outputs": [
        {
          "internalType": "string",
          "name": "",
          "type": "string"
        }
      ],
      "stateMutability": "view",
      "type": "function"
    },
    {
      "inputs": [
        {
          "internalType": "address",
          "name": "from",
          "type": "address"
        },
        {
          "internalType": "address",
          "name": "to",
          "type": "address"
        },
        {
          "internalType": "uint256",
          "name": "tokenId",
          "type": "uint256"
        }
      ],
      "name": "transferFrom",
      "outputs": [],
      "stateMutability": "nonpayable",
      "type": "function"
    },
    {
      "inputs": [
        {
          "internalType": "bytes",
          "name": "signatureFromChip",
          "type": "bytes"
        },
        {
          "internalType": "uint256",
          "name": "blockNumberUsedInSig",
          "type": "uint256"
        }
      ],
      "name": "transferTokenWithChip",
      "outputs": [],
      "stateMutability": "nonpayable",
      "type": "function"
    },
    {
      "inputs": [
        {
          "internalType": "bytes",
          "name": "signatureFromChip",
          "type": "bytes"
        },
        {
          "internalType": "uint256",
          "name": "blockNumberUsedInSig",
          "type": "uint256"
        },
        {
          "internalType": "bool",
          "name": "useSafeTransferFrom",
          "type": "bool"
        }
      ],
      "name": "transferTokenWithChip",
      "outputs": [],
      "stateMutability": "nonpayable",
      "type": "function"
    }
  ],
  "bytecode": "0x60806040523480156200001157600080fd5b5060405162003361380380620033618339818101604052810190620000379190620001fe565b8181818181600090816200004c9190620004ce565b5080600190816200005e9190620004ce565b50505050505050620005b5565b6000604051905090565b600080fd5b600080fd5b600080fd5b600080fd5b6000601f19601f8301169050919050565b7f4e487b7100000000000000000000000000000000000000000000000000000000600052604160045260246000fd5b620000d48262000089565b810181811067ffffffffffffffff82111715620000f657620000f56200009a565b5b80604052505050565b60006200010b6200006b565b9050620001198282620000c9565b919050565b600067ffffffffffffffff8211156200013c576200013b6200009a565b5b620001478262000089565b9050602081019050919050565b60005b838110156200017457808201518184015260208101905062000157565b60008484015250505050565b60006200019762000191846200011e565b620000ff565b905082815260208101848484011115620001b657620001b562000084565b5b620001c384828562000154565b509392505050565b600082601f830112620001e357620001e26200007f565b5b8151620001f584826020860162000180565b91505092915050565b6000806040838503121562000218576200021762000075565b5b600083015167ffffffffffffffff8111156200023957620002386200007a565b5b6200024785828601620001cb565b925050602083015167ffffffffffffffff8111156200026b576200026a6200007a565b5b6200027985828601620001cb565b9150509250929050565b600081519050919050565b7f4e487b7100000000000000000000000000000000000000000000000000000000600052602260045260246000fd5b60006002820490506001821680620002d657607f821691505b602082108103620002ec57620002eb6200028e565b5b50919050565b60008190508160005260206000209050919050565b60006020601f8301049050919050565b600082821b905092915050565b600060088302620003567fffffffffffffffffffffffffffffffffffffffffffffffffffffffffffffffff8262000317565b62000362868362000317565b95508019841693508086168417925050509392505050565b6000819050919050565b6000819050919050565b6000620003af620003a9620003a3846200037a565b62000384565b6200037a565b9050919050565b6000819050919050565b620003cb836200038e565b620003e3620003da82620003b6565b84845462000324565b825550505050565b600090565b620003fa620003eb565b62000407818484620003c0565b505050565b5b818110156200042f5762000423600082620003f0565b6001810190506200040d565b5050565b601f8211156200047e576200044881620002f2565b620004538462000307565b8101602085101562000463578190505b6200047b620004728562000307565b8301826200040c565b50505b505050565b600082821c905092915050565b6000620004a36000198460080262000483565b1980831691505092915050565b6000620004be838362000490565b9150826002028217905092915050565b620004d98262000283565b67ffffffffffffffff811115620004f557620004f46200009a565b5b620005018254620002bd565b6200050e82828562000433565b600060209050601f83116001811462000546576000841562000531578287015190505b6200053d8582620004b0565b865550620005ad565b601f1984166200055686620002f2565b60005b82811015620005805784890151825560018201915060208501945060208101905062000559565b86831015620005a057848901516200059c601f89168262000490565b8355505b6001600288020188555050505b505050505050565b612d9c80620005c56000396000f3fe608060405234801561001057600080fd5b50600436106101215760003560e01c80636b953dd8116100ad578063ba70316f11610071578063ba70316f1461033e578063c87b56dd1461035c578063d67d13ad1461038c578063dcf960ee146103a8578063e985e9c5146103c457610121565b80636b953dd81461028857806370a08231146102b857806395d89b41146102e8578063a22cb46514610306578063b88d4fde1461032257610121565b8063095ea7b3116100f4578063095ea7b3146101d457806323b872dd146101f057806342842e0e1461020c5780634b5f42ea146102285780636352211e1461025857610121565b806301ffc9a71461012657806306fdde0314610156578063081812fc1461017457806308daee36146101a4575b600080fd5b610140600480360381019061013b9190611bda565b6103f4565b60405161014d9190611c22565b60405180910390f35b61015e61046e565b60405161016b9190611ccd565b60405180910390f35b61018e60048036038101906101899190611d25565b610500565b60405161019b9190611d93565b60405180910390f35b6101be60048036038101906101b99190611dda565b610553565b6040516101cb9190611e16565b60405180910390f35b6101ee60048036038101906101e99190611e31565b6105a9565b005b61020a60048036038101906102059190611e71565b6105e4565b005b61022660048036038101906102219190611e71565b61061f565b005b610242600480360381019061023d9190611ff9565b61065a565b60405161024f9190611c22565b60405180910390f35b610272600480360381019061026d9190611d25565b61076e565b60405161027f9190611d93565b60405180910390f35b6102a2600480360381019061029d9190611dda565b6107f4565b6040516102af9190611e16565b60405180910390f35b6102d260048036038101906102cd9190611dda565b6108c6565b6040516102df9190611e16565b60405180910390f35b6102f061097d565b6040516102fd9190611ccd565b60405180910390f35b610320600480360381019061031b91906120b0565b610a0f565b005b61033c600480360381019061033791906120f0565b610a4a565b005b610346610a85565b6040516103539190611e16565b60405180910390f35b61037660048036038101906103719190611d25565b610a8e565b6040516103839190611ccd565b60405180910390f35b6103a660048036038101906103a191906121d3565b610af6565b005b6103c260048036038101906103bd9190612233565b610b08565b005b6103de60048036038101906103d991906122a7565b610b1a565b6040516103eb9190611c22565b60405180910390f35b60007f4901df9f000000000000000000000000000000000000000000000000000000007bffffffffffffffffffffffffffffffffffffffffffffffffffffffff1916827bffffffffffffffffffffffffffffffffffffffffffffffffffffffff19161480610467575061046682610b22565b5b9050919050565b60606000805461047d90612316565b80601f01602080910402602001604051908101604052809291908181526020018280546104a990612316565b80156104f65780601f106104cb576101008083540402835291602001916104f6565b820191906000526020600020905b8154815290600101906020018083116104d957829003601f168201915b5050505050905090565b600061050b82610c04565b61054a576040517f08c379a000000000000000000000000000000000000000000000000000000000815260040161054190612393565b60405180910390fd5b60009050919050565b60008061055f836107f4565b905061056a81610c04565b6105a0576040517f74903fe400000000000000000000000000000000000000000000000000000000815260040160405180910390fd5b80915050919050565b6040517f08c379a00000000000000000000000000000000000000000000000000000000081526004016105db90612425565b60405180910390fd5b6040517f08c379a0000000000000000000000000000000000000000000000000000000008152600401610616906124b7565b60405180910390fd5b6040517f08c379a000000000000000000000000000000000000000000000000000000000815260040161065190612549565b60405180910390fd5b600061066584610c04565b61069b576040517f74903fe400000000000000000000000000000000000000000000000000000000815260040160405180910390fd5b60006106ad8480519060200120610c45565b905060006106c48483610c7590919063ffffffff16565b9050600660008273ffffffffffffffffffffffffffffffffffffffff1673ffffffffffffffffffffffffffffffffffffffff16815260200190815260200160002060010160149054906101000a900460ff168015610763575085600660008373ffffffffffffffffffffffffffffffffffffffff1673ffffffffffffffffffffffffffffffffffffffff16815260200190815260200160002060000154145b925050509392505050565b60008061077a83610c9c565b9050600073ffffffffffffffffffffffffffffffffffffffff168173ffffffffffffffffffffffffffffffffffffffff16036107eb576040517f08c379a00000000000000000000000000000000000000000000000000000000081526004016107e290612393565b60405180910390fd5b80915050919050565b6000600660008373ffffffffffffffffffffffffffffffffffffffff1673ffffffffffffffffffffffffffffffffffffffff16815260200190815260200160002060010160149054906101000a900460ff1661087c576040517f0239974700000000000000000000000000000000000000000000000000000000815260040160405180910390fd5b600660008373ffffffffffffffffffffffffffffffffffffffff1673ffffffffffffffffffffffffffffffffffffffff168152602001908152602001600020600001549050919050565b60008073ffffffffffffffffffffffffffffffffffffffff168273ffffffffffffffffffffffffffffffffffffffff1603610936576040517f08c379a000000000000000000000000000000000000000000000000000000000815260040161092d906125db565b60405180910390fd5b600360008373ffffffffffffffffffffffffffffffffffffffff1673ffffffffffffffffffffffffffffffffffffffff168152602001908152602001600020549050919050565b60606001805461098c90612316565b80601f01602080910402602001604051908101604052809291908181526020018280546109b890612316565b8015610a055780601f106109da57610100808354040283529160200191610a05565b820191906000526020600020905b8154815290600101906020018083116109e857829003601f168201915b5050505050905090565b6040517f08c379a0000000000000000000000000000000000000000000000000000000008152600401610a419061266d565b60405180910390fd5b6040517f08c379a0000000000000000000000000000000000000000000000000000000008152600401610a7c90612549565b60405180910390fd5b60006064905090565b6060610a9982610cd9565b6000610aa3610d24565b90506000815111610ac35760405180602001604052806000815250610aee565b80610acd84610d3b565b604051602001610ade9291906126c9565b6040516020818303038152906040525b915050919050565b610b038383836000610b08565b505050565b610b1484848484610e09565b50505050565b600092915050565b60007f80ac58cd000000000000000000000000000000000000000000000000000000007bffffffffffffffffffffffffffffffffffffffffffffffffffffffff1916827bffffffffffffffffffffffffffffffffffffffffffffffffffffffff19161480610bed57507f5b5e139f000000000000000000000000000000000000000000000000000000007bffffffffffffffffffffffffffffffffffffffffffffffffffffffff1916827bffffffffffffffffffffffffffffffffffffffffffffffffffffffff1916145b80610bfd5750610bfc82610e73565b5b9050919050565b60008073ffffffffffffffffffffffffffffffffffffffff16610c2683610c9c565b73ffffffffffffffffffffffffffffffffffffffff1614159050919050565b600081604051602001610c589190612764565b604051602081830303815290604052805190602001209050919050565b6000806000610c848585610edd565b91509150610c9181610f2e565b819250505092915050565b60006002600083815260200190815260200160002060009054906101000a900473ffffffffffffffffffffffffffffffffffffffff169050919050565b610ce281610c04565b610d21576040517f08c379a0000000000000000000000000000000000000000000000000000000008152600401610d1890612393565b60405180910390fd5b50565b606060405180602001604052806000815250905090565b606060006001610d4a84611094565b01905060008167ffffffffffffffff811115610d6957610d68611ece565b5b6040519080825280601f01601f191660200182016040528015610d9b5781602001600182028036833780820191505090505b509050600082602001820190505b600115610dfe578080600190039150507f3031323334353637383961626364656600000000000000000000000000000000600a86061a8153600a8581610df257610df161278a565b5b04945060008503610da9575b819350505050919050565b6000610e168585856111e7565b6000015190508115610e5157610e4c610e2e8261076e565b610e36611420565b8360405180602001604052806000815250611428565b610e6c565b610e6b610e5d8261076e565b610e65611420565b83611484565b5b5050505050565b60007f01ffc9a7000000000000000000000000000000000000000000000000000000007bffffffffffffffffffffffffffffffffffffffffffffffffffffffff1916827bffffffffffffffffffffffffffffffffffffffffffffffffffffffff1916149050919050565b6000806041835103610f1e5760008060006020860151925060408601519150606086015160001a9050610f128782858561177d565b94509450505050610f27565b60006002915091505b9250929050565b60006004811115610f4257610f416127b9565b5b816004811115610f5557610f546127b9565b5b03156110915760016004811115610f6f57610f6e6127b9565b5b816004811115610f8257610f816127b9565b5b03610fc2576040517f08c379a0000000000000000000000000000000000000000000000000000000008152600401610fb990612834565b60405180910390fd5b60026004811115610fd657610fd56127b9565b5b816004811115610fe957610fe86127b9565b5b03611029576040517f08c379a0000000000000000000000000000000000000000000000000000000008152600401611020906128a0565b60405180910390fd5b6003600481111561103d5761103c6127b9565b5b8160048111156110505761104f6127b9565b5b03611090576040517f08c379a000000000000000000000000000000000000000000000000000000000815260040161108790612932565b60405180910390fd5b5b50565b600080600090507a184f03e93ff9f4daa797ed6e38ed64bf6a1f01000000000000000083106110f2577a184f03e93ff9f4daa797ed6e38ed64bf6a1f01000000000000000083816110e8576110e761278a565b5b0492506040810190505b6d04ee2d6d415b85acef8100000000831061112f576d04ee2d6d415b85acef810000000083816111255761112461278a565b5b0492506020810190505b662386f26fc10000831061115e57662386f26fc1000083816111545761115361278a565b5b0492506010810190505b6305f5e1008310611187576305f5e100838161117d5761117c61278a565b5b0492506008810190505b61271083106111ac5761271083816111a2576111a161278a565b5b0492506004810190505b606483106111cf57606483816111c5576111c461278a565b5b0492506002810190505b600a83106111de576001810190505b80915050919050565b6111ef611b35565b814311611228576040517f4e47846c00000000000000000000000000000000000000000000000000000000815260040160405180910390fd5b611230610a85565b824303111561126b576040517fa398a38e00000000000000000000000000000000000000000000000000000000815260040160405180910390fd5b60008240905060006112ab61127e611420565b8360405160200161129092919061299a565b60405160208183030381529060405280519060200120610c45565b9050600061130687878080601f016020809104026020016040519081016040528093929190818152602001838380828437600081840152601f19601f8201169050808301925050505050505083610c7590919063ffffffff16565b90506000600660008373ffffffffffffffffffffffffffffffffffffffff1673ffffffffffffffffffffffffffffffffffffffff168152602001908152602001600020604051806060016040529081600082015481526020016001820160009054906101000a900473ffffffffffffffffffffffffffffffffffffffff1673ffffffffffffffffffffffffffffffffffffffff1673ffffffffffffffffffffffffffffffffffffffff1681526020016001820160149054906101000a900460ff16151515158152505090508060400151156113e75780945050505050611419565b6040517f8baa579f00000000000000000000000000000000000000000000000000000000815260040160405180910390fd5b9392505050565b600033905090565b611433848484611484565b61143f8484848461185f565b61147e576040517f08c379a000000000000000000000000000000000000000000000000000000000815260040161147590612a38565b60405180910390fd5b50505050565b8273ffffffffffffffffffffffffffffffffffffffff166114a48261076e565b73ffffffffffffffffffffffffffffffffffffffff16146114fa576040517f08c379a00000000000000000000000000000000000000000000000000000000081526004016114f190612aca565b60405180910390fd5b600073ffffffffffffffffffffffffffffffffffffffff168273ffffffffffffffffffffffffffffffffffffffff1603611569576040517f08c379a000000000000000000000000000000000000000000000000000000000815260040161156090612b5c565b60405180910390fd5b61157683838360016119e6565b8273ffffffffffffffffffffffffffffffffffffffff166115968261076e565b73ffffffffffffffffffffffffffffffffffffffff16146115ec576040517f08c379a00000000000000000000000000000000000000000000000000000000081526004016115e390612aca565b60405180910390fd5b6004600082815260200190815260200160002060006101000a81549073ffffffffffffffffffffffffffffffffffffffff02191690556001600360008573ffffffffffffffffffffffffffffffffffffffff1673ffffffffffffffffffffffffffffffffffffffff168152602001908152602001600020600082825403925050819055506001600360008473ffffffffffffffffffffffffffffffffffffffff1673ffffffffffffffffffffffffffffffffffffffff16815260200190815260200160002060008282540192505081905550816002600083815260200190815260200160002060006101000a81548173ffffffffffffffffffffffffffffffffffffffff021916908373ffffffffffffffffffffffffffffffffffffffff160217905550808273ffffffffffffffffffffffffffffffffffffffff168473ffffffffffffffffffffffffffffffffffffffff167fddf252ad1be2c89b69c2b068fc378daa952ba7f163c4a11628f55a4df523b3ef60405160405180910390a46117788383836001611b0c565b505050565b6000807f7fffffffffffffffffffffffffffffff5d576e7357a4501ddfe92f46681b20a08360001c11156117b8576000600391509150611856565b6000600187878787604051600081526020016040526040516117dd9493929190612ba7565b6020604051602081039080840390855afa1580156117ff573d6000803e3d6000fd5b505050602060405103519050600073ffffffffffffffffffffffffffffffffffffffff168173ffffffffffffffffffffffffffffffffffffffff160361184d57600060019250925050611856565b80600092509250505b94509492505050565b60006118808473ffffffffffffffffffffffffffffffffffffffff16611b12565b156119d9578373ffffffffffffffffffffffffffffffffffffffff1663150b7a026118a9611420565b8786866040518563ffffffff1660e01b81526004016118cb9493929190612c41565b6020604051808303816000875af192505050801561190757506040513d601f19601f820116820180604052508101906119049190612ca2565b60015b611989573d8060008114611937576040519150601f19603f3d011682016040523d82523d6000602084013e61193c565b606091505b506000815103611981576040517f08c379a000000000000000000000000000000000000000000000000000000000815260040161197890612a38565b60405180910390fd5b805181602001fd5b63150b7a0260e01b7bffffffffffffffffffffffffffffffffffffffffffffffffffffffff1916817bffffffffffffffffffffffffffffffffffffffffffffffffffffffff1916149150506119de565b600190505b949350505050565b6001811115611b0657600073ffffffffffffffffffffffffffffffffffffffff168473ffffffffffffffffffffffffffffffffffffffff1614611a7a5780600360008673ffffffffffffffffffffffffffffffffffffffff1673ffffffffffffffffffffffffffffffffffffffff1681526020019081526020016000206000828254611a729190612cfe565b925050819055505b600073ffffffffffffffffffffffffffffffffffffffff168373ffffffffffffffffffffffffffffffffffffffff1614611b055780600360008573ffffffffffffffffffffffffffffffffffffffff1673ffffffffffffffffffffffffffffffffffffffff1681526020019081526020016000206000828254611afd9190612d32565b925050819055505b5b50505050565b50505050565b6000808273ffffffffffffffffffffffffffffffffffffffff163b119050919050565b604051806060016040528060008152602001600073ffffffffffffffffffffffffffffffffffffffff1681526020016000151581525090565b6000604051905090565b600080fd5b600080fd5b60007fffffffff0000000000000000000000000000000000000000000000000000000082169050919050565b611bb781611b82565b8114611bc257600080fd5b50565b600081359050611bd481611bae565b92915050565b600060208284031215611bf057611bef611b78565b5b6000611bfe84828501611bc5565b91505092915050565b60008115159050919050565b611c1c81611c07565b82525050565b6000602082019050611c376000830184611c13565b92915050565b600081519050919050565b600082825260208201905092915050565b60005b83811015611c77578082015181840152602081019050611c5c565b60008484015250505050565b6000601f19601f8301169050919050565b6000611c9f82611c3d565b611ca98185611c48565b9350611cb9818560208601611c59565b611cc281611c83565b840191505092915050565b60006020820190508181036000830152611ce78184611c94565b905092915050565b6000819050919050565b611d0281611cef565b8114611d0d57600080fd5b50565b600081359050611d1f81611cf9565b92915050565b600060208284031215611d3b57611d3a611b78565b5b6000611d4984828501611d10565b91505092915050565b600073ffffffffffffffffffffffffffffffffffffffff82169050919050565b6000611d7d82611d52565b9050919050565b611d8d81611d72565b82525050565b6000602082019050611da86000830184611d84565b92915050565b611db781611d72565b8114611dc257600080fd5b50565b600081359050611dd481611dae565b92915050565b600060208284031215611df057611def611b78565b5b6000611dfe84828501611dc5565b91505092915050565b611e1081611cef565b82525050565b6000602082019050611e2b6000830184611e07565b92915050565b60008060408385031215611e4857611e47611b78565b5b6000611e5685828601611dc5565b9250506020611e6785828601611d10565b9150509250929050565b600080600060608486031215611e8a57611e89611b78565b5b6000611e9886828701611dc5565b9350506020611ea986828701611dc5565b9250506040611eba86828701611d10565b9150509250925092565b600080fd5b600080fd5b7f4e487b7100000000000000000000000000000000000000000000000000000000600052604160045260246000fd5b611f0682611c83565b810181811067ffffffffffffffff82111715611f2557611f24611ece565b5b80604052505050565b6000611f38611b6e565b9050611f448282611efd565b919050565b600067ffffffffffffffff821115611f6457611f63611ece565b5b611f6d82611c83565b9050602081019050919050565b82818337600083830152505050565b6000611f9c611f9784611f49565b611f2e565b905082815260208101848484011115611fb857611fb7611ec9565b5b611fc3848285611f7a565b509392505050565b600082601f830112611fe057611fdf611ec4565b5b8135611ff0848260208601611f89565b91505092915050565b60008060006060848603121561201257612011611b78565b5b600061202086828701611d10565b935050602084013567ffffffffffffffff81111561204157612040611b7d565b5b61204d86828701611fcb565b925050604084013567ffffffffffffffff81111561206e5761206d611b7d565b5b61207a86828701611fcb565b9150509250925092565b61208d81611c07565b811461209857600080fd5b50565b6000813590506120aa81612084565b92915050565b600080604083850312156120c7576120c6611b78565b5b60006120d585828601611dc5565b92505060206120e68582860161209b565b9150509250929050565b6000806000806080858703121561210a57612109611b78565b5b600061211887828801611dc5565b945050602061212987828801611dc5565b935050604061213a87828801611d10565b925050606085013567ffffffffffffffff81111561215b5761215a611b7d565b5b61216787828801611fcb565b91505092959194509250565b600080fd5b600080fd5b60008083601f84011261219357612192611ec4565b5b8235905067ffffffffffffffff8111156121b0576121af612173565b5b6020830191508360018202830111156121cc576121cb612178565b5b9250929050565b6000806000604084860312156121ec576121eb611b78565b5b600084013567ffffffffffffffff81111561220a57612209611b7d565b5b6122168682870161217d565b9350935050602061222986828701611d10565b9150509250925092565b6000806000806060858703121561224d5761224c611b78565b5b600085013567ffffffffffffffff81111561226b5761226a611b7d565b5b6122778782880161217d565b9450945050602061228a87828801611d10565b925050604061229b8782880161209b565b91505092959194509250565b600080604083850312156122be576122bd611b78565b5b60006122cc85828601611dc5565b92505060206122dd85828601611dc5565b9150509250929050565b7f4e487b7100000000000000000000000000000000000000000000000000000000600052602260045260246000fd5b6000600282049050600182168061232e57607f821691505b602082108103612341576123406122e7565b5b50919050565b7f4552433732313a20696e76616c696420746f6b656e2049440000000000000000600082015250565b600061237d601883611c48565b915061238882612347565b602082019050919050565b600060208201905081810360008301526123ac81612370565b9050919050565b7f455243373231207075626c696320617070726f7665206e6f7420616c6c6f776560008201527f6400000000000000000000000000000000000000000000000000000000000000602082015250565b600061240f602183611c48565b915061241a826123b3565b604082019050919050565b6000602082019050818103600083015261243e81612402565b9050919050565b7f455243373231207075626c6963207472616e7366657246726f6d206e6f74206160008201527f6c6c6f7765640000000000000000000000000000000000000000000000000000602082015250565b60006124a1602683611c48565b91506124ac82612445565b604082019050919050565b600060208201905081810360008301526124d081612494565b9050919050565b7f455243373231207075626c696320736166655472616e7366657246726f6d206e60008201527f6f7420616c6c6f77656400000000000000000000000000000000000000000000602082015250565b6000612533602a83611c48565b915061253e826124d7565b604082019050919050565b6000602082019050818103600083015261256281612526565b9050919050565b7f4552433732313a2061646472657373207a65726f206973206e6f74206120766160008201527f6c6964206f776e65720000000000000000000000000000000000000000000000602082015250565b60006125c5602983611c48565b91506125d082612569565b604082019050919050565b600060208201905081810360008301526125f4816125b8565b9050919050565b7f455243373231207075626c696320736574417070726f76616c466f72416c6c2060008201527f6e6f7420616c6c6f776564000000000000000000000000000000000000000000602082015250565b6000612657602b83611c48565b9150612662826125fb565b604082019050919050565b600060208201905081810360008301526126868161264a565b9050919050565b600081905092915050565b60006126a382611c3d565b6126ad818561268d565b93506126bd818560208601611c59565b80840191505092915050565b60006126d58285612698565b91506126e18284612698565b91508190509392505050565b7f19457468657265756d205369676e6564204d6573736167653a0a333200000000600082015250565b6000612723601c8361268d565b915061272e826126ed565b601c82019050919050565b6000819050919050565b6000819050919050565b61275e61275982612739565b612743565b82525050565b600061276f82612716565b915061277b828461274d565b60208201915081905092915050565b7f4e487b7100000000000000000000000000000000000000000000000000000000600052601260045260246000fd5b7f4e487b7100000000000000000000000000000000000000000000000000000000600052602160045260246000fd5b7f45434453413a20696e76616c6964207369676e61747572650000000000000000600082015250565b600061281e601883611c48565b9150612829826127e8565b602082019050919050565b6000602082019050818103600083015261284d81612811565b9050919050565b7f45434453413a20696e76616c6964207369676e6174757265206c656e67746800600082015250565b600061288a601f83611c48565b915061289582612854565b602082019050919050565b600060208201905081810360008301526128b98161287d565b9050919050565b7f45434453413a20696e76616c6964207369676e6174757265202773272076616c60008201527f7565000000000000000000000000000000000000000000000000000000000000602082015250565b600061291c602283611c48565b9150612927826128c0565b604082019050919050565b6000602082019050818103600083015261294b8161290f565b9050919050565b60008160601b9050919050565b600061296a82612952565b9050919050565b600061297c8261295f565b9050919050565b61299461298f82611d72565b612971565b82525050565b60006129a68285612983565b6014820191506129b6828461274d565b6020820191508190509392505050565b7f4552433732313a207472616e7366657220746f206e6f6e20455243373231526560008201527f63656976657220696d706c656d656e7465720000000000000000000000000000602082015250565b6000612a22603283611c48565b9150612a2d826129c6565b604082019050919050565b60006020820190508181036000830152612a5181612a15565b9050919050565b7f4552433732313a207472616e736665722066726f6d20696e636f72726563742060008201527f6f776e6572000000000000000000000000000000000000000000000000000000602082015250565b6000612ab4602583611c48565b9150612abf82612a58565b604082019050919050565b60006020820190508181036000830152612ae381612aa7565b9050919050565b7f4552433732313a207472616e7366657220746f20746865207a65726f2061646460008201527f7265737300000000000000000000000000000000000000000000000000000000602082015250565b6000612b46602483611c48565b9150612b5182612aea565b604082019050919050565b60006020820190508181036000830152612b7581612b39565b9050919050565b612b8581612739565b82525050565b600060ff82169050919050565b612ba181612b8b565b82525050565b6000608082019050612bbc6000830187612b7c565b612bc96020830186612b98565b612bd66040830185612b7c565b612be36060830184612b7c565b95945050505050565b600081519050919050565b600082825260208201905092915050565b6000612c1382612bec565b612c1d8185612bf7565b9350612c2d818560208601611c59565b612c3681611c83565b840191505092915050565b6000608082019050612c566000830187611d84565b612c636020830186611d84565b612c706040830185611e07565b8181036060830152612c828184612c08565b905095945050505050565b600081519050612c9c81611bae565b92915050565b600060208284031215612cb857612cb7611b78565b5b6000612cc684828501612c8d565b91505092915050565b7f4e487b7100000000000000000000000000000000000000000000000000000000600052601160045260246000fd5b6000612d0982611cef565b9150612d1483611cef565b9250828203905081811115612d2c57612d2b612ccf565b5b92915050565b6000612d3d82611cef565b9150612d4883611cef565b9250828201905080821115612d6057612d5f612ccf565b5b9291505056fea2646970667358221220bdf2613354680113681680b626ae240f551df9ab321d089d217f2e043ec3fc0864736f6c63430008110033",
  "linkReferences": {},
  "deployedLinkReferences": {}
}