{
  "_format": "hh-sol-artifact-1",
  "contractName": "BloodOfMolochPBT",
  "sourceName": "contracts/BloodOfMolochPBT.sol",
  "abi": [
    {
      "inputs": [],
      "stateMutability": "nonpayable",
      "type": "constructor"
    },
    {
      "inputs": [],
      "name": "ArrayLengthMismatch",
      "type": "error"
    },
    {
      "inputs": [],
      "name": "BlockNumberTooOld",
      "type": "error"
    },
    {
      "inputs": [],
      "name": "CannotMakeChanges",
      "type": "error"
    },
    {
      "inputs": [],
      "name": "CannotUpdateDeadline",
      "type": "error"
    },
    {
      "inputs": [],
      "name": "InvalidBlockNumber",
      "type": "error"
    },
    {
      "inputs": [],
      "name": "InvalidSignature",
      "type": "error"
    },
    {
      "inputs": [],
      "name": "MintNotOpen",
      "type": "error"
    },
    {
      "inputs": [],
      "name": "NoClaimToken",
      "type": "error"
    },
    {
      "inputs": [],
      "name": "NoMappedTokenForChip",
      "type": "error"
    },
    {
      "inputs": [],
      "name": "NoMintedTokenForChip",
      "type": "error"
    },
    {
      "inputs": [],
      "name": "SeedingChipDataForExistingToken",
      "type": "error"
    },
    {
      "inputs": [],
      "name": "TotalSupplyReached",
      "type": "error"
    },
    {
      "inputs": [],
      "name": "UpdatingChipForUnsetChipMapping",
      "type": "error"
    },
    {
      "anonymous": false,
      "inputs": [
        {
          "indexed": true,
          "internalType": "address",
          "name": "owner",
          "type": "address"
        },
        {
          "indexed": true,
          "internalType": "address",
          "name": "approved",
          "type": "address"
        },
        {
          "indexed": true,
          "internalType": "uint256",
          "name": "tokenId",
          "type": "uint256"
        }
      ],
      "name": "Approval",
      "type": "event"
    },
    {
      "anonymous": false,
      "inputs": [
        {
          "indexed": true,
          "internalType": "address",
          "name": "owner",
          "type": "address"
        },
        {
          "indexed": true,
          "internalType": "address",
          "name": "operator",
          "type": "address"
        },
        {
          "indexed": false,
          "internalType": "bool",
          "name": "approved",
          "type": "bool"
        }
      ],
      "name": "ApprovalForAll",
      "type": "event"
    },
    {
      "anonymous": false,
      "inputs": [
        {
          "indexed": true,
          "internalType": "address",
          "name": "previousOwner",
          "type": "address"
        },
        {
          "indexed": true,
          "internalType": "address",
          "name": "newOwner",
          "type": "address"
        }
      ],
      "name": "OwnershipTransferred",
      "type": "event"
    },
    {
      "anonymous": false,
      "inputs": [
        {
          "indexed": true,
          "internalType": "uint256",
          "name": "tokenId",
          "type": "uint256"
        },
        {
          "indexed": true,
          "internalType": "address",
          "name": "oldChipAddress",
          "type": "address"
        },
        {
          "indexed": true,
          "internalType": "address",
          "name": "newChipAddress",
          "type": "address"
        }
      ],
      "name": "PBTChipRemapping",
      "type": "event"
    },
    {
      "anonymous": false,
      "inputs": [
        {
          "indexed": true,
          "internalType": "uint256",
          "name": "tokenId",
          "type": "uint256"
        },
        {
          "indexed": true,
          "internalType": "address",
          "name": "chipAddress",
          "type": "address"
        }
      ],
      "name": "PBTMint",
      "type": "event"
    },
    {
      "anonymous": false,
      "inputs": [
        {
          "indexed": true,
          "internalType": "address",
          "name": "from",
          "type": "address"
        },
        {
          "indexed": true,
          "internalType": "address",
          "name": "to",
          "type": "address"
        },
        {
          "indexed": true,
          "internalType": "uint256",
          "name": "tokenId",
          "type": "uint256"
        }
      ],
      "name": "Transfer",
      "type": "event"
    },
    {
      "inputs": [],
      "name": "TOTAL_SUPPLY",
      "outputs": [
        {
          "internalType": "uint256",
          "name": "",
          "type": "uint256"
        }
      ],
      "stateMutability": "view",
      "type": "function"
    },
    {
      "inputs": [
        {
          "internalType": "address",
          "name": "to",
          "type": "address"
        },
        {
          "internalType": "uint256",
          "name": "tokenId",
          "type": "uint256"
        }
      ],
      "name": "approve",
      "outputs": [],
      "stateMutability": "nonpayable",
      "type": "function"
    },
    {
      "inputs": [
        {
          "internalType": "address",
          "name": "owner",
          "type": "address"
        }
      ],
      "name": "balanceOf",
      "outputs": [
        {
          "internalType": "uint256",
          "name": "",
          "type": "uint256"
        }
      ],
      "stateMutability": "view",
      "type": "function"
    },
    {
      "inputs": [],
      "name": "canMint",
      "outputs": [
        {
          "internalType": "bool",
          "name": "",
          "type": "bool"
        }
      ],
      "stateMutability": "view",
      "type": "function"
    },
    {
      "inputs": [],
      "name": "changeDeadline",
      "outputs": [
        {
          "internalType": "uint256",
          "name": "",
          "type": "uint256"
        }
      ],
      "stateMutability": "view",
      "type": "function"
    },
    {
      "inputs": [
        {
          "internalType": "uint256",
          "name": "tokenId",
          "type": "uint256"
        }
      ],
      "name": "getApproved",
      "outputs": [
        {
          "internalType": "address",
          "name": "",
          "type": "address"
        }
      ],
      "stateMutability": "view",
      "type": "function"
    },
    {
      "inputs": [],
      "name": "getMaxBlockhashValidWindow",
      "outputs": [
        {
          "internalType": "uint256",
          "name": "",
          "type": "uint256"
        }
      ],
      "stateMutability": "pure",
      "type": "function"
    },
    {
      "inputs": [
        {
          "internalType": "address",
          "name": "owner",
          "type": "address"
        },
        {
          "internalType": "address",
          "name": "operator",
          "type": "address"
        }
      ],
      "name": "isApprovedForAll",
      "outputs": [
        {
          "internalType": "bool",
          "name": "",
          "type": "bool"
        }
      ],
      "stateMutability": "view",
      "type": "function"
    },
    {
      "inputs": [
        {
          "internalType": "uint256",
          "name": "tokenId",
          "type": "uint256"
        },
        {
          "internalType": "bytes",
          "name": "payload",
          "type": "bytes"
        },
        {
          "internalType": "bytes",
          "name": "signature",
          "type": "bytes"
        }
      ],
      "name": "isChipSignatureForToken",
      "outputs": [
        {
          "internalType": "bool",
          "name": "",
          "type": "bool"
        }
      ],
      "stateMutability": "view",
      "type": "function"
    },
    {
      "inputs": [
        {
          "internalType": "uint256",
          "name": "claimTokenId",
          "type": "uint256"
        },
        {
          "internalType": "bytes",
          "name": "signatureFromChip",
          "type": "bytes"
        },
        {
          "internalType": "uint256",
          "name": "blockNumberUsedInSig",
          "type": "uint256"
        }
      ],
      "name": "mint",
      "outputs": [],
      "stateMutability": "nonpayable",
      "type": "function"
    },
    {
      "inputs": [],
      "name": "name",
      "outputs": [
        {
          "internalType": "string",
          "name": "",
          "type": "string"
        }
      ],
      "stateMutability": "view",
      "type": "function"
    },
    {
      "inputs": [],
      "name": "openMint",
      "outputs": [],
      "stateMutability": "nonpayable",
      "type": "function"
    },
    {
      "inputs": [],
      "name": "owner",
      "outputs": [
        {
          "internalType": "address",
          "name": "",
          "type": "address"
        }
      ],
      "stateMutability": "view",
      "type": "function"
    },
    {
      "inputs": [
        {
          "internalType": "uint256",
          "name": "tokenId",
          "type": "uint256"
        }
      ],
      "name": "ownerOf",
      "outputs": [
        {
          "internalType": "address",
          "name": "",
          "type": "address"
        }
      ],
      "stateMutability": "view",
      "type": "function"
    },
    {
      "inputs": [],
      "name": "renounceOwnership",
      "outputs": [],
      "stateMutability": "nonpayable",
      "type": "function"
    },
    {
      "inputs": [
        {
          "internalType": "address",
          "name": "from",
          "type": "address"
        },
        {
          "internalType": "address",
          "name": "to",
          "type": "address"
        },
        {
          "internalType": "uint256",
          "name": "tokenId",
          "type": "uint256"
        }
      ],
      "name": "safeTransferFrom",
      "outputs": [],
      "stateMutability": "nonpayable",
      "type": "function"
    },
    {
      "inputs": [
        {
          "internalType": "address",
          "name": "from",
          "type": "address"
        },
        {
          "internalType": "address",
          "name": "to",
          "type": "address"
        },
        {
          "internalType": "uint256",
          "name": "tokenId",
          "type": "uint256"
        },
        {
          "internalType": "bytes",
          "name": "data",
          "type": "bytes"
        }
      ],
      "name": "safeTransferFrom",
      "outputs": [],
      "stateMutability": "nonpayable",
      "type": "function"
    },
    {
      "inputs": [
        {
          "internalType": "address[]",
          "name": "chipAddresses",
          "type": "address[]"
        },
        {
          "internalType": "uint256[]",
          "name": "tokenIds",
          "type": "uint256[]"
        },
        {
          "internalType": "bool",
          "name": "throwIfTokenAlreadyMinted",
          "type": "bool"
        }
      ],
      "name": "seedChipToTokenMapping",
      "outputs": [],
      "stateMutability": "nonpayable",
      "type": "function"
    },
    {
      "inputs": [
        {
          "internalType": "address",
          "name": "operator",
          "type": "address"
        },
        {
          "internalType": "bool",
          "name": "approved",
          "type": "bool"
        }
      ],
      "name": "setApprovalForAll",
      "outputs": [],
      "stateMutability": "nonpayable",
      "type": "function"
    },
    {
      "inputs": [
        {
          "internalType": "string",
          "name": "baseURI",
          "type": "string"
        }
      ],
      "name": "setBaseURI",
      "outputs": [],
      "stateMutability": "nonpayable",
      "type": "function"
    },
    {
      "inputs": [
        {
          "internalType": "uint256",
          "name": "timestamp",
          "type": "uint256"
        }
      ],
      "name": "setChangeDeadline",
      "outputs": [],
      "stateMutability": "nonpayable",
      "type": "function"
    },
    {
      "inputs": [
        {
          "internalType": "address",
          "name": "tokenAddress",
          "type": "address"
        }
      ],
      "name": "setClaimToken",
      "outputs": [],
      "stateMutability": "nonpayable",
      "type": "function"
    },
    {
      "inputs": [],
      "name": "supply",
      "outputs": [
        {
          "internalType": "uint256",
          "name": "",
          "type": "uint256"
        }
      ],
      "stateMutability": "view",
      "type": "function"
    },
    {
      "inputs": [
        {
          "internalType": "bytes4",
          "name": "interfaceId",
          "type": "bytes4"
        }
      ],
      "name": "supportsInterface",
      "outputs": [
        {
          "internalType": "bool",
          "name": "",
          "type": "bool"
        }
      ],
      "stateMutability": "view",
      "type": "function"
    },
    {
      "inputs": [],
      "name": "symbol",
      "outputs": [
        {
          "internalType": "string",
          "name": "",
          "type": "string"
        }
      ],
      "stateMutability": "view",
      "type": "function"
    },
    {
      "inputs": [
        {
          "internalType": "address",
          "name": "chipAddress",
          "type": "address"
        }
      ],
      "name": "tokenIdFor",
      "outputs": [
        {
          "internalType": "uint256",
          "name": "",
          "type": "uint256"
        }
      ],
      "stateMutability": "view",
      "type": "function"
    },
    {
      "inputs": [
        {
          "internalType": "address",
          "name": "chipAddress",
          "type": "address"
        }
      ],
      "name": "tokenIdMappedFor",
      "outputs": [
        {
          "internalType": "uint256",
          "name": "",
          "type": "uint256"
        }
      ],
      "stateMutability": "view",
      "type": "function"
    },
    {
      "inputs": [
        {
          "internalType": "uint256",
          "name": "tokenId",
          "type": "uint256"
        }
      ],
      "name": "tokenURI",
      "outputs": [
        {
          "internalType": "string",
          "name": "",
          "type": "string"
        }
      ],
      "stateMutability": "view",
      "type": "function"
    },
    {
      "inputs": [
        {
          "internalType": "address",
          "name": "from",
          "type": "address"
        },
        {
          "internalType": "address",
          "name": "to",
          "type": "address"
        },
        {
          "internalType": "uint256",
          "name": "tokenId",
          "type": "uint256"
        }
      ],
      "name": "transferFrom",
      "outputs": [],
      "stateMutability": "nonpayable",
      "type": "function"
    },
    {
      "inputs": [
        {
          "internalType": "address",
          "name": "newOwner",
          "type": "address"
        }
      ],
      "name": "transferOwnership",
      "outputs": [],
      "stateMutability": "nonpayable",
      "type": "function"
    },
    {
      "inputs": [
        {
          "internalType": "bytes",
          "name": "signatureFromChip",
          "type": "bytes"
        },
        {
          "internalType": "uint256",
          "name": "blockNumberUsedInSig",
          "type": "uint256"
        }
      ],
      "name": "transferTokenWithChip",
      "outputs": [],
      "stateMutability": "nonpayable",
      "type": "function"
    },
    {
      "inputs": [
        {
          "internalType": "bytes",
          "name": "signatureFromChip",
          "type": "bytes"
        },
        {
          "internalType": "uint256",
          "name": "blockNumberUsedInSig",
          "type": "uint256"
        },
        {
          "internalType": "bool",
          "name": "useSafeTransferFrom",
          "type": "bool"
        }
      ],
      "name": "transferTokenWithChip",
      "outputs": [],
      "stateMutability": "nonpayable",
      "type": "function"
    },
    {
      "inputs": [
        {
          "internalType": "address[]",
          "name": "chipAddressesOld",
          "type": "address[]"
        },
        {
          "internalType": "address[]",
          "name": "chipAddressesNew",
          "type": "address[]"
        }
      ],
      "name": "updateChips",
      "outputs": [],
      "stateMutability": "nonpayable",
      "type": "function"
    }
  ],
  "bytecode": "0x60806040523480156200001157600080fd5b506040518060400160405280600f81526020017f426c6f6f64206f66204d6f6c6f636800000000000000000000000000000000008152506040518060400160405280600381526020017f426f4d000000000000000000000000000000000000000000000000000000000081525081818181816000908162000093919062000422565b508060019081620000a5919062000422565b50505050505050620000cc620000c0620000da60201b60201c565b620000e260201b60201c565b600160088190555062000509565b600033905090565b6000600760009054906101000a900473ffffffffffffffffffffffffffffffffffffffff16905081600760006101000a81548173ffffffffffffffffffffffffffffffffffffffff021916908373ffffffffffffffffffffffffffffffffffffffff1602179055508173ffffffffffffffffffffffffffffffffffffffff168173ffffffffffffffffffffffffffffffffffffffff167f8be0079c531659141344cd1fd0a4f28419497f9722a3daafe3b4186f6b6457e060405160405180910390a35050565b600081519050919050565b7f4e487b7100000000000000000000000000000000000000000000000000000000600052604160045260246000fd5b7f4e487b7100000000000000000000000000000000000000000000000000000000600052602260045260246000fd5b600060028204905060018216806200022a57607f821691505b60208210810362000240576200023f620001e2565b5b50919050565b60008190508160005260206000209050919050565b60006020601f8301049050919050565b600082821b905092915050565b600060088302620002aa7fffffffffffffffffffffffffffffffffffffffffffffffffffffffffffffffff826200026b565b620002b686836200026b565b95508019841693508086168417925050509392505050565b6000819050919050565b6000819050919050565b600062000303620002fd620002f784620002ce565b620002d8565b620002ce565b9050919050565b6000819050919050565b6200031f83620002e2565b620003376200032e826200030a565b84845462000278565b825550505050565b600090565b6200034e6200033f565b6200035b81848462000314565b505050565b5b8181101562000383576200037760008262000344565b60018101905062000361565b5050565b601f821115620003d2576200039c8162000246565b620003a7846200025b565b81016020851015620003b7578190505b620003cf620003c6856200025b565b83018262000360565b50505b505050565b600082821c905092915050565b6000620003f760001984600802620003d7565b1980831691505092915050565b6000620004128383620003e4565b9150826002028217905092915050565b6200042d82620001a8565b67ffffffffffffffff811115620004495762000448620001b3565b5b62000455825462000211565b6200046282828562000387565b600060209050601f8311600181146200049a576000841562000485578287015190505b62000491858262000404565b86555062000501565b601f198416620004aa8662000246565b60005b82811015620004d457848901518255600182019150602085019450602081019050620004ad565b86831015620004f45784890151620004f0601f891682620003e4565b8355505b6001600288020188555050505b505050505050565b614e9c80620005196000396000f3fe608060405234801561001057600080fd5b50600436106101fb5760003560e01c80637fd5e8311161011a578063beb9716d116100ad578063d30d520c1161007c578063d30d520c1461059c578063d67d13ad146105b8578063dcf960ee146105d4578063e985e9c5146105f0578063f2fde38b14610620576101fb565b8063beb9716d14610516578063c7e460ba14610534578063c87b56dd14610550578063c8afb52014610580576101fb565b8063a22cb465116100e9578063a22cb465146104b6578063b88d4fde146104d2578063ba70316f146104ee578063bce6d6721461050c576101fb565b80637fd5e8311461043e5780638da5cb5b1461045c578063902d55a51461047a57806395d89b4114610498576101fb565b80632e87871d116101925780636352211e116101615780636352211e146103a45780636b953dd8146103d457806370a0823114610404578063715018a614610434576101fb565b80632e87871d1461032057806342842e0e1461033c5780634b5f42ea1461035857806355f804b314610388576101fb565b806308daee36116101ce57806308daee361461029c578063095ea7b3146102cc57806323b872dd146102e857806329760b4014610304576101fb565b806301ffc9a714610200578063047fc9aa1461023057806306fdde031461024e578063081812fc1461026c575b600080fd5b61021a60048036038101906102159190613166565b61063c565b60405161022791906131ae565b60405180910390f35b6102386106b6565b60405161024591906131e2565b60405180910390f35b6102566106bc565b604051610263919061328d565b60405180910390f35b610286600480360381019061028191906132db565b61074e565b6040516102939190613349565b60405180910390f35b6102b660048036038101906102b19190613390565b6107a1565b6040516102c391906131e2565b60405180910390f35b6102e660048036038101906102e191906133bd565b6107f7565b005b61030260048036038101906102fd91906133fd565b610832565b005b61031e600480360381019061031991906132db565b61086d565b005b61033a600480360381019061033591906134b5565b6108bb565b005b610356600480360381019061035191906133fd565b610cc6565b005b610372600480360381019061036d9190613659565b610d01565b60405161037f91906131ae565b60405180910390f35b6103a2600480360381019061039d919061373a565b610e15565b005b6103be60048036038101906103b991906132db565b610e33565b6040516103cb9190613349565b60405180910390f35b6103ee60048036038101906103e99190613390565b610eb9565b6040516103fb91906131e2565b60405180910390f35b61041e60048036038101906104199190613390565b610f8b565b60405161042b91906131e2565b60405180910390f35b61043c611042565b005b610446611056565b60405161045391906131e2565b60405180910390f35b61046461105c565b6040516104719190613349565b60405180910390f35b610482611086565b60405161048f91906131e2565b60405180910390f35b6104a061108c565b6040516104ad919061328d565b60405180910390f35b6104d060048036038101906104cb91906137b3565b61111e565b005b6104ec60048036038101906104e791906137f3565b611159565b005b6104f6611194565b60405161050391906131e2565b60405180910390f35b61051461119d565b005b61051e6112f3565b60405161052b91906131ae565b60405180910390f35b61054e60048036038101906105499190613922565b611306565b005b61056a600480360381019061056591906132db565b6113bd565b604051610577919061328d565b60405180910390f35b61059a60048036038101906105959190613390565b611425565b005b6105b660048036038101906105b191906139b7565b6114e0565b005b6105d260048036038101906105cd9190613a38565b611545565b005b6105ee60048036038101906105e99190613a98565b611557565b005b61060a60048036038101906106059190613b0c565b611569565b60405161061791906131ae565b60405180910390f35b61063a60048036038101906106359190613390565b611571565b005b60007f4901df9f000000000000000000000000000000000000000000000000000000007bffffffffffffffffffffffffffffffffffffffffffffffffffffffff1916827bffffffffffffffffffffffffffffffffffffffffffffffffffffffff191614806106af57506106ae826115f4565b5b9050919050565b60095481565b6060600080546106cb90613b7b565b80601f01602080910402602001604051908101604052809291908181526020018280546106f790613b7b565b80156107445780601f1061071957610100808354040283529160200191610744565b820191906000526020600020905b81548152906001019060200180831161072757829003601f168201915b5050505050905090565b6000610759826116d6565b610798576040517f08c379a000000000000000000000000000000000000000000000000000000000815260040161078f90613bf8565b60405180910390fd5b60009050919050565b6000806107ad83610eb9565b90506107b8816116d6565b6107ee576040517f74903fe400000000000000000000000000000000000000000000000000000000815260040160405180910390fd5b80915050919050565b6040517f08c379a000000000000000000000000000000000000000000000000000000000815260040161082990613c8a565b60405180910390fd5b6040517f08c379a000000000000000000000000000000000000000000000000000000000815260040161086490613d1c565b60405180910390fd5b610875611717565b6000600a54146108b1576040517fdd5bc7e600000000000000000000000000000000000000000000000000000000815260040160405180910390fd5b80600a8190555050565b6108c3611795565b600b60009054906101000a900460ff16610909576040517f951b974f00000000000000000000000000000000000000000000000000000000815260040160405180910390fd5b61015e60095403610946576040517f7be9badb00000000000000000000000000000000000000000000000000000000815260040160405180910390fd5b600073ffffffffffffffffffffffffffffffffffffffff16600d60009054906101000a900473ffffffffffffffffffffffffffffffffffffffff1673ffffffffffffffffffffffffffffffffffffffff16036109ce576040517f73364eef00000000000000000000000000000000000000000000000000000000815260040160405180910390fd5b6109d66117e4565b73ffffffffffffffffffffffffffffffffffffffff16600d60009054906101000a900473ffffffffffffffffffffffffffffffffffffffff1673ffffffffffffffffffffffffffffffffffffffff16636352211e866040518263ffffffff1660e01b8152600401610a4791906131e2565b602060405180830381865afa158015610a64573d6000803e3d6000fd5b505050506040513d601f19601f82011682018060405250810190610a889190613d51565b73ffffffffffffffffffffffffffffffffffffffff1614610ade576040517f08c379a0000000000000000000000000000000000000000000000000000000008152600401610ad590613df0565b60405180910390fd5b600d60009054906101000a900473ffffffffffffffffffffffffffffffffffffffff1673ffffffffffffffffffffffffffffffffffffffff1663e985e9c5610b246117e4565b306040518363ffffffff1660e01b8152600401610b42929190613e10565b602060405180830381865afa158015610b5f573d6000803e3d6000fd5b505050506040513d601f19601f82011682018060405250810190610b839190613e4e565b80610c5457503073ffffffffffffffffffffffffffffffffffffffff16600d60009054906101000a900473ffffffffffffffffffffffffffffffffffffffff1673ffffffffffffffffffffffffffffffffffffffff1663081812fc866040518263ffffffff1660e01b8152600401610bfb91906131e2565b602060405180830381865afa158015610c18573d6000803e3d6000fd5b505050506040513d601f19601f82011682018060405250810190610c3c9190613d51565b73ffffffffffffffffffffffffffffffffffffffff16145b610c93576040517f08c379a0000000000000000000000000000000000000000000000000000000008152600401610c8a90613ec7565b60405180910390fd5b610c9e8383836117ec565b50610ca88461186a565b60096000815460010191905081905550610cc06118fa565b50505050565b6040517f08c379a0000000000000000000000000000000000000000000000000000000008152600401610cf890613f59565b60405180910390fd5b6000610d0c846116d6565b610d42576040517f74903fe400000000000000000000000000000000000000000000000000000000815260040160405180910390fd5b6000610d548480519060200120611904565b90506000610d6b848361193490919063ffffffff16565b9050600660008273ffffffffffffffffffffffffffffffffffffffff1673ffffffffffffffffffffffffffffffffffffffff16815260200190815260200160002060010160149054906101000a900460ff168015610e0a575085600660008373ffffffffffffffffffffffffffffffffffffffff1673ffffffffffffffffffffffffffffffffffffffff16815260200190815260200160002060000154145b925050509392505050565b610e1d611717565b8181600c9182610e2e929190614130565b505050565b600080610e3f8361195b565b9050600073ffffffffffffffffffffffffffffffffffffffff168173ffffffffffffffffffffffffffffffffffffffff1603610eb0576040517f08c379a0000000000000000000000000000000000000000000000000000000008152600401610ea790613bf8565b60405180910390fd5b80915050919050565b6000600660008373ffffffffffffffffffffffffffffffffffffffff1673ffffffffffffffffffffffffffffffffffffffff16815260200190815260200160002060010160149054906101000a900460ff16610f41576040517f0239974700000000000000000000000000000000000000000000000000000000815260040160405180910390fd5b600660008373ffffffffffffffffffffffffffffffffffffffff1673ffffffffffffffffffffffffffffffffffffffff168152602001908152602001600020600001549050919050565b60008073ffffffffffffffffffffffffffffffffffffffff168273ffffffffffffffffffffffffffffffffffffffff1603610ffb576040517f08c379a0000000000000000000000000000000000000000000000000000000008152600401610ff290614272565b60405180910390fd5b600360008373ffffffffffffffffffffffffffffffffffffffff1673ffffffffffffffffffffffffffffffffffffffff168152602001908152602001600020549050919050565b61104a611717565b6110546000611998565b565b600a5481565b6000600760009054906101000a900473ffffffffffffffffffffffffffffffffffffffff16905090565b61015e81565b60606001805461109b90613b7b565b80601f01602080910402602001604051908101604052809291908181526020018280546110c790613b7b565b80156111145780601f106110e957610100808354040283529160200191611114565b820191906000526020600020905b8154815290600101906020018083116110f757829003601f168201915b5050505050905090565b6040517f08c379a000000000000000000000000000000000000000000000000000000000815260040161115090614304565b60405180910390fd5b6040517f08c379a000000000000000000000000000000000000000000000000000000000815260040161118b90613f59565b60405180910390fd5b60006064905090565b6111a5611717565b6000600c80546111b490613b7b565b9050116111f6576040517f08c379a00000000000000000000000000000000000000000000000000000000081526004016111ed90614370565b60405180910390fd5b600073ffffffffffffffffffffffffffffffffffffffff16600d60009054906101000a900473ffffffffffffffffffffffffffffffffffffffff1673ffffffffffffffffffffffffffffffffffffffff1603611287576040517f08c379a000000000000000000000000000000000000000000000000000000000815260040161127e906143dc565b60405180910390fd5b600d60149054906101000a900460ff166112d6576040517f08c379a00000000000000000000000000000000000000000000000000000000081526004016112cd90614448565b60405180910390fd5b6001600b60006101000a81548160ff021916908315150217905550565b600b60009054906101000a900460ff1681565b61130e611717565b61139b858580806020026020016040519081016040528093929190818152602001838360200280828437600081840152601f19601f82011690508083019250505050505050848480806020026020016040519081016040528093929190818152602001838360200280828437600081840152601f19601f8201169050808301925050505050505083611a5e565b6001600d60146101000a81548160ff0219169083151502179055505050505050565b60606113c882611c31565b60006113d2611c7c565b905060008151116113f2576040518060200160405280600081525061141d565b806113fc84611d0e565b60405160200161140d9291906144a4565b6040516020818303038152906040525b915050919050565b61142d611717565b600073ffffffffffffffffffffffffffffffffffffffff168173ffffffffffffffffffffffffffffffffffffffff160361149c576040517f08c379a000000000000000000000000000000000000000000000000000000000815260040161149390614514565b60405180910390fd5b80600d60006101000a81548173ffffffffffffffffffffffffffffffffffffffff021916908373ffffffffffffffffffffffffffffffffffffffff16021790555050565b6114e8611717565b6000600a54141580156114fc5750600a5442115b15611533576040517f624b779500000000000000000000000000000000000000000000000000000000815260040160405180910390fd5b61153f84848484611ddc565b50505050565b6115528383836000611557565b505050565b61156384848484612180565b50505050565b600092915050565b611579611717565b600073ffffffffffffffffffffffffffffffffffffffff168173ffffffffffffffffffffffffffffffffffffffff16036115e8576040517f08c379a00000000000000000000000000000000000000000000000000000000081526004016115df906145a6565b60405180910390fd5b6115f181611998565b50565b60007f80ac58cd000000000000000000000000000000000000000000000000000000007bffffffffffffffffffffffffffffffffffffffffffffffffffffffff1916827bffffffffffffffffffffffffffffffffffffffffffffffffffffffff191614806116bf57507f5b5e139f000000000000000000000000000000000000000000000000000000007bffffffffffffffffffffffffffffffffffffffffffffffffffffffff1916827bffffffffffffffffffffffffffffffffffffffffffffffffffffffff1916145b806116cf57506116ce826121ea565b5b9050919050565b60008073ffffffffffffffffffffffffffffffffffffffff166116f88361195b565b73ffffffffffffffffffffffffffffffffffffffff1614159050919050565b61171f6117e4565b73ffffffffffffffffffffffffffffffffffffffff1661173d61105c565b73ffffffffffffffffffffffffffffffffffffffff1614611793576040517f08c379a000000000000000000000000000000000000000000000000000000000815260040161178a90614612565b60405180910390fd5b565b6002600854036117da576040517f08c379a00000000000000000000000000000000000000000000000000000000081526004016117d19061467e565b60405180910390fd5b6002600881905550565b600033905090565b6000806117fa858585612254565b90506000816000015190506118166118106117e4565b8261248d565b816020015173ffffffffffffffffffffffffffffffffffffffff16817f1e98ed4919fa421d4b871082794f2c63228dd0b5efb584e1a6131de3a7d26cb260405160405180910390a380925050509392505050565b600d60009054906101000a900473ffffffffffffffffffffffffffffffffffffffff1673ffffffffffffffffffffffffffffffffffffffff166342966c68826040518263ffffffff1660e01b81526004016118c591906131e2565b600060405180830381600087803b1580156118df57600080fd5b505af11580156118f3573d6000803e3d6000fd5b5050505050565b6001600881905550565b6000816040516020016119179190614715565b604051602081830303815290604052805190602001209050919050565b600080600061194385856126aa565b91509150611950816126fb565b819250505092915050565b60006002600083815260200190815260200160002060009054906101000a900473ffffffffffffffffffffffffffffffffffffffff169050919050565b6000600760009054906101000a900473ffffffffffffffffffffffffffffffffffffffff16905081600760006101000a81548173ffffffffffffffffffffffffffffffffffffffff021916908373ffffffffffffffffffffffffffffffffffffffff1602179055508173ffffffffffffffffffffffffffffffffffffffff168173ffffffffffffffffffffffffffffffffffffffff167f8be0079c531659141344cd1fd0a4f28419497f9722a3daafe3b4186f6b6457e060405160405180910390a35050565b60008251905083518114611a9e576040517fa24a13a600000000000000000000000000000000000000000000000000000000815260040160405180910390fd5b60005b81811015611c2a576000858281518110611abe57611abd61473b565b5b602002602001015190506000858381518110611add57611adc61473b565b5b60200260200101519050848015611af95750611af8816116d6565b5b15611b30576040517f3fc613e700000000000000000000000000000000000000000000000000000000815260040160405180910390fd5b60405180606001604052808281526020018373ffffffffffffffffffffffffffffffffffffffff16815260200160011515815250600660008473ffffffffffffffffffffffffffffffffffffffff1673ffffffffffffffffffffffffffffffffffffffff1681526020019081526020016000206000820151816000015560208201518160010160006101000a81548173ffffffffffffffffffffffffffffffffffffffff021916908373ffffffffffffffffffffffffffffffffffffffff16021790555060408201518160010160146101000a81548160ff021916908315150217905550905050505080611c2390614799565b9050611aa1565b5050505050565b611c3a816116d6565b611c79576040517f08c379a0000000000000000000000000000000000000000000000000000000008152600401611c7090613bf8565b60405180910390fd5b50565b6060600c8054611c8b90613b7b565b80601f0160208091040260200160405190810160405280929190818152602001828054611cb790613b7b565b8015611d045780601f10611cd957610100808354040283529160200191611d04565b820191906000526020600020905b815481529060010190602001808311611ce757829003601f168201915b5050505050905090565b606060006001611d1d84612861565b01905060008167ffffffffffffffff811115611d3c57611d3b61352e565b5b6040519080825280601f01601f191660200182016040528015611d6e5781602001600182028036833780820191505090505b509050600082602001820190505b600115611dd1578080600190039150507f3031323334353637383961626364656600000000000000000000000000000000600a86061a8153600a8581611dc557611dc46147e1565b5b04945060008503611d7c575b819350505050919050565b818190508484905014611e1b576040517fa24a13a600000000000000000000000000000000000000000000000000000000815260040160405180910390fd5b60005b84849050811015612179576000858583818110611e3e57611e3d61473b565b5b9050602002016020810190611e539190613390565b90506000600660008373ffffffffffffffffffffffffffffffffffffffff1673ffffffffffffffffffffffffffffffffffffffff168152602001908152602001600020604051806060016040529081600082015481526020016001820160009054906101000a900473ffffffffffffffffffffffffffffffffffffffff1673ffffffffffffffffffffffffffffffffffffffff1673ffffffffffffffffffffffffffffffffffffffff1681526020016001820160149054906101000a900460ff16151515158152505090508060400151611f59576040517f794ea60900000000000000000000000000000000000000000000000000000000815260040160405180910390fd5b6000858585818110611f6e57611f6d61473b565b5b9050602002016020810190611f839190613390565b905060008260000151905060405180606001604052808281526020018373ffffffffffffffffffffffffffffffffffffffff16815260200160011515815250600660008473ffffffffffffffffffffffffffffffffffffffff1673ffffffffffffffffffffffffffffffffffffffff1681526020019081526020016000206000820151816000015560208201518160010160006101000a81548173ffffffffffffffffffffffffffffffffffffffff021916908373ffffffffffffffffffffffffffffffffffffffff16021790555060408201518160010160146101000a81548160ff02191690831515021790555090505061207e816116d6565b156120df578173ffffffffffffffffffffffffffffffffffffffff168473ffffffffffffffffffffffffffffffffffffffff16827fcd66beec785ca42d0623b531cba30cb24eacae50d76d9301b6945341cbd5856560405160405180910390a45b600660008573ffffffffffffffffffffffffffffffffffffffff1673ffffffffffffffffffffffffffffffffffffffff1681526020019081526020016000206000808201600090556001820160006101000a81549073ffffffffffffffffffffffffffffffffffffffff02191690556001820160146101000a81549060ff02191690555050505050508061217290614799565b9050611e1e565b5050505050565b600061218d858585612254565b60000151905081156121c8576121c36121a582610e33565b6121ad6117e4565b83604051806020016040528060008152506129b4565b6121e3565b6121e26121d482610e33565b6121dc6117e4565b83612a10565b5b5050505050565b60007f01ffc9a7000000000000000000000000000000000000000000000000000000007bffffffffffffffffffffffffffffffffffffffffffffffffffffffff1916827bffffffffffffffffffffffffffffffffffffffffffffffffffffffff1916149050919050565b61225c6130c1565b814311612295576040517f4e47846c00000000000000000000000000000000000000000000000000000000815260040160405180910390fd5b61229d611194565b82430311156122d8576040517fa398a38e00000000000000000000000000000000000000000000000000000000815260040160405180910390fd5b60008240905060006123186122eb6117e4565b836040516020016122fd929190614858565b60405160208183030381529060405280519060200120611904565b9050600061237387878080601f016020809104026020016040519081016040528093929190818152602001838380828437600081840152601f19601f820116905080830192505050505050508361193490919063ffffffff16565b90506000600660008373ffffffffffffffffffffffffffffffffffffffff1673ffffffffffffffffffffffffffffffffffffffff168152602001908152602001600020604051806060016040529081600082015481526020016001820160009054906101000a900473ffffffffffffffffffffffffffffffffffffffff1673ffffffffffffffffffffffffffffffffffffffff1673ffffffffffffffffffffffffffffffffffffffff1681526020016001820160149054906101000a900460ff16151515158152505090508060400151156124545780945050505050612486565b6040517f8baa579f00000000000000000000000000000000000000000000000000000000815260040160405180910390fd5b9392505050565b600073ffffffffffffffffffffffffffffffffffffffff168273ffffffffffffffffffffffffffffffffffffffff16036124fc576040517f08c379a00000000000000000000000000000000000000000000000000000000081526004016124f3906148d0565b60405180910390fd5b612505816116d6565b15612545576040517f08c379a000000000000000000000000000000000000000000000000000000000815260040161253c9061493c565b60405180910390fd5b612553600083836001612d09565b61255c816116d6565b1561259c576040517f08c379a00000000000000000000000000000000000000000000000000000000081526004016125939061493c565b60405180910390fd5b6001600360008473ffffffffffffffffffffffffffffffffffffffff1673ffffffffffffffffffffffffffffffffffffffff16815260200190815260200160002060008282540192505081905550816002600083815260200190815260200160002060006101000a81548173ffffffffffffffffffffffffffffffffffffffff021916908373ffffffffffffffffffffffffffffffffffffffff160217905550808273ffffffffffffffffffffffffffffffffffffffff16600073ffffffffffffffffffffffffffffffffffffffff167fddf252ad1be2c89b69c2b068fc378daa952ba7f163c4a11628f55a4df523b3ef60405160405180910390a46126a6600083836001612e2f565b5050565b60008060418351036126eb5760008060006020860151925060408601519150606086015160001a90506126df87828585612e35565b945094505050506126f4565b60006002915091505b9250929050565b6000600481111561270f5761270e61495c565b5b8160048111156127225761272161495c565b5b031561285e576001600481111561273c5761273b61495c565b5b81600481111561274f5761274e61495c565b5b0361278f576040517f08c379a0000000000000000000000000000000000000000000000000000000008152600401612786906149d7565b60405180910390fd5b600260048111156127a3576127a261495c565b5b8160048111156127b6576127b561495c565b5b036127f6576040517f08c379a00000000000000000000000000000000000000000000000000000000081526004016127ed90614a43565b60405180910390fd5b6003600481111561280a5761280961495c565b5b81600481111561281d5761281c61495c565b5b0361285d576040517f08c379a000000000000000000000000000000000000000000000000000000000815260040161285490614ad5565b60405180910390fd5b5b50565b600080600090507a184f03e93ff9f4daa797ed6e38ed64bf6a1f01000000000000000083106128bf577a184f03e93ff9f4daa797ed6e38ed64bf6a1f01000000000000000083816128b5576128b46147e1565b5b0492506040810190505b6d04ee2d6d415b85acef810000000083106128fc576d04ee2d6d415b85acef810000000083816128f2576128f16147e1565b5b0492506020810190505b662386f26fc10000831061292b57662386f26fc100008381612921576129206147e1565b5b0492506010810190505b6305f5e1008310612954576305f5e100838161294a576129496147e1565b5b0492506008810190505b612710831061297957612710838161296f5761296e6147e1565b5b0492506004810190505b6064831061299c5760648381612992576129916147e1565b5b0492506002810190505b600a83106129ab576001810190505b80915050919050565b6129bf848484612a10565b6129cb84848484612f17565b612a0a576040517f08c379a0000000000000000000000000000000000000000000000000000000008152600401612a0190614b67565b60405180910390fd5b50505050565b8273ffffffffffffffffffffffffffffffffffffffff16612a3082610e33565b73ffffffffffffffffffffffffffffffffffffffff1614612a86576040517f08c379a0000000000000000000000000000000000000000000000000000000008152600401612a7d90614bf9565b60405180910390fd5b600073ffffffffffffffffffffffffffffffffffffffff168273ffffffffffffffffffffffffffffffffffffffff1603612af5576040517f08c379a0000000000000000000000000000000000000000000000000000000008152600401612aec90614c8b565b60405180910390fd5b612b028383836001612d09565b8273ffffffffffffffffffffffffffffffffffffffff16612b2282610e33565b73ffffffffffffffffffffffffffffffffffffffff1614612b78576040517f08c379a0000000000000000000000000000000000000000000000000000000008152600401612b6f90614bf9565b60405180910390fd5b6004600082815260200190815260200160002060006101000a81549073ffffffffffffffffffffffffffffffffffffffff02191690556001600360008573ffffffffffffffffffffffffffffffffffffffff1673ffffffffffffffffffffffffffffffffffffffff168152602001908152602001600020600082825403925050819055506001600360008473ffffffffffffffffffffffffffffffffffffffff1673ffffffffffffffffffffffffffffffffffffffff16815260200190815260200160002060008282540192505081905550816002600083815260200190815260200160002060006101000a81548173ffffffffffffffffffffffffffffffffffffffff021916908373ffffffffffffffffffffffffffffffffffffffff160217905550808273ffffffffffffffffffffffffffffffffffffffff168473ffffffffffffffffffffffffffffffffffffffff167fddf252ad1be2c89b69c2b068fc378daa952ba7f163c4a11628f55a4df523b3ef60405160405180910390a4612d048383836001612e2f565b505050565b6001811115612e2957600073ffffffffffffffffffffffffffffffffffffffff168473ffffffffffffffffffffffffffffffffffffffff1614612d9d5780600360008673ffffffffffffffffffffffffffffffffffffffff1673ffffffffffffffffffffffffffffffffffffffff1681526020019081526020016000206000828254612d959190614cab565b925050819055505b600073ffffffffffffffffffffffffffffffffffffffff168373ffffffffffffffffffffffffffffffffffffffff1614612e285780600360008573ffffffffffffffffffffffffffffffffffffffff1673ffffffffffffffffffffffffffffffffffffffff1681526020019081526020016000206000828254612e209190614cdf565b925050819055505b5b50505050565b50505050565b6000807f7fffffffffffffffffffffffffffffff5d576e7357a4501ddfe92f46681b20a08360001c1115612e70576000600391509150612f0e565b600060018787878760405160008152602001604052604051612e959493929190614d3e565b6020604051602081039080840390855afa158015612eb7573d6000803e3d6000fd5b505050602060405103519050600073ffffffffffffffffffffffffffffffffffffffff168173ffffffffffffffffffffffffffffffffffffffff1603612f0557600060019250925050612f0e565b80600092509250505b94509492505050565b6000612f388473ffffffffffffffffffffffffffffffffffffffff1661309e565b15613091578373ffffffffffffffffffffffffffffffffffffffff1663150b7a02612f616117e4565b8786866040518563ffffffff1660e01b8152600401612f839493929190614dd8565b6020604051808303816000875af1925050508015612fbf57506040513d601f19601f82011682018060405250810190612fbc9190614e39565b60015b613041573d8060008114612fef576040519150601f19603f3d011682016040523d82523d6000602084013e612ff4565b606091505b506000815103613039576040517f08c379a000000000000000000000000000000000000000000000000000000000815260040161303090614b67565b60405180910390fd5b805181602001fd5b63150b7a0260e01b7bffffffffffffffffffffffffffffffffffffffffffffffffffffffff1916817bffffffffffffffffffffffffffffffffffffffffffffffffffffffff191614915050613096565b600190505b949350505050565b6000808273ffffffffffffffffffffffffffffffffffffffff163b119050919050565b604051806060016040528060008152602001600073ffffffffffffffffffffffffffffffffffffffff1681526020016000151581525090565b6000604051905090565b600080fd5b600080fd5b60007fffffffff0000000000000000000000000000000000000000000000000000000082169050919050565b6131438161310e565b811461314e57600080fd5b50565b6000813590506131608161313a565b92915050565b60006020828403121561317c5761317b613104565b5b600061318a84828501613151565b91505092915050565b60008115159050919050565b6131a881613193565b82525050565b60006020820190506131c3600083018461319f565b92915050565b6000819050919050565b6131dc816131c9565b82525050565b60006020820190506131f760008301846131d3565b92915050565b600081519050919050565b600082825260208201905092915050565b60005b8381101561323757808201518184015260208101905061321c565b60008484015250505050565b6000601f19601f8301169050919050565b600061325f826131fd565b6132698185613208565b9350613279818560208601613219565b61328281613243565b840191505092915050565b600060208201905081810360008301526132a78184613254565b905092915050565b6132b8816131c9565b81146132c357600080fd5b50565b6000813590506132d5816132af565b92915050565b6000602082840312156132f1576132f0613104565b5b60006132ff848285016132c6565b91505092915050565b600073ffffffffffffffffffffffffffffffffffffffff82169050919050565b600061333382613308565b9050919050565b61334381613328565b82525050565b600060208201905061335e600083018461333a565b92915050565b61336d81613328565b811461337857600080fd5b50565b60008135905061338a81613364565b92915050565b6000602082840312156133a6576133a5613104565b5b60006133b48482850161337b565b91505092915050565b600080604083850312156133d4576133d3613104565b5b60006133e28582860161337b565b92505060206133f3858286016132c6565b9150509250929050565b60008060006060848603121561341657613415613104565b5b60006134248682870161337b565b93505060206134358682870161337b565b9250506040613446868287016132c6565b9150509250925092565b600080fd5b600080fd5b600080fd5b60008083601f84011261347557613474613450565b5b8235905067ffffffffffffffff81111561349257613491613455565b5b6020830191508360018202830111156134ae576134ad61345a565b5b9250929050565b600080600080606085870312156134cf576134ce613104565b5b60006134dd878288016132c6565b945050602085013567ffffffffffffffff8111156134fe576134fd613109565b5b61350a8782880161345f565b9350935050604061351d878288016132c6565b91505092959194509250565b600080fd5b7f4e487b7100000000000000000000000000000000000000000000000000000000600052604160045260246000fd5b61356682613243565b810181811067ffffffffffffffff821117156135855761358461352e565b5b80604052505050565b60006135986130fa565b90506135a4828261355d565b919050565b600067ffffffffffffffff8211156135c4576135c361352e565b5b6135cd82613243565b9050602081019050919050565b82818337600083830152505050565b60006135fc6135f7846135a9565b61358e565b90508281526020810184848401111561361857613617613529565b5b6136238482856135da565b509392505050565b600082601f8301126136405761363f613450565b5b81356136508482602086016135e9565b91505092915050565b60008060006060848603121561367257613671613104565b5b6000613680868287016132c6565b935050602084013567ffffffffffffffff8111156136a1576136a0613109565b5b6136ad8682870161362b565b925050604084013567ffffffffffffffff8111156136ce576136cd613109565b5b6136da8682870161362b565b9150509250925092565b60008083601f8401126136fa576136f9613450565b5b8235905067ffffffffffffffff81111561371757613716613455565b5b6020830191508360018202830111156137335761373261345a565b5b9250929050565b6000806020838503121561375157613750613104565b5b600083013567ffffffffffffffff81111561376f5761376e613109565b5b61377b858286016136e4565b92509250509250929050565b61379081613193565b811461379b57600080fd5b50565b6000813590506137ad81613787565b92915050565b600080604083850312156137ca576137c9613104565b5b60006137d88582860161337b565b92505060206137e98582860161379e565b9150509250929050565b6000806000806080858703121561380d5761380c613104565b5b600061381b8782880161337b565b945050602061382c8782880161337b565b935050604061383d878288016132c6565b925050606085013567ffffffffffffffff81111561385e5761385d613109565b5b61386a8782880161362b565b91505092959194509250565b60008083601f84011261388c5761388b613450565b5b8235905067ffffffffffffffff8111156138a9576138a8613455565b5b6020830191508360208202830111156138c5576138c461345a565b5b9250929050565b60008083601f8401126138e2576138e1613450565b5b8235905067ffffffffffffffff8111156138ff576138fe613455565b5b60208301915083602082028301111561391b5761391a61345a565b5b9250929050565b60008060008060006060868803121561393e5761393d613104565b5b600086013567ffffffffffffffff81111561395c5761395b613109565b5b61396888828901613876565b9550955050602086013567ffffffffffffffff81111561398b5761398a613109565b5b613997888289016138cc565b935093505060406139aa8882890161379e565b9150509295509295909350565b600080600080604085870312156139d1576139d0613104565b5b600085013567ffffffffffffffff8111156139ef576139ee613109565b5b6139fb87828801613876565b9450945050602085013567ffffffffffffffff811115613a1e57613a1d613109565b5b613a2a87828801613876565b925092505092959194509250565b600080600060408486031215613a5157613a50613104565b5b600084013567ffffffffffffffff811115613a6f57613a6e613109565b5b613a7b8682870161345f565b93509350506020613a8e868287016132c6565b9150509250925092565b60008060008060608587031215613ab257613ab1613104565b5b600085013567ffffffffffffffff811115613ad057613acf613109565b5b613adc8782880161345f565b94509450506020613aef878288016132c6565b9250506040613b008782880161379e565b91505092959194509250565b60008060408385031215613b2357613b22613104565b5b6000613b318582860161337b565b9250506020613b428582860161337b565b9150509250929050565b7f4e487b7100000000000000000000000000000000000000000000000000000000600052602260045260246000fd5b60006002820490506001821680613b9357607f821691505b602082108103613ba657613ba5613b4c565b5b50919050565b7f4552433732313a20696e76616c696420746f6b656e2049440000000000000000600082015250565b6000613be2601883613208565b9150613bed82613bac565b602082019050919050565b60006020820190508181036000830152613c1181613bd5565b9050919050565b7f455243373231207075626c696320617070726f7665206e6f7420616c6c6f776560008201527f6400000000000000000000000000000000000000000000000000000000000000602082015250565b6000613c74602183613208565b9150613c7f82613c18565b604082019050919050565b60006020820190508181036000830152613ca381613c67565b9050919050565b7f455243373231207075626c6963207472616e7366657246726f6d206e6f74206160008201527f6c6c6f7765640000000000000000000000000000000000000000000000000000602082015250565b6000613d06602683613208565b9150613d1182613caa565b604082019050919050565b60006020820190508181036000830152613d3581613cf9565b9050919050565b600081519050613d4b81613364565b92915050565b600060208284031215613d6757613d66613104565b5b6000613d7584828501613d3c565b91505092915050565b7f426c6f6f644f664d6f6c6f63683a206e6f74206f776e6572206f6620636c616960008201527f6d20746f6b656e00000000000000000000000000000000000000000000000000602082015250565b6000613dda602783613208565b9150613de582613d7e565b604082019050919050565b60006020820190508181036000830152613e0981613dcd565b9050919050565b6000604082019050613e25600083018561333a565b613e32602083018461333a565b9392505050565b600081519050613e4881613787565b92915050565b600060208284031215613e6457613e63613104565b5b6000613e7284828501613e39565b91505092915050565b7f426c6f6f644f664d6f6c6f63683a206e6f7420617070726f7665640000000000600082015250565b6000613eb1601b83613208565b9150613ebc82613e7b565b602082019050919050565b60006020820190508181036000830152613ee081613ea4565b9050919050565b7f455243373231207075626c696320736166655472616e7366657246726f6d206e60008201527f6f7420616c6c6f77656400000000000000000000000000000000000000000000602082015250565b6000613f43602a83613208565b9150613f4e82613ee7565b604082019050919050565b60006020820190508181036000830152613f7281613f36565b9050919050565b600082905092915050565b60008190508160005260206000209050919050565b60006020601f8301049050919050565b600082821b905092915050565b600060088302613fe67fffffffffffffffffffffffffffffffffffffffffffffffffffffffffffffffff82613fa9565b613ff08683613fa9565b95508019841693508086168417925050509392505050565b6000819050919050565b600061402d614028614023846131c9565b614008565b6131c9565b9050919050565b6000819050919050565b61404783614012565b61405b61405382614034565b848454613fb6565b825550505050565b600090565b614070614063565b61407b81848461403e565b505050565b5b8181101561409f57614094600082614068565b600181019050614081565b5050565b601f8211156140e4576140b581613f84565b6140be84613f99565b810160208510156140cd578190505b6140e16140d985613f99565b830182614080565b50505b505050565b600082821c905092915050565b6000614107600019846008026140e9565b1980831691505092915050565b600061412083836140f6565b9150826002028217905092915050565b61413a8383613f79565b67ffffffffffffffff8111156141535761415261352e565b5b61415d8254613b7b565b6141688282856140a3565b6000601f8311600181146141975760008415614185578287013590505b61418f8582614114565b8655506141f7565b601f1984166141a586613f84565b60005b828110156141cd578489013582556001820191506020850194506020810190506141a8565b868310156141ea57848901356141e6601f8916826140f6565b8355505b6001600288020188555050505b50505050505050565b7f4552433732313a2061646472657373207a65726f206973206e6f74206120766160008201527f6c6964206f776e65720000000000000000000000000000000000000000000000602082015250565b600061425c602983613208565b915061426782614200565b604082019050919050565b6000602082019050818103600083015261428b8161424f565b9050919050565b7f455243373231207075626c696320736574417070726f76616c466f72416c6c2060008201527f6e6f7420616c6c6f776564000000000000000000000000000000000000000000602082015250565b60006142ee602b83613208565b91506142f982614292565b604082019050919050565b6000602082019050818103600083015261431d816142e1565b9050919050565b7f426c6f6f644f664d6f6c6f63683a206e6f206261736520555249000000000000600082015250565b600061435a601a83613208565b915061436582614324565b602082019050919050565b600060208201905081810360008301526143898161434d565b9050919050565b7f426c6f6f644f664d6f6c6f63683a206e6f20636c61696d20746f6b656e000000600082015250565b60006143c6601d83613208565b91506143d182614390565b602082019050919050565b600060208201905081810360008301526143f5816143b9565b9050919050565b7f426c6f6f644f664d6f6c6f63683a206e6f206368697073207365656465640000600082015250565b6000614432601e83613208565b915061443d826143fc565b602082019050919050565b6000602082019050818103600083015261446181614425565b9050919050565b600081905092915050565b600061447e826131fd565b6144888185614468565b9350614498818560208601613219565b80840191505092915050565b60006144b08285614473565b91506144bc8284614473565b91508190509392505050565b7f426c6f6f644f664d6f6c6f63683a206e756c6c20616464726573730000000000600082015250565b60006144fe601b83613208565b9150614509826144c8565b602082019050919050565b6000602082019050818103600083015261452d816144f1565b9050919050565b7f4f776e61626c653a206e6577206f776e657220697320746865207a65726f206160008201527f6464726573730000000000000000000000000000000000000000000000000000602082015250565b6000614590602683613208565b915061459b82614534565b604082019050919050565b600060208201905081810360008301526145bf81614583565b9050919050565b7f4f776e61626c653a2063616c6c6572206973206e6f7420746865206f776e6572600082015250565b60006145fc602083613208565b9150614607826145c6565b602082019050919050565b6000602082019050818103600083015261462b816145ef565b9050919050565b7f5265656e7472616e637947756172643a207265656e7472616e742063616c6c00600082015250565b6000614668601f83613208565b915061467382614632565b602082019050919050565b600060208201905081810360008301526146978161465b565b9050919050565b7f19457468657265756d205369676e6564204d6573736167653a0a333200000000600082015250565b60006146d4601c83614468565b91506146df8261469e565b601c82019050919050565b6000819050919050565b6000819050919050565b61470f61470a826146ea565b6146f4565b82525050565b6000614720826146c7565b915061472c82846146fe565b60208201915081905092915050565b7f4e487b7100000000000000000000000000000000000000000000000000000000600052603260045260246000fd5b7f4e487b7100000000000000000000000000000000000000000000000000000000600052601160045260246000fd5b60006147a4826131c9565b91507fffffffffffffffffffffffffffffffffffffffffffffffffffffffffffffffff82036147d6576147d561476a565b5b600182019050919050565b7f4e487b7100000000000000000000000000000000000000000000000000000000600052601260045260246000fd5b60008160601b9050919050565b600061482882614810565b9050919050565b600061483a8261481d565b9050919050565b61485261484d82613328565b61482f565b82525050565b60006148648285614841565b60148201915061487482846146fe565b6020820191508190509392505050565b7f4552433732313a206d696e7420746f20746865207a65726f2061646472657373600082015250565b60006148ba602083613208565b91506148c582614884565b602082019050919050565b600060208201905081810360008301526148e9816148ad565b9050919050565b7f4552433732313a20746f6b656e20616c7265616479206d696e74656400000000600082015250565b6000614926601c83613208565b9150614931826148f0565b602082019050919050565b6000602082019050818103600083015261495581614919565b9050919050565b7f4e487b7100000000000000000000000000000000000000000000000000000000600052602160045260246000fd5b7f45434453413a20696e76616c6964207369676e61747572650000000000000000600082015250565b60006149c1601883613208565b91506149cc8261498b565b602082019050919050565b600060208201905081810360008301526149f0816149b4565b9050919050565b7f45434453413a20696e76616c6964207369676e6174757265206c656e67746800600082015250565b6000614a2d601f83613208565b9150614a38826149f7565b602082019050919050565b60006020820190508181036000830152614a5c81614a20565b9050919050565b7f45434453413a20696e76616c6964207369676e6174757265202773272076616c60008201527f7565000000000000000000000000000000000000000000000000000000000000602082015250565b6000614abf602283613208565b9150614aca82614a63565b604082019050919050565b60006020820190508181036000830152614aee81614ab2565b9050919050565b7f4552433732313a207472616e7366657220746f206e6f6e20455243373231526560008201527f63656976657220696d706c656d656e7465720000000000000000000000000000602082015250565b6000614b51603283613208565b9150614b5c82614af5565b604082019050919050565b60006020820190508181036000830152614b8081614b44565b9050919050565b7f4552433732313a207472616e736665722066726f6d20696e636f72726563742060008201527f6f776e6572000000000000000000000000000000000000000000000000000000602082015250565b6000614be3602583613208565b9150614bee82614b87565b604082019050919050565b60006020820190508181036000830152614c1281614bd6565b9050919050565b7f4552433732313a207472616e7366657220746f20746865207a65726f2061646460008201527f7265737300000000000000000000000000000000000000000000000000000000602082015250565b6000614c75602483613208565b9150614c8082614c19565b604082019050919050565b60006020820190508181036000830152614ca481614c68565b9050919050565b6000614cb6826131c9565b9150614cc1836131c9565b9250828203905081811115614cd957614cd861476a565b5b92915050565b6000614cea826131c9565b9150614cf5836131c9565b9250828201905080821115614d0d57614d0c61476a565b5b92915050565b614d1c816146ea565b82525050565b600060ff82169050919050565b614d3881614d22565b82525050565b6000608082019050614d536000830187614d13565b614d606020830186614d2f565b614d6d6040830185614d13565b614d7a6060830184614d13565b95945050505050565b600081519050919050565b600082825260208201905092915050565b6000614daa82614d83565b614db48185614d8e565b9350614dc4818560208601613219565b614dcd81613243565b840191505092915050565b6000608082019050614ded600083018761333a565b614dfa602083018661333a565b614e0760408301856131d3565b8181036060830152614e198184614d9f565b905095945050505050565b600081519050614e338161313a565b92915050565b600060208284031215614e4f57614e4e613104565b5b6000614e5d84828501614e24565b9150509291505056fea2646970667358221220a1302e6818b05989a8ada442b89d6d6b30a05f8e0722cd14feb60b0797d16c4564736f6c63430008110033",
  "linkReferences": {},
  "deployedLinkReferences": {}
}