{
  "_format": "hh-sol-artifact-1",
  "contractName": "BloodOfMolochPBT",
  "sourceName": "contracts/BloodOfMolochPBT.sol",
  "abi": [
    {
      "inputs": [],
      "stateMutability": "nonpayable",
      "type": "constructor"
    },
    {
      "inputs": [],
      "name": "ArrayLengthMismatch",
      "type": "error"
    },
    {
      "inputs": [],
      "name": "BlockNumberTooOld",
      "type": "error"
    },
    {
      "inputs": [],
      "name": "CannotMakeChanges",
      "type": "error"
    },
    {
      "inputs": [],
      "name": "CannotUpdateDeadline",
      "type": "error"
    },
    {
      "inputs": [],
      "name": "InvalidBlockNumber",
      "type": "error"
    },
    {
      "inputs": [],
      "name": "InvalidSignature",
      "type": "error"
    },
    {
      "inputs": [],
      "name": "MintNotOpen",
      "type": "error"
    },
    {
      "inputs": [],
      "name": "NoClaimToken",
      "type": "error"
    },
    {
      "inputs": [],
      "name": "NoMappedTokenForChip",
      "type": "error"
    },
    {
      "inputs": [],
      "name": "NoMintedTokenForChip",
      "type": "error"
    },
    {
      "inputs": [],
      "name": "SeedingChipDataForExistingToken",
      "type": "error"
    },
    {
      "inputs": [],
      "name": "TotalSupplyReached",
      "type": "error"
    },
    {
      "inputs": [],
      "name": "UpdatingChipForUnsetChipMapping",
      "type": "error"
    },
    {
      "anonymous": false,
      "inputs": [
        {
          "indexed": true,
          "internalType": "address",
          "name": "owner",
          "type": "address"
        },
        {
          "indexed": true,
          "internalType": "address",
          "name": "approved",
          "type": "address"
        },
        {
          "indexed": true,
          "internalType": "uint256",
          "name": "tokenId",
          "type": "uint256"
        }
      ],
      "name": "Approval",
      "type": "event"
    },
    {
      "anonymous": false,
      "inputs": [
        {
          "indexed": true,
          "internalType": "address",
          "name": "owner",
          "type": "address"
        },
        {
          "indexed": true,
          "internalType": "address",
          "name": "operator",
          "type": "address"
        },
        {
          "indexed": false,
          "internalType": "bool",
          "name": "approved",
          "type": "bool"
        }
      ],
      "name": "ApprovalForAll",
      "type": "event"
    },
    {
      "anonymous": false,
      "inputs": [
        {
          "indexed": true,
          "internalType": "address",
          "name": "from",
          "type": "address"
        },
        {
          "indexed": false,
          "internalType": "uint256",
          "name": "tokenId",
          "type": "uint256"
        },
        {
          "indexed": true,
          "internalType": "address",
          "name": "claimToken",
          "type": "address"
        }
      ],
      "name": "Burn",
      "type": "event"
    },
    {
      "anonymous": false,
      "inputs": [
        {
          "indexed": true,
          "internalType": "address",
          "name": "previousOwner",
          "type": "address"
        },
        {
          "indexed": true,
          "internalType": "address",
          "name": "newOwner",
          "type": "address"
        }
      ],
      "name": "OwnershipTransferred",
      "type": "event"
    },
    {
      "anonymous": false,
      "inputs": [
        {
          "indexed": true,
          "internalType": "uint256",
          "name": "tokenId",
          "type": "uint256"
        },
        {
          "indexed": true,
          "internalType": "address",
          "name": "oldChipAddress",
          "type": "address"
        },
        {
          "indexed": true,
          "internalType": "address",
          "name": "newChipAddress",
          "type": "address"
        }
      ],
      "name": "PBTChipRemapping",
      "type": "event"
    },
    {
      "anonymous": false,
      "inputs": [
        {
          "indexed": true,
          "internalType": "uint256",
          "name": "tokenId",
          "type": "uint256"
        },
        {
          "indexed": true,
          "internalType": "address",
          "name": "chipAddress",
          "type": "address"
        }
      ],
      "name": "PBTMint",
      "type": "event"
    },
    {
      "anonymous": false,
      "inputs": [
        {
          "indexed": true,
          "internalType": "address",
          "name": "from",
          "type": "address"
        },
        {
          "indexed": true,
          "internalType": "address",
          "name": "to",
          "type": "address"
        },
        {
          "indexed": true,
          "internalType": "uint256",
          "name": "tokenId",
          "type": "uint256"
        }
      ],
      "name": "Transfer",
      "type": "event"
    },
    {
      "inputs": [],
      "name": "TOTAL_SUPPLY",
      "outputs": [
        {
          "internalType": "uint256",
          "name": "",
          "type": "uint256"
        }
      ],
      "stateMutability": "view",
      "type": "function"
    },
    {
      "inputs": [
        {
          "internalType": "address",
          "name": "to",
          "type": "address"
        },
        {
          "internalType": "uint256",
          "name": "tokenId",
          "type": "uint256"
        }
      ],
      "name": "approve",
      "outputs": [],
      "stateMutability": "nonpayable",
      "type": "function"
    },
    {
      "inputs": [
        {
          "internalType": "address",
          "name": "owner",
          "type": "address"
        }
      ],
      "name": "balanceOf",
      "outputs": [
        {
          "internalType": "uint256",
          "name": "",
          "type": "uint256"
        }
      ],
      "stateMutability": "view",
      "type": "function"
    },
    {
      "inputs": [],
      "name": "canMint",
      "outputs": [
        {
          "internalType": "bool",
          "name": "",
          "type": "bool"
        }
      ],
      "stateMutability": "view",
      "type": "function"
    },
    {
      "inputs": [],
      "name": "changeDeadline",
      "outputs": [
        {
          "internalType": "uint256",
          "name": "",
          "type": "uint256"
        }
      ],
      "stateMutability": "view",
      "type": "function"
    },
    {
      "inputs": [
        {
          "internalType": "uint256",
          "name": "tokenId",
          "type": "uint256"
        }
      ],
      "name": "getApproved",
      "outputs": [
        {
          "internalType": "address",
          "name": "",
          "type": "address"
        }
      ],
      "stateMutability": "view",
      "type": "function"
    },
    {
      "inputs": [],
      "name": "getMaxBlockhashValidWindow",
      "outputs": [
        {
          "internalType": "uint256",
          "name": "",
          "type": "uint256"
        }
      ],
      "stateMutability": "pure",
      "type": "function"
    },
    {
      "inputs": [
        {
          "internalType": "address",
          "name": "owner",
          "type": "address"
        },
        {
          "internalType": "address",
          "name": "operator",
          "type": "address"
        }
      ],
      "name": "isApprovedForAll",
      "outputs": [
        {
          "internalType": "bool",
          "name": "",
          "type": "bool"
        }
      ],
      "stateMutability": "view",
      "type": "function"
    },
    {
      "inputs": [
        {
          "internalType": "uint256",
          "name": "tokenId",
          "type": "uint256"
        },
        {
          "internalType": "bytes",
          "name": "payload",
          "type": "bytes"
        },
        {
          "internalType": "bytes",
          "name": "signature",
          "type": "bytes"
        }
      ],
      "name": "isChipSignatureForToken",
      "outputs": [
        {
          "internalType": "bool",
          "name": "",
          "type": "bool"
        }
      ],
      "stateMutability": "view",
      "type": "function"
    },
    {
      "inputs": [
        {
          "internalType": "uint256",
          "name": "claimTokenId",
          "type": "uint256"
        },
        {
          "internalType": "bytes",
          "name": "signatureFromChip",
          "type": "bytes"
        },
        {
          "internalType": "uint256",
          "name": "blockHashUsedInSig",
          "type": "uint256"
        }
      ],
      "name": "mint",
      "outputs": [],
      "stateMutability": "nonpayable",
      "type": "function"
    },
    {
      "inputs": [],
      "name": "name",
      "outputs": [
        {
          "internalType": "string",
          "name": "",
          "type": "string"
        }
      ],
      "stateMutability": "view",
      "type": "function"
    },
    {
      "inputs": [],
      "name": "openMint",
      "outputs": [],
      "stateMutability": "nonpayable",
      "type": "function"
    },
    {
      "inputs": [],
      "name": "owner",
      "outputs": [
        {
          "internalType": "address",
          "name": "",
          "type": "address"
        }
      ],
      "stateMutability": "view",
      "type": "function"
    },
    {
      "inputs": [
        {
          "internalType": "uint256",
          "name": "tokenId",
          "type": "uint256"
        }
      ],
      "name": "ownerOf",
      "outputs": [
        {
          "internalType": "address",
          "name": "",
          "type": "address"
        }
      ],
      "stateMutability": "view",
      "type": "function"
    },
    {
      "inputs": [],
      "name": "renounceOwnership",
      "outputs": [],
      "stateMutability": "nonpayable",
      "type": "function"
    },
    {
      "inputs": [
        {
          "internalType": "address",
          "name": "from",
          "type": "address"
        },
        {
          "internalType": "address",
          "name": "to",
          "type": "address"
        },
        {
          "internalType": "uint256",
          "name": "tokenId",
          "type": "uint256"
        }
      ],
      "name": "safeTransferFrom",
      "outputs": [],
      "stateMutability": "nonpayable",
      "type": "function"
    },
    {
      "inputs": [
        {
          "internalType": "address",
          "name": "from",
          "type": "address"
        },
        {
          "internalType": "address",
          "name": "to",
          "type": "address"
        },
        {
          "internalType": "uint256",
          "name": "tokenId",
          "type": "uint256"
        },
        {
          "internalType": "bytes",
          "name": "data",
          "type": "bytes"
        }
      ],
      "name": "safeTransferFrom",
      "outputs": [],
      "stateMutability": "nonpayable",
      "type": "function"
    },
    {
      "inputs": [
        {
          "internalType": "address[]",
          "name": "chipAddresses",
          "type": "address[]"
        },
        {
          "internalType": "uint256[]",
          "name": "tokenIds",
          "type": "uint256[]"
        },
        {
          "internalType": "bool",
          "name": "throwIfTokenAlreadyMinted",
          "type": "bool"
        }
      ],
      "name": "seedChipToTokenMapping",
      "outputs": [],
      "stateMutability": "nonpayable",
      "type": "function"
    },
    {
      "inputs": [
        {
          "internalType": "address",
          "name": "operator",
          "type": "address"
        },
        {
          "internalType": "bool",
          "name": "approved",
          "type": "bool"
        }
      ],
      "name": "setApprovalForAll",
      "outputs": [],
      "stateMutability": "nonpayable",
      "type": "function"
    },
    {
      "inputs": [
        {
          "internalType": "string",
          "name": "baseURI",
          "type": "string"
        }
      ],
      "name": "setBaseURI",
      "outputs": [],
      "stateMutability": "nonpayable",
      "type": "function"
    },
    {
      "inputs": [
        {
          "internalType": "uint256",
          "name": "timestamp",
          "type": "uint256"
        }
      ],
      "name": "setChangeDeadline",
      "outputs": [],
      "stateMutability": "nonpayable",
      "type": "function"
    },
    {
      "inputs": [
        {
          "internalType": "address",
          "name": "tokenAddress",
          "type": "address"
        }
      ],
      "name": "setClaimToken",
      "outputs": [],
      "stateMutability": "nonpayable",
      "type": "function"
    },
    {
      "inputs": [],
      "name": "supply",
      "outputs": [
        {
          "internalType": "uint256",
          "name": "",
          "type": "uint256"
        }
      ],
      "stateMutability": "view",
      "type": "function"
    },
    {
      "inputs": [
        {
          "internalType": "bytes4",
          "name": "interfaceId",
          "type": "bytes4"
        }
      ],
      "name": "supportsInterface",
      "outputs": [
        {
          "internalType": "bool",
          "name": "",
          "type": "bool"
        }
      ],
      "stateMutability": "view",
      "type": "function"
    },
    {
      "inputs": [],
      "name": "symbol",
      "outputs": [
        {
          "internalType": "string",
          "name": "",
          "type": "string"
        }
      ],
      "stateMutability": "view",
      "type": "function"
    },
    {
      "inputs": [
        {
          "internalType": "address",
          "name": "chipAddress",
          "type": "address"
        }
      ],
      "name": "tokenIdFor",
      "outputs": [
        {
          "internalType": "uint256",
          "name": "",
          "type": "uint256"
        }
      ],
      "stateMutability": "view",
      "type": "function"
    },
    {
      "inputs": [
        {
          "internalType": "address",
          "name": "chipAddress",
          "type": "address"
        }
      ],
      "name": "tokenIdMappedFor",
      "outputs": [
        {
          "internalType": "uint256",
          "name": "",
          "type": "uint256"
        }
      ],
      "stateMutability": "view",
      "type": "function"
    },
    {
      "inputs": [
        {
          "internalType": "uint256",
          "name": "tokenId",
          "type": "uint256"
        }
      ],
      "name": "tokenURI",
      "outputs": [
        {
          "internalType": "string",
          "name": "",
          "type": "string"
        }
      ],
      "stateMutability": "view",
      "type": "function"
    },
    {
      "inputs": [
        {
          "internalType": "address",
          "name": "from",
          "type": "address"
        },
        {
          "internalType": "address",
          "name": "to",
          "type": "address"
        },
        {
          "internalType": "uint256",
          "name": "tokenId",
          "type": "uint256"
        }
      ],
      "name": "transferFrom",
      "outputs": [],
      "stateMutability": "nonpayable",
      "type": "function"
    },
    {
      "inputs": [
        {
          "internalType": "address",
          "name": "newOwner",
          "type": "address"
        }
      ],
      "name": "transferOwnership",
      "outputs": [],
      "stateMutability": "nonpayable",
      "type": "function"
    },
    {
      "inputs": [
        {
          "internalType": "bytes",
          "name": "signatureFromChip",
          "type": "bytes"
        },
        {
          "internalType": "uint256",
          "name": "blockNumberUsedInSig",
          "type": "uint256"
        }
      ],
      "name": "transferTokenWithChip",
      "outputs": [],
      "stateMutability": "nonpayable",
      "type": "function"
    },
    {
      "inputs": [
        {
          "internalType": "bytes",
          "name": "signatureFromChip",
          "type": "bytes"
        },
        {
          "internalType": "uint256",
          "name": "blockNumberUsedInSig",
          "type": "uint256"
        },
        {
          "internalType": "bool",
          "name": "useSafeTransferFrom",
          "type": "bool"
        }
      ],
      "name": "transferTokenWithChip",
      "outputs": [],
      "stateMutability": "nonpayable",
      "type": "function"
    },
    {
      "inputs": [
        {
          "internalType": "address[]",
          "name": "chipAddressesOld",
          "type": "address[]"
        },
        {
          "internalType": "address[]",
          "name": "chipAddressesNew",
          "type": "address[]"
        }
      ],
      "name": "updateChips",
      "outputs": [],
      "stateMutability": "nonpayable",
      "type": "function"
    }
  ],
  "bytecode": "0x60806040523480156200001157600080fd5b506040518060400160405280600f81526020017f426c6f6f64206f66204d6f6c6f636800000000000000000000000000000000008152506040518060400160405280600381526020017f426f4d000000000000000000000000000000000000000000000000000000000081525081818181816000908162000093919062000422565b508060019081620000a5919062000422565b50505050505050620000cc620000c0620000da60201b60201c565b620000e260201b60201c565b600160088190555062000509565b600033905090565b6000600760009054906101000a900473ffffffffffffffffffffffffffffffffffffffff16905081600760006101000a81548173ffffffffffffffffffffffffffffffffffffffff021916908373ffffffffffffffffffffffffffffffffffffffff1602179055508173ffffffffffffffffffffffffffffffffffffffff168173ffffffffffffffffffffffffffffffffffffffff167f8be0079c531659141344cd1fd0a4f28419497f9722a3daafe3b4186f6b6457e060405160405180910390a35050565b600081519050919050565b7f4e487b7100000000000000000000000000000000000000000000000000000000600052604160045260246000fd5b7f4e487b7100000000000000000000000000000000000000000000000000000000600052602260045260246000fd5b600060028204905060018216806200022a57607f821691505b60208210810362000240576200023f620001e2565b5b50919050565b60008190508160005260206000209050919050565b60006020601f8301049050919050565b600082821b905092915050565b600060088302620002aa7fffffffffffffffffffffffffffffffffffffffffffffffffffffffffffffffff826200026b565b620002b686836200026b565b95508019841693508086168417925050509392505050565b6000819050919050565b6000819050919050565b600062000303620002fd620002f784620002ce565b620002d8565b620002ce565b9050919050565b6000819050919050565b6200031f83620002e2565b620003376200032e826200030a565b84845462000278565b825550505050565b600090565b6200034e6200033f565b6200035b81848462000314565b505050565b5b8181101562000383576200037760008262000344565b60018101905062000361565b5050565b601f821115620003d2576200039c8162000246565b620003a7846200025b565b81016020851015620003b7578190505b620003cf620003c6856200025b565b83018262000360565b50505b505050565b600082821c905092915050565b6000620003f760001984600802620003d7565b1980831691505092915050565b6000620004128383620003e4565b9150826002028217905092915050565b6200042d82620001a8565b67ffffffffffffffff811115620004495762000448620001b3565b5b62000455825462000211565b6200046282828562000387565b600060209050601f8311600181146200049a576000841562000485578287015190505b62000491858262000404565b86555062000501565b601f198416620004aa8662000246565b60005b82811015620004d457848901518255600182019150602085019450602081019050620004ad565b86831015620004f45784890151620004f0601f891682620003e4565b8355505b6001600288020188555050505b505050505050565b614f2a80620005196000396000f3fe608060405234801561001057600080fd5b50600436106101fb5760003560e01c80637fd5e8311161011a578063beb9716d116100ad578063d30d520c1161007c578063d30d520c1461059c578063d67d13ad146105b8578063dcf960ee146105d4578063e985e9c5146105f0578063f2fde38b14610620576101fb565b8063beb9716d14610516578063c7e460ba14610534578063c87b56dd14610550578063c8afb52014610580576101fb565b8063a22cb465116100e9578063a22cb465146104b6578063b88d4fde146104d2578063ba70316f146104ee578063bce6d6721461050c576101fb565b80637fd5e8311461043e5780638da5cb5b1461045c578063902d55a51461047a57806395d89b4114610498576101fb565b80632e87871d116101925780636352211e116101615780636352211e146103a45780636b953dd8146103d457806370a0823114610404578063715018a614610434576101fb565b80632e87871d1461032057806342842e0e1461033c5780634b5f42ea1461035857806355f804b314610388576101fb565b806308daee36116101ce57806308daee361461029c578063095ea7b3146102cc57806323b872dd146102e857806329760b4014610304576101fb565b806301ffc9a714610200578063047fc9aa1461023057806306fdde031461024e578063081812fc1461026c575b600080fd5b61021a600480360381019061021591906131f4565b61063c565b604051610227919061323c565b60405180910390f35b6102386106b6565b6040516102459190613270565b60405180910390f35b6102566106bc565b604051610263919061331b565b60405180910390f35b61028660048036038101906102819190613369565b61074e565b60405161029391906133d7565b60405180910390f35b6102b660048036038101906102b1919061341e565b6107a1565b6040516102c39190613270565b60405180910390f35b6102e660048036038101906102e1919061344b565b6107f7565b005b61030260048036038101906102fd919061348b565b610832565b005b61031e60048036038101906103199190613369565b61086d565b005b61033a60048036038101906103359190613543565b6108bb565b005b6103566004803603810190610351919061348b565b610cc6565b005b610372600480360381019061036d91906136e7565b610d01565b60405161037f919061323c565b60405180910390f35b6103a2600480360381019061039d91906137c8565b610e15565b005b6103be60048036038101906103b99190613369565b610e33565b6040516103cb91906133d7565b60405180910390f35b6103ee60048036038101906103e9919061341e565b610eb9565b6040516103fb9190613270565b60405180910390f35b61041e6004803603810190610419919061341e565b610f8b565b60405161042b9190613270565b60405180910390f35b61043c611042565b005b610446611056565b6040516104539190613270565b60405180910390f35b61046461105c565b60405161047191906133d7565b60405180910390f35b610482611086565b60405161048f9190613270565b60405180910390f35b6104a061108c565b6040516104ad919061331b565b60405180910390f35b6104d060048036038101906104cb9190613841565b61111e565b005b6104ec60048036038101906104e79190613881565b611159565b005b6104f6611194565b6040516105039190613270565b60405180910390f35b61051461119d565b005b61051e6112f3565b60405161052b919061323c565b60405180910390f35b61054e600480360381019061054991906139b0565b611306565b005b61056a60048036038101906105659190613369565b6113bd565b604051610577919061331b565b60405180910390f35b61059a6004803603810190610595919061341e565b611425565b005b6105b660048036038101906105b19190613a45565b6114e0565b005b6105d260048036038101906105cd9190613ac6565b611545565b005b6105ee60048036038101906105e99190613b26565b611557565b005b61060a60048036038101906106059190613b9a565b611569565b604051610617919061323c565b60405180910390f35b61063a6004803603810190610635919061341e565b611571565b005b60007f4901df9f000000000000000000000000000000000000000000000000000000007bffffffffffffffffffffffffffffffffffffffffffffffffffffffff1916827bffffffffffffffffffffffffffffffffffffffffffffffffffffffff191614806106af57506106ae826115f4565b5b9050919050565b60095481565b6060600080546106cb90613c09565b80601f01602080910402602001604051908101604052809291908181526020018280546106f790613c09565b80156107445780601f1061071957610100808354040283529160200191610744565b820191906000526020600020905b81548152906001019060200180831161072757829003601f168201915b5050505050905090565b6000610759826116d6565b610798576040517f08c379a000000000000000000000000000000000000000000000000000000000815260040161078f90613c86565b60405180910390fd5b60009050919050565b6000806107ad83610eb9565b90506107b8816116d6565b6107ee576040517f74903fe400000000000000000000000000000000000000000000000000000000815260040160405180910390fd5b80915050919050565b6040517f08c379a000000000000000000000000000000000000000000000000000000000815260040161082990613d18565b60405180910390fd5b6040517f08c379a000000000000000000000000000000000000000000000000000000000815260040161086490613daa565b60405180910390fd5b610875611717565b6000600a54146108b1576040517fdd5bc7e600000000000000000000000000000000000000000000000000000000815260040160405180910390fd5b80600a8190555050565b6108c3611795565b600b60009054906101000a900460ff16610909576040517f951b974f00000000000000000000000000000000000000000000000000000000815260040160405180910390fd5b61015e60095403610946576040517f7be9badb00000000000000000000000000000000000000000000000000000000815260040160405180910390fd5b600073ffffffffffffffffffffffffffffffffffffffff16600d60009054906101000a900473ffffffffffffffffffffffffffffffffffffffff1673ffffffffffffffffffffffffffffffffffffffff16036109ce576040517f73364eef00000000000000000000000000000000000000000000000000000000815260040160405180910390fd5b6109d66117e4565b73ffffffffffffffffffffffffffffffffffffffff16600d60009054906101000a900473ffffffffffffffffffffffffffffffffffffffff1673ffffffffffffffffffffffffffffffffffffffff16636352211e866040518263ffffffff1660e01b8152600401610a479190613270565b602060405180830381865afa158015610a64573d6000803e3d6000fd5b505050506040513d601f19601f82011682018060405250810190610a889190613ddf565b73ffffffffffffffffffffffffffffffffffffffff1614610ade576040517f08c379a0000000000000000000000000000000000000000000000000000000008152600401610ad590613e7e565b60405180910390fd5b600d60009054906101000a900473ffffffffffffffffffffffffffffffffffffffff1673ffffffffffffffffffffffffffffffffffffffff1663e985e9c5610b246117e4565b306040518363ffffffff1660e01b8152600401610b42929190613e9e565b602060405180830381865afa158015610b5f573d6000803e3d6000fd5b505050506040513d601f19601f82011682018060405250810190610b839190613edc565b80610c5457503073ffffffffffffffffffffffffffffffffffffffff16600d60009054906101000a900473ffffffffffffffffffffffffffffffffffffffff1673ffffffffffffffffffffffffffffffffffffffff1663081812fc866040518263ffffffff1660e01b8152600401610bfb9190613270565b602060405180830381865afa158015610c18573d6000803e3d6000fd5b505050506040513d601f19601f82011682018060405250810190610c3c9190613ddf565b73ffffffffffffffffffffffffffffffffffffffff16145b610c93576040517f08c379a0000000000000000000000000000000000000000000000000000000008152600401610c8a90613f55565b60405180910390fd5b610c9e8383836117ec565b50610ca88461186a565b60096000815460010191905081905550610cc0611988565b50505050565b6040517f08c379a0000000000000000000000000000000000000000000000000000000008152600401610cf890613fe7565b60405180910390fd5b6000610d0c846116d6565b610d42576040517f74903fe400000000000000000000000000000000000000000000000000000000815260040160405180910390fd5b6000610d548480519060200120611992565b90506000610d6b84836119c290919063ffffffff16565b9050600660008273ffffffffffffffffffffffffffffffffffffffff1673ffffffffffffffffffffffffffffffffffffffff16815260200190815260200160002060010160149054906101000a900460ff168015610e0a575085600660008373ffffffffffffffffffffffffffffffffffffffff1673ffffffffffffffffffffffffffffffffffffffff16815260200190815260200160002060000154145b925050509392505050565b610e1d611717565b8181600c9182610e2e9291906141be565b505050565b600080610e3f836119e9565b9050600073ffffffffffffffffffffffffffffffffffffffff168173ffffffffffffffffffffffffffffffffffffffff1603610eb0576040517f08c379a0000000000000000000000000000000000000000000000000000000008152600401610ea790613c86565b60405180910390fd5b80915050919050565b6000600660008373ffffffffffffffffffffffffffffffffffffffff1673ffffffffffffffffffffffffffffffffffffffff16815260200190815260200160002060010160149054906101000a900460ff16610f41576040517f0239974700000000000000000000000000000000000000000000000000000000815260040160405180910390fd5b600660008373ffffffffffffffffffffffffffffffffffffffff1673ffffffffffffffffffffffffffffffffffffffff168152602001908152602001600020600001549050919050565b60008073ffffffffffffffffffffffffffffffffffffffff168273ffffffffffffffffffffffffffffffffffffffff1603610ffb576040517f08c379a0000000000000000000000000000000000000000000000000000000008152600401610ff290614300565b60405180910390fd5b600360008373ffffffffffffffffffffffffffffffffffffffff1673ffffffffffffffffffffffffffffffffffffffff168152602001908152602001600020549050919050565b61104a611717565b6110546000611a26565b565b600a5481565b6000600760009054906101000a900473ffffffffffffffffffffffffffffffffffffffff16905090565b61015e81565b60606001805461109b90613c09565b80601f01602080910402602001604051908101604052809291908181526020018280546110c790613c09565b80156111145780601f106110e957610100808354040283529160200191611114565b820191906000526020600020905b8154815290600101906020018083116110f757829003601f168201915b5050505050905090565b6040517f08c379a000000000000000000000000000000000000000000000000000000000815260040161115090614392565b60405180910390fd5b6040517f08c379a000000000000000000000000000000000000000000000000000000000815260040161118b90613fe7565b60405180910390fd5b60006064905090565b6111a5611717565b6000600c80546111b490613c09565b9050116111f6576040517f08c379a00000000000000000000000000000000000000000000000000000000081526004016111ed906143fe565b60405180910390fd5b600073ffffffffffffffffffffffffffffffffffffffff16600d60009054906101000a900473ffffffffffffffffffffffffffffffffffffffff1673ffffffffffffffffffffffffffffffffffffffff1603611287576040517f08c379a000000000000000000000000000000000000000000000000000000000815260040161127e9061446a565b60405180910390fd5b600d60149054906101000a900460ff166112d6576040517f08c379a00000000000000000000000000000000000000000000000000000000081526004016112cd906144d6565b60405180910390fd5b6001600b60006101000a81548160ff021916908315150217905550565b600b60009054906101000a900460ff1681565b61130e611717565b61139b858580806020026020016040519081016040528093929190818152602001838360200280828437600081840152601f19601f82011690508083019250505050505050848480806020026020016040519081016040528093929190818152602001838360200280828437600081840152601f19601f8201169050808301925050505050505083611aec565b6001600d60146101000a81548160ff0219169083151502179055505050505050565b60606113c882611cbf565b60006113d2611d0a565b905060008151116113f2576040518060200160405280600081525061141d565b806113fc84611d9c565b60405160200161140d929190614532565b6040516020818303038152906040525b915050919050565b61142d611717565b600073ffffffffffffffffffffffffffffffffffffffff168173ffffffffffffffffffffffffffffffffffffffff160361149c576040517f08c379a0000000000000000000000000000000000000000000000000000000008152600401611493906145a2565b60405180910390fd5b80600d60006101000a81548173ffffffffffffffffffffffffffffffffffffffff021916908373ffffffffffffffffffffffffffffffffffffffff16021790555050565b6114e8611717565b6000600a54141580156114fc5750600a5442115b15611533576040517f624b779500000000000000000000000000000000000000000000000000000000815260040160405180910390fd5b61153f84848484611e6a565b50505050565b6115528383836000611557565b505050565b6115638484848461220e565b50505050565b600092915050565b611579611717565b600073ffffffffffffffffffffffffffffffffffffffff168173ffffffffffffffffffffffffffffffffffffffff16036115e8576040517f08c379a00000000000000000000000000000000000000000000000000000000081526004016115df90614634565b60405180910390fd5b6115f181611a26565b50565b60007f80ac58cd000000000000000000000000000000000000000000000000000000007bffffffffffffffffffffffffffffffffffffffffffffffffffffffff1916827bffffffffffffffffffffffffffffffffffffffffffffffffffffffff191614806116bf57507f5b5e139f000000000000000000000000000000000000000000000000000000007bffffffffffffffffffffffffffffffffffffffffffffffffffffffff1916827bffffffffffffffffffffffffffffffffffffffffffffffffffffffff1916145b806116cf57506116ce82612278565b5b9050919050565b60008073ffffffffffffffffffffffffffffffffffffffff166116f8836119e9565b73ffffffffffffffffffffffffffffffffffffffff1614159050919050565b61171f6117e4565b73ffffffffffffffffffffffffffffffffffffffff1661173d61105c565b73ffffffffffffffffffffffffffffffffffffffff1614611793576040517f08c379a000000000000000000000000000000000000000000000000000000000815260040161178a906146a0565b60405180910390fd5b565b6002600854036117da576040517f08c379a00000000000000000000000000000000000000000000000000000000081526004016117d19061470c565b60405180910390fd5b6002600881905550565b600033905090565b6000806117fa8585856122e2565b90506000816000015190506118166118106117e4565b8261251b565b816020015173ffffffffffffffffffffffffffffffffffffffff16817f1e98ed4919fa421d4b871082794f2c63228dd0b5efb584e1a6131de3a7d26cb260405160405180910390a380925050509392505050565b600d60009054906101000a900473ffffffffffffffffffffffffffffffffffffffff1673ffffffffffffffffffffffffffffffffffffffff166342966c68826040518263ffffffff1660e01b81526004016118c59190613270565b600060405180830381600087803b1580156118df57600080fd5b505af11580156118f3573d6000803e3d6000fd5b50505050600d60009054906101000a900473ffffffffffffffffffffffffffffffffffffffff1673ffffffffffffffffffffffffffffffffffffffff166119386117e4565b73ffffffffffffffffffffffffffffffffffffffff167fdbdf9b8e4b75e75b162d151ec8fc7f0561cabab5fcccfa2600be62223e4300c48360405161197d9190613270565b60405180910390a350565b6001600881905550565b6000816040516020016119a591906147a3565b604051602081830303815290604052805190602001209050919050565b60008060006119d18585612738565b915091506119de81612789565b819250505092915050565b60006002600083815260200190815260200160002060009054906101000a900473ffffffffffffffffffffffffffffffffffffffff169050919050565b6000600760009054906101000a900473ffffffffffffffffffffffffffffffffffffffff16905081600760006101000a81548173ffffffffffffffffffffffffffffffffffffffff021916908373ffffffffffffffffffffffffffffffffffffffff1602179055508173ffffffffffffffffffffffffffffffffffffffff168173ffffffffffffffffffffffffffffffffffffffff167f8be0079c531659141344cd1fd0a4f28419497f9722a3daafe3b4186f6b6457e060405160405180910390a35050565b60008251905083518114611b2c576040517fa24a13a600000000000000000000000000000000000000000000000000000000815260040160405180910390fd5b60005b81811015611cb8576000858281518110611b4c57611b4b6147c9565b5b602002602001015190506000858381518110611b6b57611b6a6147c9565b5b60200260200101519050848015611b875750611b86816116d6565b5b15611bbe576040517f3fc613e700000000000000000000000000000000000000000000000000000000815260040160405180910390fd5b60405180606001604052808281526020018373ffffffffffffffffffffffffffffffffffffffff16815260200160011515815250600660008473ffffffffffffffffffffffffffffffffffffffff1673ffffffffffffffffffffffffffffffffffffffff1681526020019081526020016000206000820151816000015560208201518160010160006101000a81548173ffffffffffffffffffffffffffffffffffffffff021916908373ffffffffffffffffffffffffffffffffffffffff16021790555060408201518160010160146101000a81548160ff021916908315150217905550905050505080611cb190614827565b9050611b2f565b5050505050565b611cc8816116d6565b611d07576040517f08c379a0000000000000000000000000000000000000000000000000000000008152600401611cfe90613c86565b60405180910390fd5b50565b6060600c8054611d1990613c09565b80601f0160208091040260200160405190810160405280929190818152602001828054611d4590613c09565b8015611d925780601f10611d6757610100808354040283529160200191611d92565b820191906000526020600020905b815481529060010190602001808311611d7557829003601f168201915b5050505050905090565b606060006001611dab846128ef565b01905060008167ffffffffffffffff811115611dca57611dc96135bc565b5b6040519080825280601f01601f191660200182016040528015611dfc5781602001600182028036833780820191505090505b509050600082602001820190505b600115611e5f578080600190039150507f3031323334353637383961626364656600000000000000000000000000000000600a86061a8153600a8581611e5357611e5261486f565b5b04945060008503611e0a575b819350505050919050565b818190508484905014611ea9576040517fa24a13a600000000000000000000000000000000000000000000000000000000815260040160405180910390fd5b60005b84849050811015612207576000858583818110611ecc57611ecb6147c9565b5b9050602002016020810190611ee1919061341e565b90506000600660008373ffffffffffffffffffffffffffffffffffffffff1673ffffffffffffffffffffffffffffffffffffffff168152602001908152602001600020604051806060016040529081600082015481526020016001820160009054906101000a900473ffffffffffffffffffffffffffffffffffffffff1673ffffffffffffffffffffffffffffffffffffffff1673ffffffffffffffffffffffffffffffffffffffff1681526020016001820160149054906101000a900460ff16151515158152505090508060400151611fe7576040517f794ea60900000000000000000000000000000000000000000000000000000000815260040160405180910390fd5b6000858585818110611ffc57611ffb6147c9565b5b9050602002016020810190612011919061341e565b905060008260000151905060405180606001604052808281526020018373ffffffffffffffffffffffffffffffffffffffff16815260200160011515815250600660008473ffffffffffffffffffffffffffffffffffffffff1673ffffffffffffffffffffffffffffffffffffffff1681526020019081526020016000206000820151816000015560208201518160010160006101000a81548173ffffffffffffffffffffffffffffffffffffffff021916908373ffffffffffffffffffffffffffffffffffffffff16021790555060408201518160010160146101000a81548160ff02191690831515021790555090505061210c816116d6565b1561216d578173ffffffffffffffffffffffffffffffffffffffff168473ffffffffffffffffffffffffffffffffffffffff16827fcd66beec785ca42d0623b531cba30cb24eacae50d76d9301b6945341cbd5856560405160405180910390a45b600660008573ffffffffffffffffffffffffffffffffffffffff1673ffffffffffffffffffffffffffffffffffffffff1681526020019081526020016000206000808201600090556001820160006101000a81549073ffffffffffffffffffffffffffffffffffffffff02191690556001820160146101000a81549060ff02191690555050505050508061220090614827565b9050611eac565b5050505050565b600061221b8585856122e2565b60000151905081156122565761225161223382610e33565b61223b6117e4565b8360405180602001604052806000815250612a42565b612271565b61227061226282610e33565b61226a6117e4565b83612a9e565b5b5050505050565b60007f01ffc9a7000000000000000000000000000000000000000000000000000000007bffffffffffffffffffffffffffffffffffffffffffffffffffffffff1916827bffffffffffffffffffffffffffffffffffffffffffffffffffffffff1916149050919050565b6122ea61314f565b814311612323576040517f4e47846c00000000000000000000000000000000000000000000000000000000815260040160405180910390fd5b61232b611194565b8243031115612366576040517fa398a38e00000000000000000000000000000000000000000000000000000000815260040160405180910390fd5b60008240905060006123a66123796117e4565b8360405160200161238b9291906148e6565b60405160208183030381529060405280519060200120611992565b9050600061240187878080601f016020809104026020016040519081016040528093929190818152602001838380828437600081840152601f19601f82011690508083019250505050505050836119c290919063ffffffff16565b90506000600660008373ffffffffffffffffffffffffffffffffffffffff1673ffffffffffffffffffffffffffffffffffffffff168152602001908152602001600020604051806060016040529081600082015481526020016001820160009054906101000a900473ffffffffffffffffffffffffffffffffffffffff1673ffffffffffffffffffffffffffffffffffffffff1673ffffffffffffffffffffffffffffffffffffffff1681526020016001820160149054906101000a900460ff16151515158152505090508060400151156124e25780945050505050612514565b6040517f8baa579f00000000000000000000000000000000000000000000000000000000815260040160405180910390fd5b9392505050565b600073ffffffffffffffffffffffffffffffffffffffff168273ffffffffffffffffffffffffffffffffffffffff160361258a576040517f08c379a00000000000000000000000000000000000000000000000000000000081526004016125819061495e565b60405180910390fd5b612593816116d6565b156125d3576040517f08c379a00000000000000000000000000000000000000000000000000000000081526004016125ca906149ca565b60405180910390fd5b6125e1600083836001612d97565b6125ea816116d6565b1561262a576040517f08c379a0000000000000000000000000000000000000000000000000000000008152600401612621906149ca565b60405180910390fd5b6001600360008473ffffffffffffffffffffffffffffffffffffffff1673ffffffffffffffffffffffffffffffffffffffff16815260200190815260200160002060008282540192505081905550816002600083815260200190815260200160002060006101000a81548173ffffffffffffffffffffffffffffffffffffffff021916908373ffffffffffffffffffffffffffffffffffffffff160217905550808273ffffffffffffffffffffffffffffffffffffffff16600073ffffffffffffffffffffffffffffffffffffffff167fddf252ad1be2c89b69c2b068fc378daa952ba7f163c4a11628f55a4df523b3ef60405160405180910390a4612734600083836001612ebd565b5050565b60008060418351036127795760008060006020860151925060408601519150606086015160001a905061276d87828585612ec3565b94509450505050612782565b60006002915091505b9250929050565b6000600481111561279d5761279c6149ea565b5b8160048111156127b0576127af6149ea565b5b03156128ec57600160048111156127ca576127c96149ea565b5b8160048111156127dd576127dc6149ea565b5b0361281d576040517f08c379a000000000000000000000000000000000000000000000000000000000815260040161281490614a65565b60405180910390fd5b60026004811115612831576128306149ea565b5b816004811115612844576128436149ea565b5b03612884576040517f08c379a000000000000000000000000000000000000000000000000000000000815260040161287b90614ad1565b60405180910390fd5b60036004811115612898576128976149ea565b5b8160048111156128ab576128aa6149ea565b5b036128eb576040517f08c379a00000000000000000000000000000000000000000000000000000000081526004016128e290614b63565b60405180910390fd5b5b50565b600080600090507a184f03e93ff9f4daa797ed6e38ed64bf6a1f010000000000000000831061294d577a184f03e93ff9f4daa797ed6e38ed64bf6a1f01000000000000000083816129435761294261486f565b5b0492506040810190505b6d04ee2d6d415b85acef8100000000831061298a576d04ee2d6d415b85acef810000000083816129805761297f61486f565b5b0492506020810190505b662386f26fc1000083106129b957662386f26fc1000083816129af576129ae61486f565b5b0492506010810190505b6305f5e10083106129e2576305f5e10083816129d8576129d761486f565b5b0492506008810190505b6127108310612a075761271083816129fd576129fc61486f565b5b0492506004810190505b60648310612a2a5760648381612a2057612a1f61486f565b5b0492506002810190505b600a8310612a39576001810190505b80915050919050565b612a4d848484612a9e565b612a5984848484612fa5565b612a98576040517f08c379a0000000000000000000000000000000000000000000000000000000008152600401612a8f90614bf5565b60405180910390fd5b50505050565b8273ffffffffffffffffffffffffffffffffffffffff16612abe82610e33565b73ffffffffffffffffffffffffffffffffffffffff1614612b14576040517f08c379a0000000000000000000000000000000000000000000000000000000008152600401612b0b90614c87565b60405180910390fd5b600073ffffffffffffffffffffffffffffffffffffffff168273ffffffffffffffffffffffffffffffffffffffff1603612b83576040517f08c379a0000000000000000000000000000000000000000000000000000000008152600401612b7a90614d19565b60405180910390fd5b612b908383836001612d97565b8273ffffffffffffffffffffffffffffffffffffffff16612bb082610e33565b73ffffffffffffffffffffffffffffffffffffffff1614612c06576040517f08c379a0000000000000000000000000000000000000000000000000000000008152600401612bfd90614c87565b60405180910390fd5b6004600082815260200190815260200160002060006101000a81549073ffffffffffffffffffffffffffffffffffffffff02191690556001600360008573ffffffffffffffffffffffffffffffffffffffff1673ffffffffffffffffffffffffffffffffffffffff168152602001908152602001600020600082825403925050819055506001600360008473ffffffffffffffffffffffffffffffffffffffff1673ffffffffffffffffffffffffffffffffffffffff16815260200190815260200160002060008282540192505081905550816002600083815260200190815260200160002060006101000a81548173ffffffffffffffffffffffffffffffffffffffff021916908373ffffffffffffffffffffffffffffffffffffffff160217905550808273ffffffffffffffffffffffffffffffffffffffff168473ffffffffffffffffffffffffffffffffffffffff167fddf252ad1be2c89b69c2b068fc378daa952ba7f163c4a11628f55a4df523b3ef60405160405180910390a4612d928383836001612ebd565b505050565b6001811115612eb757600073ffffffffffffffffffffffffffffffffffffffff168473ffffffffffffffffffffffffffffffffffffffff1614612e2b5780600360008673ffffffffffffffffffffffffffffffffffffffff1673ffffffffffffffffffffffffffffffffffffffff1681526020019081526020016000206000828254612e239190614d39565b925050819055505b600073ffffffffffffffffffffffffffffffffffffffff168373ffffffffffffffffffffffffffffffffffffffff1614612eb65780600360008573ffffffffffffffffffffffffffffffffffffffff1673ffffffffffffffffffffffffffffffffffffffff1681526020019081526020016000206000828254612eae9190614d6d565b925050819055505b5b50505050565b50505050565b6000807f7fffffffffffffffffffffffffffffff5d576e7357a4501ddfe92f46681b20a08360001c1115612efe576000600391509150612f9c565b600060018787878760405160008152602001604052604051612f239493929190614dcc565b6020604051602081039080840390855afa158015612f45573d6000803e3d6000fd5b505050602060405103519050600073ffffffffffffffffffffffffffffffffffffffff168173ffffffffffffffffffffffffffffffffffffffff1603612f9357600060019250925050612f9c565b80600092509250505b94509492505050565b6000612fc68473ffffffffffffffffffffffffffffffffffffffff1661312c565b1561311f578373ffffffffffffffffffffffffffffffffffffffff1663150b7a02612fef6117e4565b8786866040518563ffffffff1660e01b81526004016130119493929190614e66565b6020604051808303816000875af192505050801561304d57506040513d601f19601f8201168201806040525081019061304a9190614ec7565b60015b6130cf573d806000811461307d576040519150601f19603f3d011682016040523d82523d6000602084013e613082565b606091505b5060008151036130c7576040517f08c379a00000000000000000000000000000000000000000000000000000000081526004016130be90614bf5565b60405180910390fd5b805181602001fd5b63150b7a0260e01b7bffffffffffffffffffffffffffffffffffffffffffffffffffffffff1916817bffffffffffffffffffffffffffffffffffffffffffffffffffffffff191614915050613124565b600190505b949350505050565b6000808273ffffffffffffffffffffffffffffffffffffffff163b119050919050565b604051806060016040528060008152602001600073ffffffffffffffffffffffffffffffffffffffff1681526020016000151581525090565b6000604051905090565b600080fd5b600080fd5b60007fffffffff0000000000000000000000000000000000000000000000000000000082169050919050565b6131d18161319c565b81146131dc57600080fd5b50565b6000813590506131ee816131c8565b92915050565b60006020828403121561320a57613209613192565b5b6000613218848285016131df565b91505092915050565b60008115159050919050565b61323681613221565b82525050565b6000602082019050613251600083018461322d565b92915050565b6000819050919050565b61326a81613257565b82525050565b60006020820190506132856000830184613261565b92915050565b600081519050919050565b600082825260208201905092915050565b60005b838110156132c55780820151818401526020810190506132aa565b60008484015250505050565b6000601f19601f8301169050919050565b60006132ed8261328b565b6132f78185613296565b93506133078185602086016132a7565b613310816132d1565b840191505092915050565b6000602082019050818103600083015261333581846132e2565b905092915050565b61334681613257565b811461335157600080fd5b50565b6000813590506133638161333d565b92915050565b60006020828403121561337f5761337e613192565b5b600061338d84828501613354565b91505092915050565b600073ffffffffffffffffffffffffffffffffffffffff82169050919050565b60006133c182613396565b9050919050565b6133d1816133b6565b82525050565b60006020820190506133ec60008301846133c8565b92915050565b6133fb816133b6565b811461340657600080fd5b50565b600081359050613418816133f2565b92915050565b60006020828403121561343457613433613192565b5b600061344284828501613409565b91505092915050565b6000806040838503121561346257613461613192565b5b600061347085828601613409565b925050602061348185828601613354565b9150509250929050565b6000806000606084860312156134a4576134a3613192565b5b60006134b286828701613409565b93505060206134c386828701613409565b92505060406134d486828701613354565b9150509250925092565b600080fd5b600080fd5b600080fd5b60008083601f840112613503576135026134de565b5b8235905067ffffffffffffffff8111156135205761351f6134e3565b5b60208301915083600182028301111561353c5761353b6134e8565b5b9250929050565b6000806000806060858703121561355d5761355c613192565b5b600061356b87828801613354565b945050602085013567ffffffffffffffff81111561358c5761358b613197565b5b613598878288016134ed565b935093505060406135ab87828801613354565b91505092959194509250565b600080fd5b7f4e487b7100000000000000000000000000000000000000000000000000000000600052604160045260246000fd5b6135f4826132d1565b810181811067ffffffffffffffff82111715613613576136126135bc565b5b80604052505050565b6000613626613188565b905061363282826135eb565b919050565b600067ffffffffffffffff821115613652576136516135bc565b5b61365b826132d1565b9050602081019050919050565b82818337600083830152505050565b600061368a61368584613637565b61361c565b9050828152602081018484840111156136a6576136a56135b7565b5b6136b1848285613668565b509392505050565b600082601f8301126136ce576136cd6134de565b5b81356136de848260208601613677565b91505092915050565b600080600060608486031215613700576136ff613192565b5b600061370e86828701613354565b935050602084013567ffffffffffffffff81111561372f5761372e613197565b5b61373b868287016136b9565b925050604084013567ffffffffffffffff81111561375c5761375b613197565b5b613768868287016136b9565b9150509250925092565b60008083601f840112613788576137876134de565b5b8235905067ffffffffffffffff8111156137a5576137a46134e3565b5b6020830191508360018202830111156137c1576137c06134e8565b5b9250929050565b600080602083850312156137df576137de613192565b5b600083013567ffffffffffffffff8111156137fd576137fc613197565b5b61380985828601613772565b92509250509250929050565b61381e81613221565b811461382957600080fd5b50565b60008135905061383b81613815565b92915050565b6000806040838503121561385857613857613192565b5b600061386685828601613409565b92505060206138778582860161382c565b9150509250929050565b6000806000806080858703121561389b5761389a613192565b5b60006138a987828801613409565b94505060206138ba87828801613409565b93505060406138cb87828801613354565b925050606085013567ffffffffffffffff8111156138ec576138eb613197565b5b6138f8878288016136b9565b91505092959194509250565b60008083601f84011261391a576139196134de565b5b8235905067ffffffffffffffff811115613937576139366134e3565b5b602083019150836020820283011115613953576139526134e8565b5b9250929050565b60008083601f8401126139705761396f6134de565b5b8235905067ffffffffffffffff81111561398d5761398c6134e3565b5b6020830191508360208202830111156139a9576139a86134e8565b5b9250929050565b6000806000806000606086880312156139cc576139cb613192565b5b600086013567ffffffffffffffff8111156139ea576139e9613197565b5b6139f688828901613904565b9550955050602086013567ffffffffffffffff811115613a1957613a18613197565b5b613a258882890161395a565b93509350506040613a388882890161382c565b9150509295509295909350565b60008060008060408587031215613a5f57613a5e613192565b5b600085013567ffffffffffffffff811115613a7d57613a7c613197565b5b613a8987828801613904565b9450945050602085013567ffffffffffffffff811115613aac57613aab613197565b5b613ab887828801613904565b925092505092959194509250565b600080600060408486031215613adf57613ade613192565b5b600084013567ffffffffffffffff811115613afd57613afc613197565b5b613b09868287016134ed565b93509350506020613b1c86828701613354565b9150509250925092565b60008060008060608587031215613b4057613b3f613192565b5b600085013567ffffffffffffffff811115613b5e57613b5d613197565b5b613b6a878288016134ed565b94509450506020613b7d87828801613354565b9250506040613b8e8782880161382c565b91505092959194509250565b60008060408385031215613bb157613bb0613192565b5b6000613bbf85828601613409565b9250506020613bd085828601613409565b9150509250929050565b7f4e487b7100000000000000000000000000000000000000000000000000000000600052602260045260246000fd5b60006002820490506001821680613c2157607f821691505b602082108103613c3457613c33613bda565b5b50919050565b7f4552433732313a20696e76616c696420746f6b656e2049440000000000000000600082015250565b6000613c70601883613296565b9150613c7b82613c3a565b602082019050919050565b60006020820190508181036000830152613c9f81613c63565b9050919050565b7f455243373231207075626c696320617070726f7665206e6f7420616c6c6f776560008201527f6400000000000000000000000000000000000000000000000000000000000000602082015250565b6000613d02602183613296565b9150613d0d82613ca6565b604082019050919050565b60006020820190508181036000830152613d3181613cf5565b9050919050565b7f455243373231207075626c6963207472616e7366657246726f6d206e6f74206160008201527f6c6c6f7765640000000000000000000000000000000000000000000000000000602082015250565b6000613d94602683613296565b9150613d9f82613d38565b604082019050919050565b60006020820190508181036000830152613dc381613d87565b9050919050565b600081519050613dd9816133f2565b92915050565b600060208284031215613df557613df4613192565b5b6000613e0384828501613dca565b91505092915050565b7f426c6f6f644f664d6f6c6f63683a206e6f74206f776e6572206f6620636c616960008201527f6d20746f6b656e00000000000000000000000000000000000000000000000000602082015250565b6000613e68602783613296565b9150613e7382613e0c565b604082019050919050565b60006020820190508181036000830152613e9781613e5b565b9050919050565b6000604082019050613eb360008301856133c8565b613ec060208301846133c8565b9392505050565b600081519050613ed681613815565b92915050565b600060208284031215613ef257613ef1613192565b5b6000613f0084828501613ec7565b91505092915050565b7f426c6f6f644f664d6f6c6f63683a206e6f7420617070726f7665640000000000600082015250565b6000613f3f601b83613296565b9150613f4a82613f09565b602082019050919050565b60006020820190508181036000830152613f6e81613f32565b9050919050565b7f455243373231207075626c696320736166655472616e7366657246726f6d206e60008201527f6f7420616c6c6f77656400000000000000000000000000000000000000000000602082015250565b6000613fd1602a83613296565b9150613fdc82613f75565b604082019050919050565b6000602082019050818103600083015261400081613fc4565b9050919050565b600082905092915050565b60008190508160005260206000209050919050565b60006020601f8301049050919050565b600082821b905092915050565b6000600883026140747fffffffffffffffffffffffffffffffffffffffffffffffffffffffffffffffff82614037565b61407e8683614037565b95508019841693508086168417925050509392505050565b6000819050919050565b60006140bb6140b66140b184613257565b614096565b613257565b9050919050565b6000819050919050565b6140d5836140a0565b6140e96140e1826140c2565b848454614044565b825550505050565b600090565b6140fe6140f1565b6141098184846140cc565b505050565b5b8181101561412d576141226000826140f6565b60018101905061410f565b5050565b601f8211156141725761414381614012565b61414c84614027565b8101602085101561415b578190505b61416f61416785614027565b83018261410e565b50505b505050565b600082821c905092915050565b600061419560001984600802614177565b1980831691505092915050565b60006141ae8383614184565b9150826002028217905092915050565b6141c88383614007565b67ffffffffffffffff8111156141e1576141e06135bc565b5b6141eb8254613c09565b6141f6828285614131565b6000601f8311600181146142255760008415614213578287013590505b61421d85826141a2565b865550614285565b601f19841661423386614012565b60005b8281101561425b57848901358255600182019150602085019450602081019050614236565b868310156142785784890135614274601f891682614184565b8355505b6001600288020188555050505b50505050505050565b7f4552433732313a2061646472657373207a65726f206973206e6f74206120766160008201527f6c6964206f776e65720000000000000000000000000000000000000000000000602082015250565b60006142ea602983613296565b91506142f58261428e565b604082019050919050565b60006020820190508181036000830152614319816142dd565b9050919050565b7f455243373231207075626c696320736574417070726f76616c466f72416c6c2060008201527f6e6f7420616c6c6f776564000000000000000000000000000000000000000000602082015250565b600061437c602b83613296565b915061438782614320565b604082019050919050565b600060208201905081810360008301526143ab8161436f565b9050919050565b7f426c6f6f644f664d6f6c6f63683a206e6f206261736520555249000000000000600082015250565b60006143e8601a83613296565b91506143f3826143b2565b602082019050919050565b60006020820190508181036000830152614417816143db565b9050919050565b7f426c6f6f644f664d6f6c6f63683a206e6f20636c61696d20746f6b656e000000600082015250565b6000614454601d83613296565b915061445f8261441e565b602082019050919050565b6000602082019050818103600083015261448381614447565b9050919050565b7f426c6f6f644f664d6f6c6f63683a206e6f206368697073207365656465640000600082015250565b60006144c0601e83613296565b91506144cb8261448a565b602082019050919050565b600060208201905081810360008301526144ef816144b3565b9050919050565b600081905092915050565b600061450c8261328b565b61451681856144f6565b93506145268185602086016132a7565b80840191505092915050565b600061453e8285614501565b915061454a8284614501565b91508190509392505050565b7f426c6f6f644f664d6f6c6f63683a206e756c6c20616464726573730000000000600082015250565b600061458c601b83613296565b915061459782614556565b602082019050919050565b600060208201905081810360008301526145bb8161457f565b9050919050565b7f4f776e61626c653a206e6577206f776e657220697320746865207a65726f206160008201527f6464726573730000000000000000000000000000000000000000000000000000602082015250565b600061461e602683613296565b9150614629826145c2565b604082019050919050565b6000602082019050818103600083015261464d81614611565b9050919050565b7f4f776e61626c653a2063616c6c6572206973206e6f7420746865206f776e6572600082015250565b600061468a602083613296565b915061469582614654565b602082019050919050565b600060208201905081810360008301526146b98161467d565b9050919050565b7f5265656e7472616e637947756172643a207265656e7472616e742063616c6c00600082015250565b60006146f6601f83613296565b9150614701826146c0565b602082019050919050565b60006020820190508181036000830152614725816146e9565b9050919050565b7f19457468657265756d205369676e6564204d6573736167653a0a333200000000600082015250565b6000614762601c836144f6565b915061476d8261472c565b601c82019050919050565b6000819050919050565b6000819050919050565b61479d61479882614778565b614782565b82525050565b60006147ae82614755565b91506147ba828461478c565b60208201915081905092915050565b7f4e487b7100000000000000000000000000000000000000000000000000000000600052603260045260246000fd5b7f4e487b7100000000000000000000000000000000000000000000000000000000600052601160045260246000fd5b600061483282613257565b91507fffffffffffffffffffffffffffffffffffffffffffffffffffffffffffffffff8203614864576148636147f8565b5b600182019050919050565b7f4e487b7100000000000000000000000000000000000000000000000000000000600052601260045260246000fd5b60008160601b9050919050565b60006148b68261489e565b9050919050565b60006148c8826148ab565b9050919050565b6148e06148db826133b6565b6148bd565b82525050565b60006148f282856148cf565b601482019150614902828461478c565b6020820191508190509392505050565b7f4552433732313a206d696e7420746f20746865207a65726f2061646472657373600082015250565b6000614948602083613296565b915061495382614912565b602082019050919050565b600060208201905081810360008301526149778161493b565b9050919050565b7f4552433732313a20746f6b656e20616c7265616479206d696e74656400000000600082015250565b60006149b4601c83613296565b91506149bf8261497e565b602082019050919050565b600060208201905081810360008301526149e3816149a7565b9050919050565b7f4e487b7100000000000000000000000000000000000000000000000000000000600052602160045260246000fd5b7f45434453413a20696e76616c6964207369676e61747572650000000000000000600082015250565b6000614a4f601883613296565b9150614a5a82614a19565b602082019050919050565b60006020820190508181036000830152614a7e81614a42565b9050919050565b7f45434453413a20696e76616c6964207369676e6174757265206c656e67746800600082015250565b6000614abb601f83613296565b9150614ac682614a85565b602082019050919050565b60006020820190508181036000830152614aea81614aae565b9050919050565b7f45434453413a20696e76616c6964207369676e6174757265202773272076616c60008201527f7565000000000000000000000000000000000000000000000000000000000000602082015250565b6000614b4d602283613296565b9150614b5882614af1565b604082019050919050565b60006020820190508181036000830152614b7c81614b40565b9050919050565b7f4552433732313a207472616e7366657220746f206e6f6e20455243373231526560008201527f63656976657220696d706c656d656e7465720000000000000000000000000000602082015250565b6000614bdf603283613296565b9150614bea82614b83565b604082019050919050565b60006020820190508181036000830152614c0e81614bd2565b9050919050565b7f4552433732313a207472616e736665722066726f6d20696e636f72726563742060008201527f6f776e6572000000000000000000000000000000000000000000000000000000602082015250565b6000614c71602583613296565b9150614c7c82614c15565b604082019050919050565b60006020820190508181036000830152614ca081614c64565b9050919050565b7f4552433732313a207472616e7366657220746f20746865207a65726f2061646460008201527f7265737300000000000000000000000000000000000000000000000000000000602082015250565b6000614d03602483613296565b9150614d0e82614ca7565b604082019050919050565b60006020820190508181036000830152614d3281614cf6565b9050919050565b6000614d4482613257565b9150614d4f83613257565b9250828203905081811115614d6757614d666147f8565b5b92915050565b6000614d7882613257565b9150614d8383613257565b9250828201905080821115614d9b57614d9a6147f8565b5b92915050565b614daa81614778565b82525050565b600060ff82169050919050565b614dc681614db0565b82525050565b6000608082019050614de16000830187614da1565b614dee6020830186614dbd565b614dfb6040830185614da1565b614e086060830184614da1565b95945050505050565b600081519050919050565b600082825260208201905092915050565b6000614e3882614e11565b614e428185614e1c565b9350614e528185602086016132a7565b614e5b816132d1565b840191505092915050565b6000608082019050614e7b60008301876133c8565b614e8860208301866133c8565b614e956040830185613261565b8181036060830152614ea78184614e2d565b905095945050505050565b600081519050614ec1816131c8565b92915050565b600060208284031215614edd57614edc613192565b5b6000614eeb84828501614eb2565b9150509291505056fea26469706673582212204aa7f9137325742d3e789ce32b427cff1ee6321e6096a26a80a4153b5a249ac564736f6c63430008110033",
  "linkReferences": {},
  "deployedLinkReferences": {}
}